:100000000C949C000C94C4000C94C4000C94C40088
:100010000C94C4000C94C4000C94C4000C94C40050
:100020000C94C4000C94C4000C94611A0C94D01A63
:100030000C94C4000C94C4000C94C4000C94C40030
:100040000C94C4000C94401E0C94C4000C94C40086
:100050000C94C4000C94C4000C94C4000C94021DB5
:100060000C94C4000C94C4000C94C4000C94C40000
:100070000C94C4000C94C4000C94C4000C94C400F0
:100080000C944C1D0C94C4000C94C4000C94C4003B
:100090000C94C4000C94C4000C94C4000C94C400D0
:1000A0000C94C4000C94C4000C94C400D5F08D14BE
:1000B000A1C881CFD9F1AF2000C0A0D92181FFA86C
:1000C00000A800A83F080B0002020200000904007B
:1000D00000010202000005240010010524010101B5
:1000E00004240206052406000107058103100040D0
:1000F00009040100020A0000000705020240000096
:10010000070583024000000403090412010002EF06
:100110000201404123368000010102030141726463
:1001200075696E6F204C4C430055534220494F2057
:10013000426F61726400571E11241FBECFEFDAE0D8
:10014000DEBFCDBF11E0A0E0B1E0EAE8F4E502C017
:1001500005900D92A838B107D9F729E0A8E8B1E0D9
:1001600001C01D92A134B207E1F710E0CCE9D0E064
:1001700004C02197FE010E943D2ACB39D107C9F75F
:100180000E94A81E0C94432A0C94000080917206D1
:10019000823020F082508093720608951092720689
:1001A0000895482F50E049595E4FFA01EE0FFF1FA6
:1001B000EC5BF94F20813181260F311D67FD3A95A7
:1001C0008430A8F4213C8FEF38072CF420543F4FA3
:1001D0003183208308952038310534F4440F551FAE
:1001E000FA01EC5BF94FF4CF205C3109F1CF263DE9
:1001F0008FEF38071CF425553F4FEACF20383105E3
:100200006CF32B5A3109E4CF0F93382FCB014E31C9
:1002100009F455C04E3209F43DC04E3009F045C0D6
:100220000451003308F0C0C0E02FF0E0E65EFE4F5E
:100230000C943D2AA7015D01D4015D0194015D018B
:100240005D015D015D015D015D01D401D401C50168
:100250005D01D4015D015D015D01D4015D015D01C0
:100260005D015D015D015D015D015D015D015D019E
:100270005D015D01D401D401D401D401D401D401C4
:10028000D401D401A7015D01D401D4015101D401ED
:100290005D015D01033358F40D3218F40B50023048
:1002A00040F481E0313009F05EC080E05CC00F3F77
:1002B00011F02F3F11F43230C1F781E054C0043205
:1002C000F8F40B31D0F70B3098F40530B0F701306B
:1002D00009F44BC0E0F1033029F12D3008F079C06A
:1002E0002B3018F7233009F44DC0243031F7DDCF1F
:1002F0000A31D8F6083108F70451033070F7DDCF22
:100300000D3250F40A32C8F60532B9F270F20632F4
:1003100049F0083211F7D1CF0434A8F40C3328F691
:100320000333D9F6313009F260E170E00E94292AE6
:100330009C0197FF03C031952195310981E0283058
:10034000310589F4B2CF0E3F08F0ABCFC6CF60E1E4
:1003500070E00E94292A9C01255F3F4F81E02731F0
:10036000310508F0A2CF0F910895313009F4A5CFDF
:100370002D3078F52B3008F098CF2350223008F03C
:100380009CCF93CF313081F290CF313009F095CFAF
:1003900060E170E00E94292A9C01285F3F4F81E0C4
:1003A0002131310500F381CF233209F47ECF38F4B7
:1003B000243108F47ACF283109F07FCF76CF2F335C
:1003C00008F47BCF223408F470CF2E3F08F475CFA9
:1003D0006CCF203538F42C3308F067CF273109F47F
:1003E00064CF6BCF2F3F09F460CF67CF982F6E306B
:1003F00019F16E31C1F4233339F040F4233021F088
:10040000263211F0211108C081E015C02C3320F0F4
:100410002434D0F32E3FC0F74532B1F330F44330EB
:1004200039F04A3089F380E008954E3FE0F3ECCF95
:1004300081E09130C1F70895283131F34A3021F33A
:1004400018F4413081F7E0CF4132F1F2433259F7ED
:10045000DBCF0F93382FCB014E3161F14E32C1F01B
:100460004E3009F5273208F076C0243288F526315F
:1004700009F44DC008F064C02431A8F0253141F1E1
:10048000043208F091C0023270F4043108F50BC058
:10049000233358F42D3218F42B50223040F481E0ED
:1004A000313009F045C080E043C02F3FC1F30F3F1A
:1004B000D1F30EC02432D0F42B3150F42B3050F451
:1004C000253030F4223019F1243069F3213031F431
:1004D00081E02EC0273139F32A3129F30D3050F550
:1004E0000B3008F70350023098F7DDCF2D3240F47F
:1004F0002A3270F72432B9F22752223078F7E8CF47
:100500002C3360F3243478F22E3F68F6E7CF313095
:10051000F9F260E170E00E94292A9C0197FF03C074
:1005200031952195310981E02830310509F4BBCF9F
:100530000F9108950C3360F2003508F0B8CFB3CFB7
:100540002A3131F218F4273119F29ACF2052233090
:1005500008F096CFBDCF2F3309F4A5CFC0F42433D4
:1005600090F4283208F0B4CF313009F09CCF60E12C
:1005700070E00E94292A9C01285F3F4F81E02131D1
:100580003105B0F290CF2D3309F4A2CF79CF2434C6
:1005900038F4223408F09CCF203409F480CF70CF97
:1005A0002E3F08F080CF6CCF0F53033008F090CF70
:1005B0007ACF982F6E30E9F06E31B1F4473131F0D7
:1005C00038F4423099F050F0453040F481E01FC0DB
:1005D0004C3320F04434D0F34E3FC0F72731B1F311
:1005E0002532A1F32A3091F380E008958230B1F7EB
:1005F000EDCF463149F028F4443140F32132A1F7E0
:10060000E5CF473219F3FACF81E0913069F30895CD
:10061000909171069E3131F09E3211F09E3031F48E
:1006200081E008958A3111F08432D1F780E0089595
:100630009C0190916E06943169F0E92FF0E0EE0F85
:10064000FF1FEC5BF94F338322839F5F90936E060D
:1006500081E0089580E00895482F2091F2053091BF
:10066000F30586B52827C9019695879520FF02C016
:1006700024EB92279093F3058093F205641B770B8C
:100680000E94152A840F08952BE130E0E6E2F9E09C
:10069000A0E0B0E0BD0180E00E94A1030E949003B1
:1006A000BD011296A20FB31F8217930799F38F5FB4
:1006B0009F4F21F4AF5FBF40DB0178F00E94B90586
:1006C00040E05091F0056091F10580E20E949503B1
:1006D000599A0E945405A0E0B0E07CEF0E94B90551
:1006E0004A2F5091F0055B0F6091F105611D82E08A
:1006F0000E949503832F71FD822F70FD81910E94CE
:10070000AD03759518F42150304019F01196AA23C5
:1007100089F7599A0E94540521153105F9F6089573
:100720000E945F05982F0C944E0559980E94AD03C6
:10073000862F0E94AD03852F0E94AD03842F0C9459
:10074000AD03462F5091F005570F6091F105681FDA
:1007500083E00E9495031EBC08958EBD00008EB5F7
:100760000DB407FEFCCF0895FC018091EF058823AE
:1007700011F13FB7F89482E08093E9002091F200F4
:10078000822F90E01816190614F481E090E0882377
:1007900039F0289844E64093EE054091F1004083FB
:1007A000222339F02091F200211103C02BE620937F
:1007B000E8003FBF08958FEF9FEF08952FB7F8949B
:1007C00083E08093E9009091E800892F807295FF83
:1007D00004C09091F20080E4891B2FBF089580919E
:1007E000E60581110DC082E08093E20584E08093EC
:1007F000E3051092E5051092E40581E08093E6059B
:1008000082EE95E00895CF93DF931F92CDB7DEB7C8
:100810006983DC01ED91FC910280F381E02D41E0E0
:1008200050E0BE016F5F7F4F09950F90DF91CF9130
:10083000089583E08093E9008091F200882319F005
:100840008AE38093E80008950E94DE0390E0089513
:10085000CF93DF931F92CDB7DEB7FC0184859585DA
:1008600097FD08C02FEF3FEF358724870F90DF916A
:10087000CF910895CE0101960E94B403019719F417
:10088000898190E0F3CF8FEF9FEFF0CF0F931F930D
:10089000CF93DF931F92CDB7DEB78C01FC01848527
:1008A000958597FF0BC0CE0101960E94B403019776
:1008B00071F4898190E0F80195878487F801848537
:1008C00095850F90DF91CF911F910F9108958FEF34
:1008D0009FEFF1CFFC018485958597FD0BC09FB7F5
:1008E000F89482E08093E9008091F2009FBF90E04D
:1008F000019608959FB7F89482E08093E900809173
:10090000F2009FBF90E008954091DC055091DD0515
:100910002091DA053091DB0542175307B4F490912A
:10092000E8009570E1F39091E80092FD19C0809382
:10093000F1008091DC059091DD0501968F73992778
:10094000892B19F48EEF8093E8008091DC0590915B
:10095000DD0501969093DD058093DC0581E0089527
:1009600080E00895EF92FF920F931F93CF93DF9350
:10097000F82E192FE62E042F81E0860F880F0E9493
:10098000840483E00E948404CF2DD12FEC0EFD2E31
:10099000F11CCE15DF05B9F007FF13C0FE018491ED
:1009A0000E948404182F80E00E94840481232196F1
:1009B0008111EFCFDF91CF911F910F91FF90EF90B9
:1009C00008958881EDCF81E0F5CFDF92EF92FF921D
:1009D0000F931F93CF93DF93D82E8A01EB017B01F6
:1009E000E40EF51ECE15DF0559F0D7FE12C0FE014C
:1009F00084910E94840421968111F4CF0FEF1FEFA0
:100A0000C801DF91CF911F910F91FF90EF90DF9080
:100A100008958881EECF0F931F93CF93DF931F929A
:100A2000CDB7DEB782E0898342E450E065EC70E048
:100A300080E80E94E5040E94EF03DC0112960D910C
:100A40001C910115110589F0D801ED91FC910280EE
:100A5000F381E02DBE016F5F7F4FC801099597FDBF
:100A600004C0F80100851185ECCF89810F90DF91DA
:100A7000CF911F910F910895615030F02091F100B6
:100A8000FC0120830196F8CF289884E68093EE0538
:100A900008950E945F05982F0C945F050DB407FE22
:100AA000FDCF8EB5599A0895599885E00E94AD03FF
:100AB00080E00E94AD0380FDFBCF599A08950DB4EC
:100AC00007FEFDCF8EB51EBC0895FC010E945F0598
:100AD000819361507040D1F7089590E0409F09F4F0
:100AE000142E5527090E151E600D711D851F11242A
:100AF0000C9490050F9303E020E00E946D050E9486
:100B00004905782F0E944E05682F892F0F9108956F
:100B10000F9301E020E00E946D050F910C944E05AB
:100B2000462F5091C101570F6091C201681F83E0A9
:100B30000E9495031EBC08950F931F93CF93DF93DC
:100B4000EA0189010E949005FE010150104021F048
:100B50000E945F058193F9CF0E944E058083DF914B
:100B6000CF911F910F91089559980E94AD03599A02
:100B7000089586E00C94B405FC010E945706319755
:100B800028F068517C4F8F4F9F4FF9CFAB01FC018C
:100B90000E945706641775078E079F07C8F30895CC
:100BA00085E090E00C94BC058F929F92AF92BF922B
:100BB000CF92DF92EF92FF920F931F93CF93DF9329
:100BC0006C017B018A0180910F01882309F45AC0CE
:100BD0008091EF05882309F455C08091E10580FFDD
:100BE00005C08091E00082608093E000E801B12CB4
:100BF0008AEFA82E93E0892E2AE3922E209711F4F3
:100C0000BB20C9F10E94DE03811108C0AA94AA206A
:100C1000C9F181E090E00E94BC05F0CF8C171D0661
:100C200011F00CF08C2F9FB7F8948092E90020917E
:100C3000E80025FD02C09FBFE1CF282F30E0C21B96
:100C4000D30BF701815020F041914093F100FACF8E
:100C5000E20EF31EBB2021F09092E800B12CEBCF06
:100C60008091E80085FDE7CF9092E800BB24B39423
:100C7000209709F3F3CF5D9884E68093E005101682
:100C800011063CF081E090E0F6019383828310E04E
:100C900000E0C801DF91CF911F910F91FF90EF907D
:100CA000DF90CF90BF90AF909F908F900895ADEB65
:100CB000B1E02FB7F8947D918D919C9166B52FBFCF
:100CC000A89B05C06F3F18F47F5F8F4F9F4F22E0B6
:100CD000660F771F881F991F2A95D1F708958632CE
:100CE00040F4833220F48A3011F08A3131F481E00B
:100CF00008958832E1F38A32D1F380E0089590912B
:100D000071069E3159F020F4963141F080E008954B
:100D1000963211F09E32D1F70C946F0689518431CE
:100D2000A8F7E82FF0E0E956F94F0C943D2AAB06FE
:100D3000AB0686068606860686068606860686062E
:100D4000AB068606AB06AB068606860686068606D4
:100D50008606AB06AB0681E0089590917106963148
:100D600059F020F49E3041F080E008959E3111F05A
:100D70009632D1F70C946F0689518431A8F7E82F89
:100D8000F0E0EB53F94F0C943D2AD906D906B4068E
:100D9000B406B406B406B406B406B406D906B4065E
:100DA000D906D906B406B406B406B406B406D90604
:100DB000D90681E0089530E73CBDDC0130E8439F6F
:100DC000C0011124A80FB91F5E91352F6111372F73
:100DD0003C93C89500C052235EBD0197A9F704D08B
:100DE00003D030E50DB43CBD08958091C40588233F
:100DF00029F081508093C40581E0089580E0089532
:100E00008091B5018093B6019FB19095907F669BCC
:100E100098601C9B94609093B501809589230895F8
:100E200097FD0F9624E0959587952A95E1F7860F13
:100E3000911D67FD9A9597FD16C08C3B910579F041
:100E40008D3B910571F08C3B91056CF46EE570E083
:100E50000E94292AFC01E05FFE4F808108958EEFF9
:100E600008958BE008958FEF089520916F063091DB
:100E70007006265531092635310578F52CEF022EFE
:100E8000000C330B40911009509111094850510941
:100E9000241B350B37FF02C0215F3F4F94E035958F
:100EA00027959A95E1F7A901480F511D87FD5A959D
:100EB000CA0157FD18C04C3B510589F04D3B510507
:100EC00081F04C3B51057CF46EE570E00E94292ACC
:100ED000FC01E05FFE4F8081089520E0D0CF8EEFCF
:100EE00008958BE008958FEF0895E7E8F6E070E04D
:100EF0003081418152812381313081F4022E000CF6
:100F0000330BD901A61BB70B1A161B06A4F41897AE
:100F10005CF44817590741F481E00895353071F3C6
:100F2000333061F3373051F33996B7E0E032FB07E5
:100F3000F9F680E00895DB01A21BB30B1897A4F724
:100F4000E8CFDF92EF92FF920F931F93CF93DF933F
:100F5000EC01809110099091110960EE75E018166E
:100F6000190614F060E27AEF0E94292A623009F42F
:100F700061E080EE95E0689F7001699FF00C11249C
:100F80006EE580E00E942C03082F63E080E00E9461
:100F90002C03D82E10E0F801E05FFE4F40816CE694
:100FA00074ED83E00E94880594E0000F111F9A956C
:100FB000E1F70E0D1F1D2091100930911109200F2E
:100FC000311F20353105E0F291E0D91681F1D916B3
:100FD00078F092E0D912D4CF82FFD2CF6FE0C8016F
:100FE0000E9475078111CCCF87E088838CE00BC00D
:100FF00080FFC6CF6FE2C8010E9475078111C0CF84
:1010000087E088838CE28B831A83098318861F828A
:1010100064E080E00E942C0390E09E838D83DF914A
:10102000CF911F910F91FF90EF90DF90089581FF76
:10103000A7CF6FE1C8010E9475078111A1CF87E09A
:1010400088838CE1E0CFDF92EF92FF920F931F93A2
:10105000CF93DF938C01809110099091110960EE7C
:1010600075E01816190614F060E27AEF0E94292A3A
:10107000623009F461E080EE95E0689F7001699F3D
:10108000F00C11246EE580E00E942C03C82F63E071
:1010900080E00E942C03D82ED0E0FE01E05FFE4FDE
:1010A00040816CE674ED83E00E94880594E0CC0FEB
:1010B000DD1F9A95E1F7CE0DDF1D209110093091CB
:1010C00011092C0F3D1F20353105E0F291E0D916B2
:1010D00059F1D91680F0E2E0DE12D4CF82FFD2CFF0
:1010E0006FE0CE010E9475078111CCCF83E0F8013B
:1010F000808382E10CC080FFC5CF6FE2CE010E94E9
:1011000075078111BFCF83E0F801808382E3838379
:10111000D283C18310861782DF91CF911F910F91E7
:10112000FF90EF90DF90089581FFACCF6FE1CE018B
:101130000E9475078111A6CF83E0F801808382E2C7
:10114000E6CFAF92BF92DF92EF92FF920F931F9381
:10115000CF93DF93EC01809110099091110960EE1B
:1011600075E01816190614F060E27AEF0E94292A39
:10117000623009F461E080EE95E0689F5001699F5C
:10118000B00C11246EE580E00E942C03E82EF12CB7
:1011900063E080E00E942C03D82E870184E0000FDA
:1011A000111F8A95E1F70A0D1B1D8091100990917E
:1011B0001109800F911F8436910520F3F701E05F3C
:1011C000FE4F40816CE674ED83E00E94880591E05B
:1011D000D91649F1D91678F092E0D912D3CF82FF0F
:1011E000D1CF6FE0C8010E9475078111CBCF81E09C
:1011F00088838FE00BC080FFC5CF6FE2C8010E94DB
:1012000075078111BFCF81E088838FE28B831A83BA
:101210000983DF91CF911F910F91FF90EF90DF90A5
:10122000BF90AF90089581FFADCF6FE1C8010E94DC
:1012300075078111A7CFD8828FE1E8CF0F931F9355
:10124000CF93DF9361110FC02091100930911109E4
:10125000319521953109FC0141815281241B350BC7
:101260002C393F4FCCF4209144062B30A9F48C014B
:101270008091100990911109C0E6DFEFC81BD90BCE
:101280006AE080E00E942C0340E1849FC019D109EC
:101290001124F801D283C183DF91CF911F910F9167
:1012A00008950F931F93CF93DF9361110FC0209187
:1012B000100930911109319521953109FC014181C5
:1012C0005281241B350B25363105D4F0209144067C
:1012D0002B30B1F48C012091100930911109C0EA32
:1012E000D0E0C21BD30B6AE080E00E942C03F0E147
:1012F0008F9FC00111248C0F9D1FF8019283818361
:10130000DF91CF911F910F9108959093CA0580931B
:10131000C9052091100930911109319521953109A4
:10132000E7E8F6E080E090E04081413031F441812F
:101330005281421753075CF49F5F399647E0E032D1
:10134000F40791F79093C8058093C70508958F5FC0
:10135000F4CFCF93A0E0BC018A2F6A5370448C4F26
:101360000E9490050E945F05C82F0E944E058C2F99
:10137000CF910895109271001092C1001092A101B6
:101380001092D70508958091A101882329F18091B9
:10139000AE01811121C06091AF017091B0018091C7
:1013A000B1012DE030E042EA51E00E949C0534E0BA
:1013B000E2EAF1E090E080E0219141915191452BEA
:1013C00011F41092A1012695821B91093150A1F7C9
:1013D0009093A00180939F018091D7058823C1F04D
:1013E00080919601811114C06091B2017091B30196
:1013F0008091B40124E030E043E951E00E949C0573
:101400008091940190919501892B11F41092D70548
:101410008091A101811106C08091D705811102C080
:101420000C94BA090895CF9390912609992341F11C
:101430009091C301992321F1482F6EEA7FEB83E05D
:101440000E947A056093B2017093B3018093B40156
:10145000C1E0C093D7050E94C3098091710081113A
:101460000FC080E094E090939900809398001092D0
:10147000950010929400C093C10082E080937100A7
:10148000CF9108958091A101811104C08091D70569
:10149000882341F0809190018F5F833020F4809306
:1014A000900181E00895109290010E94C3098091FB
:1014B000AE01882399F081508093AE0181110EC056
:1014C0008091AF019091B001A091B1010D96A11D45
:1014D0008093AF019093B001A093B10180919601E8
:1014E0008823F9F28150809396018111DACF80919F
:1014F000B2019091B301A091B4010496A11D809313
:10150000B2019093B301A093B401CBCFCF92DF92FD
:10151000EF92CF938093D40590912609992351F1AE
:101520009091C301992331F1482F6BEA7FEB83E05F
:101530000E947A056B01E82E0E94BA09C092AF01A1
:10154000D092B001E092B1011092AE01C1E0C0931F
:10155000A1010E94420A80E094E090939900809358
:1015600098001092950010929400C093C10082E000
:1015700080937100CF91EF90DF90CF9008953F92CC
:101580004F925F926F927F928F929F92AF92BF9293
:10159000CF92DF92EF92FF920F931F93CF93DF933F
:1015A00000D01F92CDB7DEB73A01862EA4ECB1E091
:1015B000B701E02FDD24382E96959695969531E06B
:1015C00061FD34E060FD330F62FD32955FEF539FA4
:1015D0007001E094F094759567957595679575958C
:1015E0006795462F4F3F4CF44095941B20FD440FC8
:1015F000489F600C711C8D1C4FEF17FF0BC0300E05
:1016000020FF02C0000F111F601A710A8D0817FD1C
:101610008394EE2750E845030E0EA00DB11D5E1B0E
:10162000351608F0352E57E0541B591714F4952F32
:10163000D39450E85319482E552421FD02C0431875
:10164000550820FF02C0440C551C11245B824A82BD
:10165000932E0090C101700C0090C201801C19C033
:10166000599833E03EBD640C751C811CAA24831577
:1016700009F0A3940CD08EBC07D07EBC05D06EBC04
:1016800003D01EBC03D00895C8950000C895C89526
:101690000895641875088108E3DF41151CF099234B
:1016A00071F564C0A058BF4FC32C20FD0CC06EB5AF
:1016B0001EBC699DBC90BF20B128BD92C89500C0DA
:1016C000CA94A9F711C06EB51EBC699DB001DEDFDA
:1016D000EEB41EBCE99C7001BC90F094BF20B72A08
:1016E000BD92C895CA9479F71124A319B1099A95A6
:1016F00009F45CC0AA2019F00DB4599AB1DFFD01BC
:10170000E058FF4FC32C20FD0EC06EB51EBC699D76
:10171000BC90BE20B028BD92B080BF20B128B1924D
:10172000CA9499F716C06EB51EBC699DB001BC90F5
:10173000F080AEDF00C0EEB41EBCE99C0094B02087
:10174000B62ABD921094F120F72AF1920000CA94B3
:1017500051F71124A50FB11D9A9561F6DD2031F1E5
:10176000AA2021F00DB4599A7BDFC89520FD0CC04A
:101770006EB51EBC699DBC90BE20B028BD92C895B8
:1017800000C03A94A9F712C06EB51EBC699DB001A5
:101790007DDF9EB51EBC999D902DBC909095B92281
:1017A000B62ABD92C8953A9479F7C8951124599AEA
:1017B0000DB40F900F900F90DF91CF911F910F916B
:1017C000FF90EF90DF90CF90BF90AF909F908F9061
:1017D0007F906F905F904F903F9008956F927F92AF
:1017E0008F92AF92CF92DF92EF92FF920F931F935F
:1017F000803891050CF03AC0603471050CF036C0A9
:10180000A42FB0E0FD01E80FF91F1E161F060CF013
:101810002DC0E22FF0E03F01660E771E161417046C
:101820000CF024C03701802E7B018C019E2F88276D
:10183000842B9B2BC114D104A1F0269526952695C7
:10184000A0FC220F249FF001ED9D700C811CFC9DDB
:10185000700C811CFD9D800CEC9D600C711C112492
:10186000811C2A2D682DA3010E94BF0A1F910F9190
:10187000FF90EF90DF90CF90AF908F907F906F9020
:101880000895AF92CF92DF92EF92FF920F9332E0E2
:10189000E30EF11C011D33E0A32E0E94EE0B0F910D
:1018A000FF90EF90DF90CF90AF9008957F928F924E
:1018B0009F92AF92CF92DF92EF92FF920F931F937E
:1018C000CF93DF93EC014B016901E42E842FB90122
:1018D0000E9490050E945F05782E0E944E054E2DB5
:1018E00096012E5F3F4F4F4F93E0A92E680179017B
:1018F000042F282F472DB401CE010E94EE0BDF915B
:10190000CF911F910F91FF90EF90DF90CF90AF900C
:101910009F908F907F9008957F928F929F92AF9229
:10192000CF92DF92EF92FF920F931F93CF93DF93AB
:10193000EC014B016901E42E842FB9010E9490054E
:101940000E945F05782E0E944E054E2D96012E5F57
:101950003F4F4F4F92E0A92E68017901042F282FA5
:10196000472DB401CE010E94EE0BDF91CF911F9164
:101970000F91FF90EF90DF90CF90AF909F908F905E
:101980007F900895DC01222319F0D8961C92D897F5
:1019900046175707A0F0D8969C91D897943161F0DC
:1019A000E92FF0E0EE0FFF1FEA0FFB1F518B408B7A
:1019B0009F5FD8969C93D89741505109E9CF0895DD
:1019C000EF92FF920F931F93CF93DF938C0180913F
:1019D00010099091110960EE75E01816190614F0BF
:1019E00060E27AEF0E94292A623009F461E080EE19
:1019F00095E0689F7001699FF00C11246EE580E00E
:101A00000E942C03C82FD0E0FE01E05FFE4FE08172
:101A1000E451E63198F7F0E0E05FF24F0C943D2A94
:101A2000260D260D260D260DFE0C260D260D260D47
:101A3000260D260D260D260D260D260D260DFE0C37
:101A4000260D260D260DFE0C260D260D84E0CC0F4E
:101A5000DD1F8A95E1F7CE0DDF1D6FE0CE010E94FC
:101A600075078111CBCF82E0F80180838AEF8383F1
:101A7000D283C18380E3848386E091E0968385836B
:101A800021E04CE051E066E071E0C801DF91CF91C8
:101A90001F910F91FF90EF900C94C20CCF93DF93A6
:101AA00000D000D000D0CDB7DEB7DC018C91833000
:101AB00049F1843009F443C0823089F411962D91A4
:101AC0003C911297295C3F4F260F371F13964C917C
:101AD000042E000C550B4C5F5F4FE8E0F8E03A83B2
:101AE00029835C834B833A815C816F2F7E2F80E05A
:101AF00090E026960FB6F894DEBF0FBECDBFDF9103
:101B0000CF91089511962D913C91129713964C9177
:101B10001397042E000C550B4A5F5F4F15968D915D
:101B20009C91855C9109449738F4235C3F4F260FC4
:101B3000371FE5E0F6E0D3CF275C3F4FF8CF119693
:101B40002D913C911297235C3F4F260F371F139620
:101B50004C91042E000C550B495F5F4FE4E0F4E01C
:101B6000BECF0F931F93CF93DF9300D000D000D050
:101B7000CDB7DEB78C01FC019081953009F44FC0E0
:101B8000C8F49130A1F1933009F43DC03A83298320
:101B90005C834B833A815C81BD0180E090E02696B6
:101BA0000FB6F894DEBF0FBECDBFDF91CF911F916E
:101BB0000F910895973009F43CC040F39950943048
:101BC00028F7858196818830910500F7FC01E15165
:101BD000F24FD80113964C919B010C943D2A230E91
:101BE0002D0E360E3F0E470E4D0E550E580E9B0114
:101BF000275C3F4F4381042E000C550B4E5F5F4F17
:101C0000B6E0A6E0C3CF9B01245C3F4F4381042E86
:101C1000000C550B4F5F5F4FB5E0A5E0B7CF9B01C0
:101C2000215C3F4F4381042E000C550B455F5F4FF5
:101C3000F3CF9B01215C3F4F4381042E000C550BD9
:101C4000495F5F4FDDCF225C3F4F042E000C550BE8
:101C5000465F5F4FB6E0A8E099CF265C3F4F042E69
:101C6000000C550B4A5F5F4FB8E0F5CF265C3F4F45
:101C7000042E000C550B4C5F5F4FB8E0C2CF265CC2
:101C80003F4F042E000C550B4E5F5F4FEDCF225C93
:101C90003F4F042E000C550BDDCF205C3F4F042E30
:101CA000000C550B4F5F5F4FDFCF2D5B3F4FE0CFF9
:101CB000205C3F4F042E000C550B495F5F4FD4CF83
:101CC000CF93DF93EC01E881E150ED30B0F4F0E028
:101CD000E459F14F0C943D2A790E7D0E7D0E7D0E58
:101CE000900E7D0EA30E7D0EB00EC40ECE0ED40E41
:101CF0008A0E8F819885009711F480E008C00197C3
:101D000098878F83892BC9F782E0888381E0DF91F0
:101D1000CF9108958C81883380F78F5F8C83EDCFCE
:101D20008F81988501968033910551F098878F8334
:101D30008F81988523E0969587952A95E1F7EECFD8
:101D400018861F82F5CF8F8198850097B1F2019791
:101D500098878F83892B89F688E0888382E0D7CFA4
:101D60008B81803F54F283508B8389819A810397C2
:101D70009A8389838D819E81019668E070E00E943C
:101D8000292A9E838D83B9CF8B81803F0CF4B5CFF8
:101D900083508B8389819A810396EACF8B8181342A
:101DA0000CF0ABCF8D5FE0CF8B8181340CF0A5CFF1
:101DB0008D5FEFCF5C98FC012591CF012EBD000017
:101DC0000DB407FEFDCF6150B1F75C9A08959C01F8
:101DD0006217730790F090916E06943159F0E92FD5
:101DE000F0E0EE0FFF1FEC5BF94F738362839F5FA0
:101DF00090936E0661507109EBCF0895DC01461790
:101E00005707A0F0D8969C91D897943161F0E92FAC
:101E1000F0E0EE0FFF1FEA0FFB1F518B408B9F5F1F
:101E2000D8969C93D89741505109E9CF0895CF9304
:101E3000DF93FC012581368122343140F9F4EC0135
:101E40008EE28B8362E080E00E942C0320911009D7
:101E5000309111098823A9F084E690E0821B930B4E
:101E60009A8389838DE191E09E838D834CE251E0DA
:101E70006DE171E0CE010E94FE0E1C82DF91CF91D8
:101E800008958CE99FEF821B930B9A8389838DE0E1
:101E900091E09E838D834CE151E06DE071E0EACFEB
:101EA0002F923F924F925F926F927F928F929F926A
:101EB000AF92BF92CF92DF92EF92FF920F931F9358
:101EC000CF93DF93CDB7DEB765970FB6F894DEBF3B
:101ED0000FBECDBF0E940007A090B5018091D10533
:101EE0009091D2059C012F5F3F4F3A8B298B309305
:101EF000D2052093D1058EEF0E943507D82E8FEFA3
:101F00000E943507B82E80E00E943507182F81E027
:101F10000E943507C82E82E00E943507082F898964
:101F20009A8963E070E00E94152A9D8B8C8B30911A
:101F300000013B8B3090020120900101892B11F0B0
:101F40000C94DF193F3F11F00C94571A37FE12C062
:101F500027FE10C080E297E00E94600E89E297E0C1
:101F60000E94600E82E397E00E94600E8BE397E090
:101F70000E94600EE0916E06E1112EC2809144062F
:101F80008B3009F468C068F08E3058F4A3FE9FC30C
:101F90004EE142151CF043150CF099C38FE080937D
:101FA0004406E0916E06EE2309F491C3E150E093FC
:101FB0006E06F0E0EE0FFF1FEC5BF94F628173815C
:101FC0007093700660936F06660F771F660F771F1A
:101FD00080E0665F7E438C4F0E94900564E070E075
:101FE000CE0101960E9465050E944E058091710602
:101FF0009981890F809371060B81F12C602F8F2DB1
:102000000E94D100F39424E0F212F8CF80910E09DF
:1020100090910F09800F911D07FD9A9590930F09DC
:1020200080930E098A812091100930911109280F9F
:10203000311D87FD3A953093110920931009181628
:102040000CF00CC29091740690310CF00EC2890F06
:10205000809374060AC2A2FE0EC084E591E00E943D
:10206000850980E491E09093D0058093CF0510928C
:10207000CE051092CD05E0906F06F0907006A3FE9D
:102080009AC085E0E816F10449F0E8F4E114F1049F
:1020900061F1A3E0EA16F10409F083CF80917106A3
:1020A0008E3109F448C08E3239F18E3009F079CF83
:1020B000103409F476CF40E4C41609F472CF00342A
:1020C00009F46FCF38C0B9E5EB16F104C9F1EBE5BF
:1020D000EE16F104A9F1F6E5EF16F10409F061CF6F
:1020E00067E670E08CE590E004C061E170E086E0B6
:1020F00090E00E94E70E55CF1A3040F01D3008F4F2
:1021000050CF83ED810F863008F44BCF2BE0C21601
:1021100048F03CE03C1508F044CF83ED8C0D863050
:1021200008F43FCF0A3038F00D3008F43ACF0D52A2
:10213000063008F436CF6DE170E082E190E0D9CF4F
:10214000809171068E3191F18E3271F08E3009F0EE
:1021500028CF103409F425CFE0E4BE1609F421CFCE
:10216000DE1609F41ECF22C01A3040F01D3008F4EC
:1021700018CF83ED810F863008F413CF8BE0B816AB
:1021800048F09CE09B1508F00CCF83ED8B0D86305A
:1021900008F407CFAAE0DA1648F0BCE0BD1508F055
:1021A00000CF83ED8D0D863008F4FBCE63E770E041
:1021B00088E690E09ECFA7FE1FC080911009909105
:1021C00011098F709927892BB9F4812F0E947F06FE
:1021D000882309F4E6CEF6E5EF1AF10867E770E028
:1021E00084E790E026E5E216F10408F482CF61E28C
:1021F00070E08EE190E07DCFA4FC14C0A6FE8FC0FD
:10220000C701865591098635910508F042C0812F96
:102210000E940803882309F4C4CE1092700610921D
:102220006F06BFCE80911009909111098F70992788
:10223000D701A655B1094D01892B29F4812F0E94A0
:10224000AD06811118C0B6E58B16910448F486E5F9
:1022500090E0E2E08E16910458F487E590E008C023
:1022600090E080E0F2E0EF16F10410F481E090E0FD
:102270000E94180396CE6BE770E088E790E026E5B1
:102280008216910408F435CF65E270E082E290E0B6
:1022900030CFD090710660911009709111090C2D0A
:1022A000212F4D2D81E00E942902882371F065E0E5
:1022B00070E084E090E033E0E316F10409F419CF14
:1022C00063E070E082E090E014CF4EE0D41210C0E2
:1022D0001F3371F483E0E816F10429F461E470E03F
:1022E00086E390E006CF6DE470E082E490E001CFF9
:1022F0002C2D412F6D2D81E00E94D902882309F4F5
:1023000050CE93E0E916F10429F46DE270E086E224
:1023100090E0EFCE65E370E08EE290E0EACEA5FEBD
:1023200040CEC701865591098635910518F5D090A4
:1023300071066091100970911109012F2B2D4D2DFF
:1023400081E00E940401811122C0BEE0DB122DC099
:102350001C3311F0113449F567E970E08CE890E026
:10236000E9E5EE16F10409F4C4CE63EA70E088E909
:1023700090E0BFCE812F0E940803882309F411CE7C
:1023800086E590E09093700680936F060ACE6BE529
:1023900070E08AE590E0A9E5EA16F10409F4A9CE17
:1023A00069E570E088E590E0A4CE212F4B2D6D2DDE
:1023B00081E00E94F601882309F4F3CD63E870E020
:1023C0008CE790E0F9E5EF16F10409F492CE6BE8A2
:1023D00070E084E890E08DCEA3FEE8CD80916F069A
:1023E000909170068330910519F085309105C1F404
:1023F00010926E064DE150E020916E06243159F0A6
:10240000E22FF0E0EE0FFF1FEC5BF94F53834283A6
:102410002F5F20936E06415051094131510561F7FC
:102420008D7F8935910509F0BCCD10926E0623E7AA
:1024300030E080916E06843159F0E82FF0E0EE0F25
:10244000FF1FEC5BF94F338322838F5F80936E060F
:10245000215031092736310561F7A3CD882329F0B2
:1024600090917406913F0CF0F2CD0C81602F8F2D6E
:102470000E94D100F39438E0F312F8CF80910C0958
:1024800090910D09800F911D07FD9A959C01215097
:102490003F4F2F3F3140B0F590930D0980930C09C9
:1024A00080916E0681110DC02091710680916F069A
:1024B000909170068D31910551F18337910509F4A2
:1024C0008EC040907106512C80916F0690917006DD
:1024D0008633910508F097C18632910508F0B0C1A6
:1024E0008E31910508F06FC18230910508F0A8C1C6
:1024F000009709F4B0C1019709F493C13FEF431A63
:10250000530AA1C110920D0910920C09C9CF2E30A7
:1025100091F51F3329F058F48DEF810F823060F46C
:1025200065E570E08EE490E00E94E70ECACF1134BA
:10253000B9F310F01E3FA0F781E4C81689F38C159B
:10254000B0F093E0C91661F3173209F1F0F51D30D0
:10255000C8F51330E0F41123D1F0F1E4CF16B9F04F
:10256000FC1528F52EEFC21608F4ABCF10C0AEEF65
:10257000CA1650F3D5CF2E3109F0A3CF193239F056
:1025800058F4133078F0153010F0173159F465E530
:1025900070E082E590E0C8CF1C3320F01434B8F32B
:1025A0001E3FA8F7B7E1CB1691F3BC1530F08DEFC5
:1025B0008C0D823008F085CFEACFEEEFCE1608F40E
:1025C00080CFE5CF183149F6E2CF113401F318F48A
:1025D0001F3319F6DCCF1E3F08F4BFCFD8CF2E3003
:1025E00089F41F3329F048F48DEF810F823050F4C5
:1025F0006BEA70E084EA90E097CF1134C9F310F0F1
:102600001E3FB0F780911009909111092E3009F406
:1026100043C02E3109F055CF193241F0E0F41731A3
:1026200029F048F41330E9F0143049F46BEA70E013
:1026300088EA90E079CF1A31C9F3163291F03AE185
:10264000B316A1F33B1518F144E0B41679F387E112
:10265000B81237CFEBCF1434B8F41C3338F7133338
:1026600071F7AC014F705527452B01F360E170E025
:102670000E94292A97FF03C09195819591090C9793
:10268000A9F2422E512CDCC01E3FC8F2CFCF9EEFE4
:10269000B91608F416CFCACF1831A1F038F41330A8
:1026A00028F21550183008F00CCFC0CF173209F4BB
:1026B000BDCF20F4133209F004CFB8CF1E3F08F489
:1026C00000CFB4CF8F709927892BD9F6AFCF8091E7
:1026D0006F069091700685359105A9F040907106BE
:1026E0008635910590F58132910509F465C0C8F4ED
:1026F0008530910541F070F48130910509F472C084
:10270000039709F0DECE1092700610926F061092B9
:102710007406D7CE81319105B1F34D9709F0D1CE32
:10272000F2CF8533910579F340F48532910509F4B0
:1027300055C08D9709F0C5CEE6CF8134910519F3C8
:102740008D34910509F0BDCEDECF8737910509F4B0
:102750004DC0D8F48B35910549F078F48735910553
:1027600009F44EC08935910509F0ABCE86E590E0BD
:102770009093700680936F06CACF87369105B1F3A8
:102780008337910509F09DCEF1CF8B38910571F318
:1027900040F48B37910581F18338910509F091CE92
:1027A000E5CF833A910511F38B3A9105F9F2873918
:1027B000910509F086CEDACF812F0E947F0688230B
:1027C00009F4A1CF512C22E0420E511C7AE0E72EF1
:1027D000ECE0FE2EF8E36F2E712C47C0812F0E9493
:1027E000AD06EDCFA4FE8FCF512C1BC0812F0E94D0
:1027F0007F068111E7CFBACF812F0E94AD06F9CFB6
:10280000A4FEB4CFF1CF8437910598F488359105B3
:10281000B8F48635910509F41AC18735910509F098
:102820006DCEE7E04E0E511CB4E0EB2E1BE0F12E16
:1028300015C18C37910538F28C38910508F05ECEC1
:10284000F2E04F0E511C49E0E42E5EE0F52E67E306
:10285000662E712C0AC0A2E04A0E511C99E0E92EA6
:1028600028E0F22E3AE3632E712C07E816E05301BC
:10287000AF0CB11C6201CE0CD11C33E0832E912C25
:10288000D8018C91833009F403C208F0EBC0813089
:1028900009F48DC1075F1F4FB7E000321B0781F7B6
:1028A00020E2C22E27E0D22EF6018381805F8035A0
:1028B00008F06AC0618172818091100990911109BC
:1028C000680F791FC6010E94B10D2F833887498791
:1028D0005A876B877C8704E417E060911009709138
:1028E0001109C8010E944E0D29833A834B835C83F2
:1028F0006D837E8329813A814F815885C901860F76
:10290000911D48175907CCF58B85840F952F911D84
:102910002817390794F52B813C8149855A85C901CF
:10292000870F911D4817590744F58C85840F952F03
:10293000911D281739070CF5D80111968D919C919E
:10294000129703969093800680937F0613968C913E
:10295000139780938106109282061092840610923B
:1029600083068C91833009F437C2843009F44DC258
:10297000823019F4C8010E94E00C075C1F4FF9E097
:102980000C301F0709F0A9CF29E0C20ED11C34E496
:10299000C31637E0D30609F087CF809144068B3009
:1029A00009F084C2B4E4CB2EB7E0DB2E83010F0D17
:1029B000111DE40CF52CF11C80E8A82E82E0B82E45
:1029C00088248394912CD6018C91833031F084300B
:1029D00009F41FC2823009F060C28091CF05909146
:1029E000D005892B09F059C2609110097091110925
:1029F000C6010E944E0D29833A834B835C836D830D
:102A00007E8389819A81801791070CF046C2860FD8
:102A1000911D681679060CF040C28B819C818E1541
:102A20009F050CF03AC2870F911D481659060CF00D
:102A300034C20E94C600B092D005A092CF059092F9
:102A4000CE058092CD0583E00E94130A26C2B2E033
:102A50004B0E511C09E0E02E88E0F82EA9E36A2E07
:102A6000712C03CF853009F471C1873009F012CF82
:102A7000F801618172818091100990911109680FAC
:102A8000791FC8010E94B10D29833A834B835C836F
:102A90006D837E83D80117968D919C911897892B11
:102AA00009F0F8CE89819A818A159B050CF0F2CE47
:102AB000860F911D681679060CF0ECCE8B819C81F7
:102AC0008C159D050CF0E6CE870F911D4816590612
:102AD0000CF0E0CE11968D919C9112979093770611
:102AE0008093760613968C911397809378061092B4
:102AF0007B0610927A061092790618969C928E9216
:102B0000179786E00E94130AF801818192819093C1
:102B100022078093210783818093230768E080E068
:102B20000E942C0390E09093260780932507D801FC
:102B300011968D919C91129790932B0780932A0761
:102B400013968C9180932C0768E080E00E942C0300
:102B500090E090932F0780932E07F8018181928156
:102B6000909334078093330783818093350768E01F
:102B700080E00E942C0390E0909338078093370701
:102B8000D80111968D919C91129790933D07809357
:102B90003C0713968C9180933E0768E080E00E948A
:102BA0002C0390E0909341078093400773CEF80187
:102BB000618172818091100990911109680F791FCC
:102BC000C8010E94B10D29833A834B835C836D83D6
:102BD0007E83D80117968D919C911897892B09F0C7
:102BE00059CE89819A818A159B050CF053CE860FA8
:102BF000911D681679060CF04DCE8B819C818C1549
:102C00009D050CF047CE870F911D481659060CF014
:102C100041CE11968D919C91129790937706809357
:102C2000760613968C9113978093780610927B0604
:102C300010927A061092790618969C928E921797A7
:102C40008091220990912309805B9F4F8133B6E0E8
:102C50009B07B8F49093230980932209809124095B
:102C6000909125090196909325098093240920E4E9
:102C700031E03093CC052093CB0585E00E94130A08
:102C800009CEE0E3F6E0F0932309E0932209E6CFD2
:102C900011966D917C918091100990911109680FA6
:102CA000791FC8010E94B10D29833A834B835C834D
:102CB0006D837E83F80187819085892B09F0EACDA9
:102CC00089819A818A159B050CF0E4CD860F911DB0
:102CD000681679060CF0DECD8B819C818C159D05E4
:102CE0000CF0D8CD870F911D481659060CF0D2CDA7
:102CF00081819281909377068093760683818350B9
:102D00008093780627E030E030937B0620937A06A4
:102D1000109279069086878280917206893090F4AD
:102D20008E5F8093720680E892E09093D005809346
:102D3000CF051092CE051092CD05C8010E94230840
:102D400086E09CCF3BE030937206EDCF8091CF05BB
:102D50009091D005892B09F09DCD11966D917C91B4
:102D60008091100990911109680F791FC8010E9484
:102D7000B10D29833A834B835C836D837E83898184
:102D80009A818A159B050CF085CD860F911D6816DA
:102D900079060CF07FCD8B819C818C159D050CF004
:102DA00079CD870F911D481659060CF073CD25E09B
:102DB00030E0F801308727830E94C60080E892E067
:102DC0009093D0058093CF05A1E0B0E0B093CE05FD
:102DD000A093CD0583E052CFF80185819681853C93
:102DE000910508F4CACD893D910550F0825F9109A3
:102DF000449708F0C2CD61E0C8010E945109BDCDE1
:102E000061E0C8010E941E09B8CDC8010E94170FD9
:102E1000B4CD8091CF059091D005892BF1F56091CB
:102E2000100970911109C6010E944E0D29833A8341
:102E30004B835C836D837E83F601858196818D3320
:102E4000914058F589819A818017910734F5860F52
:102E5000911D681679060CF58B819C818E159F0556
:102E6000E4F4870F911D48165906BCF480916F0653
:102E7000909170068633910508F065C08632910501
:102E800020F40697489708F0D4CD21E042E451E0C1
:102E90006DE371E0C6010E94C20C29E3C20ED11C91
:102EA0008CE099E08C159D0509F08DCD609044066D
:102EB000FCE08F2EF9E09F2EA4E4EA2EA7E0FA2E84
:102EC000D701D896EC91D897DC90EE2309F4B7C1DE
:102ED000B3E0DB1609F4E2C0F4E0DF1609F42EC11A
:102EE00022E0D2120EC0D70113968C9113978A3F1D
:102EF000C1F514968C911497882399F181501496FA
:102F00008C9329E3E20EF11C8E149F04C9F637FE60
:102F1000D0C28091220990912309009729F001974E
:102F2000909323098093220927FC93C28C899D8961
:102F3000892B09F046C2E4E2E21508F442C2239468
:102F4000209201013EC28C35910508F472CD843780
:102F5000910508F49ACF8C579109409708F069CDF4
:102F600094CFE150D701D896EC93D897F0E0EE0FCC
:102F7000FF1FEE0DFF1D6089718916967C936E937D
:102F80001597660F771F660F771F80E0665F7E4399
:102F90008C4F0E94900564E070E0CE010D960E9477
:102FA00065050E944E05F70183819D85890F838306
:102FB0009E8521813281290F311D97FD3A953283FB
:102FC00021838A3FA1F08091100990911109919578
:102FD00081959109821B930B865A9F4F853B9105E2
:102FE00030F0FBE06F1257C0C7010E94E00C609107
:102FF000100970911109C7010E944E0D2F83388767
:1030000049875A876B877C8704E417E0F801808141
:103010008430D1F56091100970911109C8010E94A6
:103020004E0D29833A834B835C836D837E83FBE063
:103030006F122AC029813A814F815885C901860FB4
:10304000911D4817590704F58B85840F952F911D05
:1030500028173907CCF42B813C8149855A85C90151
:10306000870F911D481759077CF48C85840F952F85
:10307000911D2817390744F421E042E451E06DE343
:1030800071E0C8010E94C20C075C1F4F80169106B8
:1030900009F0BCCF36CFD7011C92A9CFE150D701A0
:1030A000D896EC93D897F0E0EE0FFF1FEE0DFF1DC2
:1030B0000089118916961C930E931597B801660F17
:1030C000771F660F771F80E0665F7E438C4F0E94FC
:1030D000900564E070E0CE0101960E9465050E94B3
:1030E0004E05F70183819981890F83832A8181812C
:1030F0009281820F911D27FD9A959283818380ADE5
:103100008111FFCE083D110581F00530114009F015
:10311000F8CE60E0C7010E94510945E051E062EF3E
:1031200070E0C7010E94FE0EECCE60E0C7010E9475
:103130001E0948ED50E065EC70E0F3CFE150D70197
:10314000D896EC93D897F0E0EE0FFF1FEE0DFF1D21
:103150000089118916961C930E931597B801660F76
:10316000771F660F771F80E0665F7E438C4F0E945B
:10317000900564E070E0CE0101960E9465050E9412
:103180004E05F70183819981890F83832A8181818B
:103190009281820F911D27FD9A959283818380AD44
:1031A0008111AFCE0C32F1E01F0741F00C3321E06A
:1031B000120721F00C31114009F0A3CE6AE080E043
:1031C0000E942C038230B1F198F4882339F14CE24B
:1031D00051E064E271E0813029F160E182E00E9417
:1031E0002C03682F70E0635D7E4F4CE351E01AC002
:1031F0004CE151E064E171E08330A1F0863068F782
:103200008091100990911109919581959109D701AB
:1032100011962D913C918217930764F44CE251E092
:103220006DE171E0C7010E94FE0E4CE151E06DE0DE
:1032300071E077CF4CE151E06DE071E0F3CFF70141
:10324000A180B28085010C5F1F4F6FEFC8010E9403
:103250001007582E60E0C8010E941007782E61E028
:10326000C8010E941007182FF2E0DF1639F024E0A1
:10327000D21247CEC7010E94170F43CED701159631
:10328000CD90DC90BBEDCB16D10409F444C0C8F559
:10329000F0EBCF16D10431F000F53EEAC316D104AD
:1032A00009F02FCED70113965C90012F272D452DC5
:1032B000B50182E00E942902882309F467C040EB2F
:1032C00050E06FEA70E0BEEACB16D10409F429CFD2
:1032D0004EEA50E06DEA70E024CF48EBC416D1040A
:1032E00029F084ECC816D10409F00BCE62E080E02E
:1032F0000E942C038111ECCF4BED50E06AED70E0A1
:1033000010CF95EEC916D10489F3D0F4BDEDCB16DC
:10331000D10409F0F6CDD70113961C91072D252D68
:10332000412FB50182E00E9404018823A1F04DEDF8
:1033300050E06CED70E0BBEDCB16D104E9F6F1CEB8
:10334000E1EFCE16D10491F2FCE0CF16F1E0DF06FA
:1033500009F0D7CDCBCF1E3059F4ECE37E1619F02F
:10336000F1E47F1205C041EF50E066EE70E0D9CE87
:10337000272D452D612F82E00E94F60145EE50E099
:103380006EED70E0882309F4BCCDCBCEEEE05E128A
:1033900008C0FFE344EC50E069EB70E07F1609F4ED
:1033A000C0CE212F472D652D82E00E94D90248EB27
:1033B00050E061EB70E0882309F4A3CDB2CE37FC76
:1033C000B3CDFB89F7FD0AC0298920FD07C08F2FE7
:1033D0008F5F8B3409F461C08093000180910201FA
:1033E0008F3F61F480917206811108C01092020132
:1033F0008CE08093440680E00E94130A80910101D2
:103400008F3F71F48091220990912309892B41F417
:10341000109201018DE08093440680E00E94130A1F
:1034200065960FB6F894DEBF0FBECDBFDF91CF918A
:103430001F910F91FF90EF90DF90CF90BF90AF90D2
:103440009F908F907F906F905F904F903F902F90C4
:10345000089505E716E080E2E82E87E0F82ED8010F
:103460008C91882309F462CDC8010E94600E8130DE
:1034700041F0823071F0075F1F4FE016F10679F7D7
:1034800055CDC8010E94A10884E591E00E948509FC
:10349000F2CFC8010E94A107EECF8FEF8093000109
:1034A00080EE91E09093CA058093C90597CF37FCD1
:1034B0003BCDB4E2B3150CF43ECD3394309202010F
:1034C0003ACD1F920F920FB60F9211248F939F93B4
:1034D0008091E1009091E100937F9093E10083FF60
:1034E0000FC01092E90091E09093EB001092EC0075
:1034F00092E39093ED001092EF0598E09093F00026
:1035000082FF22C093E09093E9009091F20099230A
:1035100019F09AE39093E8009091E005992341F027
:103520009091E00591509093E005911101C05D9A52
:103530009091EE05992341F09091EE059150909372
:10354000EE05911101C0289A84FF18C08091E20015
:103550008E7E81608093E2008091E1008F7E809377
:10356000E1008091E1058E7E80618093E1059F916D
:103570008F910F900FBE0F901F90189580FFF7CF7F
:103580008091E2008E7E80618093E2008091E10074
:103590008E7E8093E1008091E1058E7E8160E5CF93
:1035A0001F920F920FB60F921124CF92DF92EF92DB
:1035B000FF920F931F932F933F934F935F936F93BC
:1035C0007F938F939F93AF93BF93EF93FF93CF938B
:1035D000DF93CDB7DEB76C97DEBFCDBF1092E900A9
:1035E0008091E80083FF25C068E0CE0145960E94E7
:1035F0003C0582EF8093E8008D8987FF39C0909168
:10360000E80090FFFCCF982F907609F034C19E8996
:103610004F89588D2F89F88C911131C0803861F510
:103620008091DF058093F1001092F1008EEF80937E
:10363000E8006C960FB6F894DEBF0FBECDBFDF91E9
:10364000CF91FF91EF91BF91AF919F918F917F911A
:103650006F915F914F913F912F911F910F91FF902B
:10366000EF90DF90CF900F900FBE0F901F901895A6
:103670009EEF9093E800C7CF1092F100D5CF913024
:1036800059F48111D3CF4130510581F68091DF0586
:103690008D7F8093DF05CACF933049F48111C6CF67
:1036A0004130510519F68091DF058260F2CF9530E7
:1036B00041F48091E80080FFFCCF20682093E30074
:1036C000B5CF963009F0A9C00B8D1C8D22E0109269
:1036D000E9001092DD051092DC05F2122EC0109266
:1036E000DB051092DA050E940B051F8299E0998391
:1036F000FA8291E09E8390EA98879AEF99872091C9
:10370000DC053091DD05275F3F4F3C832B838D83A4
:103710001092E9001092DD051092DC051093DB0594
:103720000093DA0549E050E0BE016F5F7F4F80E013
:103730000E94E5040E940B0579CF1093DB050093EE
:10374000DA050E94EF03DC0112960D911C91011520
:10375000110509F451C1D801ED91FC910480F58166
:10376000E02DBE016B5E7F4FC8010995009709F0FF
:103770003EC1F80100851185EACFF3E0FF120EC0CB
:103780008F89882309F440C0823061F440E86CE0FE
:1037900089E291E00E94B204811148CF81E28093D6
:1037A000EB0047CF813029F440E86BE08DE191E0F8
:1037B000F1CF833099F70E94EF03DC011296ED9070
:1037C000FC908E010F5F1F4F6801E114F10479F046
:1037D000D701ED91FC910680F781E02DB801C7017A
:1037E0000995080F111DF701E084F184EECFD8018F
:1037F0001C92F60101900020E9F73197BF016C1986
:103800007D0940E0C601C6CF67E071E0FB0144914D
:1038100050E080E80E94E50409CF973009F4BECF5C
:10382000983021F481E08093F10000CF993009F0C5
:10383000FDCE837009F0B2CFEFE6F1E081E031E038
:1038400096E32191222371F08093E9003093EB00FD
:10385000DF0111972C912093EC009093ED008F5F86
:10386000873079F78EE78093EA001092EA008F891B
:103870008093EF05DBCE8B8D9C8D1092E90010922A
:10388000DD051092DC059093DB058093DA05898DC8
:10389000811192C08E899D89913A49F4813209F053
:1038A0007DCF47E050E068E071E080E0B3CF913237
:1038B00009F074CF833269F48F89988DB0E0A0E06D
:1038C0008093040190930501A0930601B093070132
:1038D000ADCE803269F48091E80082FFFCCF67E0D2
:1038E00088E091E00E943C058BEF8093E8009ECE3B
:1038F000823209F09BCE8F8980930F01EEEFFFE7B4
:10390000859194918B3F9C4D51F1E0E0F8E08091DE
:10391000080190910901A0910A01B0910B01803B2F
:103920009440A105B105F1F480910F0180FD1AC00A
:10393000EE3F8AE0F80789F587E797E79183808370
:10394000809160008093DE0588E19BE00FB6F894DB
:10395000A895809360000FBE9093600067CEEEEF55
:10396000FAE0D5CF808191818737974709F05ECE05
:10397000A895809160008861809360008091DE0549
:1039800080936000EE3F2AE0F20789F08091FE0A02
:103990009091FF0A9183808349CE808191818737FE
:1039A000980751F29093FF0A8093FE0AC5CF1092B8
:1039B000FF0A1092FE0A3ACE0E94EF03DC01129633
:1039C0000D911C910115110509F4E8CED801ED9176
:1039D000FC910190F081E02DBE016B5E7F4FC8012C
:1039E0000995811123CEF80100851185EBCF1816BA
:1039F00019060CF41BCED2CEF1E0FF12BECE6BE066
:103A000071E004CF0F920FB68F939F93EF93FF93C4
:103A10008091B8018D5F8D3708F08D578093B80184
:103A2000E9EBF1E080818E4F808391819F4F9183FC
:103A300082818F4F828383818F4F8383EDEBF1E00F
:103A400080818F5F808381818F4F818382818F4FBF
:103A5000828383818F4F83838FB18F6066991C9B94
:103A600088278F3681F48091B701981B963068F0D3
:103A7000E0E0F8E087E78083818388E1809360005D
:103A8000F0936000FFCF9093B701FF91EF919F916A
:103A90008F910FBE0F9018951F920F920FB60F9235
:103AA0001124EF92FF920F931F932F933F934F9305
:103AB0005F936F937F938F939F93AF93BF93CF93B6
:103AC000DF93EF93FF938091C301882391F180915D
:103AD000A101811104C08091D705882351F1409143
:103AE0009800509199005695479556954795809125
:103AF000A10181113BC030E020E08FEF9EE3609197
:103B0000D705662309F498C0E3E9F1E061916623E3
:103B100009F492C0A191B191E0919101F0919201CB
:103B20004E0F5F1F4A175B0708F460C04A1B5B0B10
:103B3000F9CF8FEF9FEF9093990080939800FF91BA
:103B4000EF91DF91CF91BF91AF919F918F917F9135
:103B50006F915F914F913F912F911F910F91FF9026
:103B6000EF900F900FBE0F901F901895A0919F019E
:103B7000B091A00184E0F82EC7E9D1E0E2EAF1E0DB
:103B80008FEF9EE3E190619171918B01E11014C080
:103B90002296FA94F110F6CF6091D6056A9F9001B3
:103BA0006B9F300D112435952795359527953595C3
:103BB000279535952795A3CF28813981240F351F67
:103BC0002617370710F0261B370B769567952617B3
:103BD000370718F4AE0DB11D8B0129933993021BE1
:103BE000130B08171907A8F6C801D3CFFD01F695E6
:103BF000E79570E04E175F0720F0719561957109A8
:103C0000FD01A1E9B1E04D935D93E41BF50BE817CD
:103C1000F90708F4CF01E091D505E69FA001E79FE1
:103C2000500D1124559547955595479555954795B0
:103C300055954795240F351F880F991F880F991F99
:103C4000813044E09407A8F0019788279C7F9C5F0F
:103C50009093990080939800293731056CF42838A7
:103C60008FEF38075CF020581092BF002093CF00F0
:103C700066CF80E094E0ECCF28E7F5CF28E8F3CFDB
:103C80001F920F920FB60F9211248F939F9382E48D
:103C900096E0909389008093880081E08093C50529
:103CA0009F918F910F900FBE0F901F9018951092BB
:103CB000F7051092F60588EE93E0A0E0B0E080935F
:103CC000F8059093F905A093FA05B093FB0589E7F1
:103CD00091E09093F5058093F4058FEF9FEF90931B
:103CE00001068093000681E08093260984E080939A
:103CF00027091092440610924506E6E4F6E0119278
:103D0000119226E0EE36F207D1F710926E0610926D
:103D1000700610926F068CE797E0FC01B89711923D
:103D20001192E817F907D9F71082CF01C99629E057
:103D30008434920791F710920D0910920C09109299
:103D40000F0910920E09109211091092100908958E
:103D5000CDB7DEB76897DEBFCDBF789483E084BD72
:103D600083E085BD81E080936E00E1E8F0E083E0D0
:103D70008083E0E881E08083E1E983E08083E0E91B
:103D800081E08083E1EC87E08083E3EC81E0808365
:103D9000E0EC82E08083E2EC81E08083EAE787E088
:103DA0008083806880831092EF051092DF05109267
:103DB000E1058091D70081608093D70080EA8093ED
:103DC000D80089B5806189BD89B5826089BD09B493
:103DD00000FEFDCF81E090E00E94BC058091D800FC
:103DE0008F7C80618093D8008091E000807F8093F9
:103DF000E0008091E1008E7E8093E1008DE0809371
:103E0000E200559A209A81EC80937C0081EF85B97D
:103E100087EE84B982E38BB982EF8AB9769A6E987D
:103E200080EF81BB10BA80E58CBD81E08DBD0E9422
:103E3000D0055F9A0E94D0055C98ECEAF0E085918D
:103E40008EBD00000DB407FEFDCFE93BC1F75C9AC3
:103E500081E88093640011E01093650068E089EBCD
:103E600090E00E94DA0E9FB7F89422E436E0309397
:103E700089002093880083E0809380008BE1809309
:103E80008100109285001092840080916F00826002
:103E900080936F009FBF5E9AE4E1F0E08BE19CEFBE
:103EA00060EF7FEF25913591559145912851354926
:103EB00009F4CA018093C1019093C2012591359103
:103EC000559145912851354909F4BA016093F0059F
:103ED0007093F1058BEA0E94B4050E94BA0986E549
:103EE00082BF82E48093C0001093C30080E480937B
:103EF000C4001092BF008FE78093D1001092900011
:103F000089E080939100809127098093D605809362
:103F1000D5053E9A3F9A1093C3015E98F89480911C
:103F2000C505811109C083B7816083BF78948895E6
:103F300083B78E7F83BFF2CF1092C505789410911E
:103F4000D9050EEF010FEE24E394FF24FA940E3FFF
:103F500018F0EE24E394F12C2FE741E050E0B70194
:103F600084E495E00E94DB0662E083EC90E00E942E
:103F7000DA0E2FEF47E051E0B70184EC91E00E94A8
:103F8000DB0662E081EC90E00E94DA0E1F5F0E3FDC
:103F900030F48091C4058F5F8093C40510E01093C6
:103FA000D9055E9AC090D905C092D8058091440683
:103FB000833108F07BC0E82EF12CF701EE51F04E72
:103FC0000C943D2AF51FF51FF51FF51FF51F7720EF
:103FD000AE20AE20AE20AE20062184228422842290
:103FE00084221B283028302830284701880C991C4F
:103FF0008E0C9F1C84010C0D111D20E030E040E070
:1040000070E060E090E080E00E948C0C8091D1052F
:104010009091D2050C9761F41092D2051092D105BF
:104020002FEFE21AF20A83E0E822FF24E09244062E
:104030000E94F5068823D1F18091D1059091D20597
:1040400001969093D2058093D1058091C605803268
:1040500018F48F5F8093C6050E940007882331F112
:104060008091C605803211F5809164008E7F809327
:10407000640080917A00806480937A0080917A0055
:1040800086FDFCCF00917800109179000E945706C0
:10409000602771277093F3056093F20580916400A7
:1040A00081608093640085E0809344060E94420A08
:1040B000811104C08091D4050E94860A809127094D
:1040C0009091D705992311F40C940E2A863008F4A8
:1040D00086E086508093D6058AE08093D50580E0FF
:1040E00090E0892B09F419CF0E94000016CF86E0DA
:1040F0008093440684E190E090937706809376065F
:104100008EEC8093780610927D0610927C0688E2F1
:1041100090E09093800680937F068AEB80938106DF
:10412000109286061092850686E490E090938906A8
:10413000809388068CEE80938A0610928F061092E8
:104140008E068FE590E0909392068093910688ED1D
:104150008093930610929806109297060E94F50697
:10416000882319F10E94000787FF07C09091440639
:10417000963019F091509093440684FF07C09091B7
:104180004406983019F09F5F909344068C7069F054
:104190009091440680912609909345069730E9F066
:1041A000983011F18AE09630E1F0809144069091C8
:1041B0002609992349F186500C2D10E093E0899F40
:1041C000000D111D112422E030E340E070E060E0BA
:1041D00090E080E00E948C0C69CF85E08093030121
:1041E00081E180934406E1CF91E0892780932609FD
:1041F000882339F08091D4050E94860A0E944403E6
:10420000D4CF0E94BA09FACF8350D6CF8EE28093E2
:104210007106109274068BE08093720610926E06FF
:104220008093440680E396E09093230980932209CB
:1042300010922509109224098FEF80930201809338
:10424000010110920001E4E4F6E011AA3996A7E01A
:10425000E331FA07D1F710927C071092B50710925C
:10426000EE07109227081092600810929908109299
:10427000D20810920B09B2E1EB2EB9E0FB2E10E050
:1042800002E020E0412F6AE176EC83E00E946D05B8
:104290000E949003F701819391937F011F5F183073
:1042A00079F73DE03093750620E12093780680EEA3
:1042B0009CEF909377068093760630937E0620934A
:1042C00081069093800680937F0687E896E00E949F
:1042D000A10880E996E00E94A10889E996E00E9481
:1042E000A10882EA96E00E94A1088BEA96E00E946B
:1042F000A10884EB96E00E94A10888ED96E00E9458
:10430000230881EE96E00E94230895E09093BD0675
:104310008AE28093C00620ED30E03093BF06209300
:10432000BE069093C6068093C90620EF33E0309313
:10433000C8062093C7069093CF068093D20620EF3D
:1043400034E03093D1062093D0069093D806809322
:10435000DB0620E436E03093DA062093D90690930A
:10436000E1068093E40620EB36E03093E3062093E9
:10437000E2069093EA068093ED0620E037E0309362
:10438000EC062093EB069093F3068093F60620EF5D
:1043900037E03093F5062093F4069093FC06809363
:1043A000FF0680EB98E09093FE068093FD0685E083
:1043B00097E00E9423088EE097E00E94230887E19F
:1043C00097E00E94A10789E0809320078CEE8093FC
:1043D00023071AE01093290780932C078BE0809322
:1043E000320780E5809335079CE090933B078093EC
:1043F0003E0784E497E00E94E00C8DE797E00E947E
:10440000E00C86EB97E00E94E00C8FEE97E00E94B4
:10441000E00CF4E0DF2ED09228080EE200932B0887
:1044200080EC90E090932A0880932908ADE1EA2E71
:10443000FF24F394F0922E08E0922D084CE251E014
:104440006DE171E088E298E00E94FE0E10922C0867
:10445000D09261080093640884EE91E09093630821
:1044600080936208F0926708E09266084CE251E09F
:104470006DE171E081E698E00E94FE0E1092650801
:1044800003E000939A088CE180939D0880EF90E010
:1044900090939C0880939B0882EF90E09093A008F3
:1044A00080939F0845E051E062EF70E08AE998E070
:1044B0000E94FE0E10929E080093D3081093D60817
:1044C00080EA9FEF9093D5088093D40885EC90E024
:1044D0009093D9088093D80848ED50E065EC70E0DF
:1044E00083ED98E00E94FE0E1092D70880EC9FEFBB
:1044F00090931109809310098FEF9FEF0E94850917
:104500001092D2051092D1050E94F50681110E94E9
:10451000500F80916F06909170060E94A9098093B8
:1045200073068C2C912C80910C0990910D0997FDAC
:1045300001969595879572E0A72E640106EBE02E13
:104540000DEEF02E02E020E240E870E060E08058DE
:1045500091090E94EE0B80910C0990910D0997FD35
:10456000019622E0A22E640106EBE02E0DEEF02E65
:1045700002E020E240E870E060E0959587950E94B7
:10458000EE0B80910C0990910D0997FD0196959580
:104590008795B2E0AB2E640106EBE02E0DEEF02E17
:1045A00002E020E240E870E060E080589F4F0E9407
:1045B000EE0B0AE1C02E09E0D02E84E0F82E4F2D3C
:1045C00062EB74ED83E00E947A059B01482F840121
:1045D0006FE070E0D6018D919D916D010E94560CA7
:1045E000F394B8E0FB12EBCFF2E1CF2EF9E0DF2E2F
:1045F000F12C4F2D62EB74ED83E00E947A059B0154
:10460000482F84016EE070E0F601819191916F0175
:104610000E94560CF394F4E0FF12EBCF8091100946
:1046200090911109E9ECAE2EBB24BA94A81AB90AEC
:10463000B7FE03C02FE0A20EB11C64E0B594A794AE
:104640006A95E1F7350181E0681A710874E0AA0CF7
:10465000BB1C7A95E1F7512C412C97E2A90EB11CB5
:10466000A0EA4A16510409F474C0BFEF6B167B062A
:10467000E1F177FC33C0ECEB6E16710479F1FDEBE0
:104680006F16710491F12CEB621671043CF5C301B5
:104690006EE570E00E94292AFC01E05FFE4F208158
:1046A000822F90E02C33C0F4243108F144976C0140
:1046B000CC0CDD1CC80ED91EC80CD91CE091100909
:1046C000F09111090AE5E02E04E1F02E03E028E262
:1046D00040E162E170E01FC0203528F18FEF681AD9
:1046E000780A90E1490E511CBBCF8BE090E06C0141
:1046F000CC0CDD1CC80ED91EC80CD91CE0911009C9
:10470000F091110906EBE02E03EFF02E02E028E114
:1047100040E162E270E0C501840D951D8E0F9F1F80
:104720000E94410CDBCFCC976C01CC0CDD1CC80E79
:10473000D91EC80CD91CE0911009F091110908E5A7
:10474000E02E02E0F02E03E020E340E16AE070E0BA
:10475000E2CF30900001AFEF3A124DC117E8A12E21
:1047600016E0B12EF50181819281C7962091100942
:1047700030911109820F931F9C01205E3F4F213A17
:10478000310508F0AFC02081213071F46381062E1D
:10479000000C770B64010CE5E02E00E5F02E03E041
:1047A00020E140E10E94410CD5018C918330D1F48D
:1047B00013966C911397062E000C770B11968D9122
:1047C0009C91CA96E0911009F0911109640106EAE2
:1047D000E02E0AE6F02E03E028E049E08E0F9F1F4E
:1047E0000E94410CF5018081853051F58091D10501
:1047F0009091D205969587959695879566E070E09D
:104800000E94152A6C01CC0CDD1CC80ED91EC80CE8
:10481000D91C6381062E000C770B0180F281E02DFC
:10482000FA9680911009909111090EEDE02E0AE69A
:10483000F02E03E020E140E18E0F9F1F0E94410C0B
:10484000D5018C91873029F515968D919C911697FD
:1048500099276C01CC0CDD1CC80ED91EC80CD91CC4
:1048600013966C911397062E000C770B11968D9171
:104870009C91CA96E0911009F091110900E6E02E92
:104880000FE6F02E03E020E140E18E0F9F1F0E9413
:10489000410CF50180818950843020F563818FE0DF
:1048A000860F8F34F8F48581968199276C01CC0CA2
:1048B000DD1CC80ED91EC80CD91C062E000C770BA7
:1048C00081819281CA96E0911009F091110906EF59
:1048D000E02E0AEAF02E02E020E140E18E0F9F1F59
:1048E0000E94410CF9E0AF0EB11C24E4A21627E0AF
:1048F000B20609F037CFF4E4AF2EF7E0BF2EACE0FC
:104900004A2EA9E05A2E13E0D50111966D907C90A5
:10491000B7E36B0E711C8091100990911109680E1C
:10492000791EC3018096813A910508F05DC0F501BA
:1049300080818230F9F4858196810E94A909D50190
:1049400014969C91992311F093FD14C06401819FEA
:10495000C00CD11C1124F5016381062E000C770BCD
:1049600000EAE02E0BE5F02E03E020E140E1C30178
:104970000E94410CD5010C910330C9F415968D911C
:104980009C910E94A9096401809FC00CD11C112434
:10499000F5016381062E000C770B02EAE02E0EE58E
:1049A000F02E03E020E14EE0C3010E94410CD5014E
:1049B0008C918430C9F415968D919C910E94A9091F
:1049C0006401819FC00CD11C1124F5016381062E66
:1049D000000C770B04EEE02E03E6F02E03E020E15E
:1049E00040E1C3010E94410CF9E3AF0EB11C4A142F
:1049F0005B0409F089CF8091CF059091D005009795
:104A000009F4C0C101979093D0058093CF05209100
:104A1000CD053091CE05232B11F086FDA3C18091E9
:104A2000720613E06401819FC00CD11C11240AE1BD
:104A3000E02E02E7F02E02E028E043E261E070E0C1
:104A400081E090E00E94410C809173066401819F97
:104A5000C00CD11C11246091710670E008EFE02EAB
:104A600000EBF02E02E020E140E186E390E00E94BE
:104A7000410C8091CB059091CC05009761F0019796
:104A80009093CC058093CB056401A4EDCA1AAEEFD8
:104A9000DA0A86FD10C08091220990912309F4E082
:104AA00096958795FA95E1F76C01CC0CDD1CC80E44
:104AB000D91EC80CD91C0EE2E02E0AE2F02E02E04C
:104AC00028E04AE161E070E085E690E00E94410C58
:104AD00080917906883308F586958695869590911C
:104AE0007A06890F8401B3E08B9F000D111D1124FC
:104AF00060917806062E000C770B809176069091D7
:104B00007706C796E0911009F09111092EE131E581
:104B100043E08E0F9F1F0E94560C809182068833BF
:104B200008F586958695869590917A06890F840179
:104B3000E3E08E9F000D111D112460918106062E69
:104B4000000C770B80917F0690918006C796E091CC
:104B50001009F09111092EE131E543E08E0F9F1FFE
:104B60000E94560CA090C905B090CA05A114B104CA
:104B700089F18091C8056401F3E08F9FC00CD11CBE
:104B8000112408E3E02E0DE6F02E02E028E04DE0CF
:104B900066E370E081E090E00E94410CC090C705A0
:104BA000D12C28E0C20ED11CC601880F991FC80E57
:104BB000D91EC80CD91C28E04DE066E370E082E7FE
:104BC00090E00E94410C81E0A81AB108B092CA0599
:104BD000A092C9056091020167FD11C0653209F01C
:104BE000F8C0640104E1E02E06EAF02E02E020E2C3
:104BF00044E363E170E086E290E00E94410C609142
:104C0000010167FD11C0653209F07CC164010AE849
:104C1000E02E00EAF02E02E020E24BE363E170E0D8
:104C200083E290E00E94410C37FC40CAB32DE8E1DA
:104C3000BE02B0011124072E000C880B6C59724380
:104C40008C4F0E94900568E170E0CE0101960E94B1
:104C500065050E944E05898113E06401819FC00CA7
:104C6000D11C11246B81062E000C770B8A8102EA7D
:104C7000E02E0AE8F02E02E020E140E190E00E9400
:104C8000410C8C816401819FC00CD11C11246E8168
:104C9000062E000C770B8D8120E140E190E00E9410
:104CA000410C8F816401819FC00CD11C1124698546
:104CB000062E000C770B888520E140E190E00E94F1
:104CC000410C8A856401819FC00CD11C11246C8524
:104CD000062E000C770B8B8520E140E190E00E94CE
:104CE000410C8D856401819FC00CD11C11246F85FE
:104CF000062E000C770B8E8520E140E190E00E94AB
:104D0000410C88896401819FC00CD11C11246A89DF
:104D1000062E000C770B898920E140E190E00E948B
:104D2000410C8B896401819FC00CD11C11246D89B9
:104D3000062E000C770B8C8920E140E190E00E9468
:104D4000410C8E896401819FC00CD11C1124688D97
:104D5000062E000C770B8F8920E140E190E00E9445
:104D6000410CA4C9640124E2C20ED11C0AE1E02E68
:104D700002E7F02E02E028E043E261E070E081E02B
:104D800090E075CE80917306640193E0899FC00C1A
:104D9000D11C11246091710670E008EFE02E00EB49
:104DA000F02E02E020E140E186E390E00E94410C19
:104DB00080912409909125096C01CC0CDD1CC80E52
:104DC000D91EC80CD91C04E0E02E00E9F02E00E04A
:104DD000D2CF98E16902B0011124072E000C880B94
:104DE0006C5B79438C4F0E94900568E170E0CE01C6
:104DF00001960E9465050E944E05898113E06401B9
:104E0000819FC00CD11C11246B81062E000C770BE6
:104E10008A8102EAE02E0AE8F02E02E020E140E179
:104E200090E00E94410C8C816401819FC00CD11CD8
:104E300011246E81062E000C770B8D8120E140E15C
:104E400090E00E94410C8F816401819FC00CD11CB5
:104E500011246985062E000C770B888520E140E13E
:104E600090E00E94410C8A856401819FC00CD11C96
:104E700011246C85062E000C770B8B8520E140E118
:104E800090E00E94410C8D856401819FC00CD11C73
:104E900011246F85062E000C770B8E8520E140E1F2
:104EA00090E00E94410C88896401819FC00CD11C54
:104EB00011246A89062E000C770B898920E140E1D4
:104EC00090E00E94410C8B896401819FC00CD11C31
:104ED00011246D89062E000C770B8C8920E140E1AE
:104EE00090E00E94410C8E896401819FC00CD11C0E
:104EF0001124688D062E000C770B8F8920E140E18C
:104F000090E07BCEA8E16A02B0011124072E000CCC
:104F1000880B6C5276438C4F0E94900568E170E0DC
:104F2000CE0101960E9465050E944E05898113E01D
:104F30006401819FC00CD11C11246B81062E000CD2
:104F4000770B8A8102EAE02E0AE8F02E02E020E1E7
:104F500040E190E00E94410C8C816401819FC00C73
:104F6000D11C11246E81062E000C770B8D8120E15F
:104F700040E190E00E94410C8F816401819FC00C50
:104F8000D11C11246985062E000C770B888520E141
:104F900040E190E00E94410C8A856401819FC00C31
:104FA000D11C11246C85062E000C770B8B8520E11B
:104FB00040E190E00E94410C8D856401819FC00C0E
:104FC000D11C11246F85062E000C770B8E8520E1F5
:104FD00040E190E00E94410C88896401819FC00CEF
:104FE000D11C11246A89062E000C770B898920E1D7
:104FF00040E190E00E94410C8B896401819FC00CCC
:10500000D11C11246D89062E000C770B8C8920E1B0
:1050100040E190E00E94410C8E896401819FC00CA8
:10502000D11C1124688D062E000C770B8F8920E18E
:1050300040E190E0F7CD80E1809344061092D305E3
:105040004091240950912509E7E3F9E030E020E0A0
:10505000122F2530310509F0EFC085E08093030160
:105060000E94F5068823A1F00E940007182F809166
:10507000D1059091D20501969093D2058093D105E8
:1050800080914406803109F418C1813109F461C16D
:10509000D12C86010E5E1F4F22E030E340E070E02D
:1050A00060E090E080E00E948C0C76E2472E79E090
:1050B000572E1201E3E1EE2EF12CB12CF3E0AF2ECE
:1050C00090900301F20102819B1409F449C1F4E0BC
:1050D000F91508F445C110E0055E1F4FC801880F9F
:1050E000991F080F191F0C0D1D1D2CE33FE742E00F
:1050F000B70181E590E00E94560CD20112964C91C6
:105100006AE276EC83E00E948805882E8FEF880D96
:105110009B1409F43CC1B4E0B91508F438C1F2019C
:10512000038110E0055E1F4F9801220F331F020F0D
:10513000131F0C0D1D1D90E02CE33FE742E0B7016B
:105140008F5A9F4F0E94560CF20143816AE276EC1F
:1051500083E00E9488058A948A94880D9B1409F440
:1051600030C1F4E0F91508F42CC1D20114960C9169
:1051700010E0055E1F4F9801220F331F020F131F0F
:105180000C0D1D1D90E02CE33FE742E0B7018F5A64
:105190009F4F0E94560CD10151968D919C91809009
:1051A000D805912CBEE18B0E911C64E670E00E9444
:1051B000152A3C018B01000F111F060F171F080D48
:1051C000191D24EE3EE942E0B7018BE690E00E9413
:1051D0008C0CC3016AE070E00E94152A3C018B012F
:1051E000000F111F060F171F080D191D24EE3EE9B1
:1051F00042E0B70181E790E00E948C0C8301000F30
:10520000111F060D171D080D191D24EE3EE942E081
:10521000B70187E790E00E948C0CB394F3E04F0E47
:10522000511C22E0220E311C89E0E80EF11C95E0B1
:10523000B91246CF0C945620C901619171912F5F2C
:105240003F4F4617570708F403CF10930301E6E2D8
:10525000F9E0DF0124E033971297121780F43685C6
:10526000318B3785328B3089338B59966D917C9198
:105270005A975C967C936E935B972150ECCF9C0180
:10528000220F331FD901A80FB91FAA5DB64F12967E
:105290001C9212970196FC01EE0FFF1FE80FF91FF9
:1052A000EA5DF64F108214961C922A5D364FD901A2
:1052B00052965C934E935197D3CE13FF08C08FEF55
:1052C0008093030181E1809344060E94440315FF0B
:1052D00007C08091D305882319F081508093D305AE
:1052E00016FF07C08091D305823018F48F5F80933A
:1052F000D3058091030117FF13C0482F50E0E091C0
:10530000D3059A01220F331F240F351F2A5D364F14
:10531000E20FF32FF11D92819F5F9A31B1F09283DA
:1053200014FFB6CE282F30E0E091D305C901880FD5
:10533000991F820F931F8A5D964FE80FF92FF11D79
:105340008281815020F08283A3CE1282E9CF89E14D
:10535000FACF13FF9DCE809145068093440698CEE8
:105360008091D30581110CC024E0291548F080916B
:10537000D1059091D2058F739927809708F0BDCE03
:10538000C6010A9D800D911D11248C01AECE909115
:10539000D305913069F4F4E0F91550F02091D1056E
:1053A0003091D2052F7333272032310508F0CCCE4F
:1053B000D20113969C9186019A9D000D111D112416
:1053C000BACE9091D305923061F4B4E0B91548F0AB
:1053D0002091D1053091D2052F733327203231052A
:1053E00008F5F201948186019A9D000D111D11248A
:1053F00090E02CE33FE742E0B7018F5A9F4F0E94B5
:10540000560C9B1421F0F4E0F91508F0C4CEF1011C
:10541000818992898090D805912CC7CE8093D6053A
:105420000C946F209B10B7CEF2CFAA1BBB1B51E18F
:1054300007C0AA1FBB1FA617B70710F0A61BB70B04
:10544000881F991F5A95A9F780959095BC01CD01A9
:10545000089597FB072E16F4009407D077FD09D026
:105460000E94152A07FC05D03EF4909581959F4F28
:105470000895709561957F4F0895EE0FFF1F059079
:0A548000F491E02D0994F894FFCF99
:10548A00FFFFFF05FFFFFFFF00E100000000000033
:10549A004126251D160A18251E1927230441421ADA
:1054AA002627182B1729322926251522173F000AE5
:1054BA0014191724261B281C27040323142B171A34
:1054CA00292F262527182C1740262822171A3F414C
:1054DA0026251517262B270A0704411A26221D17E7
:1054EA00332C1B2723043C242E262B27230200C1FE
:1054FA008081000000000000000304D40524041980
:08550A00046A042804460400B1
:00000001FF
