:100000000C949C000C94C4000C94C4000C94C40088
:100010000C94C4000C94C4000C94C4000C94C40050
:100020000C94C4000C94C4000C94B6170C942518BE
:100030000C94C4000C94C4000C94C4000C94C40030
:100040000C94C4000C94B11B0C94C4000C94C40018
:100050000C94C4000C94C4000C94C4000C94571A63
:100060000C94C4000C94C4000C94C4000C94C40000
:100070000C94C4000C94C4000C94C4000C94C400F0
:100080000C94A11A0C94C4000C94C4000C94C400E9
:100090000C94C4000C94C4000C94C4000C94C400D0
:1000A0000C94C4000C94C4000C94C400D5F08D14BE
:1000B000A1C881CFD9F1AF2000C0A0D92181FFA86C
:1000C00000A800A83F080B0002020200000904007B
:1000D00000010202000005240010010524010101B5
:1000E00004240206052406000107058103100040D0
:1000F00009040100020A0000000705020240000096
:10010000070583024000000403090412010002EF06
:100110000201404123368000010102030141726463
:1001200075696E6F204C4C430055534220494F2057
:10013000426F61726400C81B11241FBECFEFDAE06A
:10014000DEBFCDBF11E0A0E0B1E0EAE1FEE402C015
:1001500005900D92A838B107D9F729E0A8E8B1E0D9
:1001600001C01D92AB30B207E1F710E0CCE9D0E05E
:1001700004C02197FE010E940527CB39D107C9F79A
:100180000E941B1C0C940B270C94000080916806A5
:10019000823020F08250809368060895109268069D
:1001A0000895482F50E0440F551FFA01E552F74FCC
:1001B00020813181260F311D67FD3A95843098F4F6
:1001C000213C8FEF38072CF420543F4F318320839C
:1001D00008952038310524F44552574FFA01F6CFDF
:1001E000205C3109F3CF263D8FEF38071CF42555ED
:1001F0003F4FECCF203831057CF32B5A3109E6CF45
:100200000F93382FCB014E3109F455C04E3209F40B
:100210003DC04E3009F045C00451003308F0C0C065
:10022000E02FF0E0EA5EFE4F0C940527A301590190
:10023000D001590190015901590159015901590140
:100240005901D001D001C1015901D0015901590111
:100250005901D00159015901590159015901590157
:10026000590159015901590159015901D001D001D0
:10027000D001D001D001D001D001D001A30159019A
:10028000D001D0014D01D00159015901033358F477
:100290000D3218F40B50023040F481E0313009F097
:1002A0005EC080E05CC00F3F11F02F3F11F4323090
:1002B000C1F781E054C00432F8F40B31D0F70B30B1
:1002C00098F40530B0F7013009F44BC0E0F1033089
:1002D00029F12D3008F079C02B3018F7233009F4BC
:1002E0004DC0243031F7DDCF0A31D8F6083108F798
:1002F0000451033070F7DDCF0D3250F40A32C8F6E6
:100300000532B9F270F2063249F0083211F7D1CF56
:100310000434A8F40C3328F60333D9F6313009F24B
:1003200060E170E00E94F1269C0197FF03C03195C7
:100330002195310981E02830310589F4B2CF0E3F93
:1003400008F0ABCFC6CF60E170E00E94F1269C01BF
:10035000255F3F4F81E02731310508F0A2CF0F9193
:100360000895313009F4A5CF2D3078F52B3008F001
:1003700098CF2350223008F09CCF93CF313081F2B8
:1003800090CF313009F095CF60E170E00E94F12606
:100390009C01285F3F4F81E02131310500F381CF7F
:1003A000233209F47ECF38F4243108F47ACF28318F
:1003B00009F07FCF76CF2F3308F47BCF223408F4B7
:1003C00070CF2E3F08F475CF6CCF203538F42C3326
:1003D00008F067CF273109F464CF6BCF2F3F09F4C2
:1003E00060CF67CF982F6E3019F16E31C1F423338F
:1003F00039F040F4233021F0263211F0211108C0E9
:1004000081E015C02C3320F02434D0F32E3FC0F708
:100410004532B1F330F4433039F04A3089F380E0AB
:1004200008954E3FE0F3ECCF81E09130C1F708959D
:10043000283131F34A3021F318F4413081F7E0CF0D
:100440004132F1F2433259F7DBCF0F93382FCB0112
:100450004E3161F14E32C1F04E3009F5273208F0CD
:1004600076C0243288F5263109F44DC008F064C006
:100470002431A8F0253141F1043208F091C0023254
:1004800070F4043108F50BC0233358F42D3218F4FE
:100490002B50223040F481E0313009F045C080E03B
:1004A00043C02F3FC1F30F3FD1F30EC02432D0F42D
:1004B0002B3150F42B3050F4253030F4223019F128
:1004C000243069F3213031F481E02EC0273139F333
:1004D0002A3129F30D3050F50B3008F70350023064
:1004E00098F7DDCF2D3240F42A3270F72432B9F27A
:1004F0002752223078F7E8CF2C3360F3243478F297
:100500002E3F68F6E7CF3130F9F260E170E00E94EB
:10051000F1269C0197FF03C031952195310981E0B7
:100520002830310509F4BBCF0F9108950C3360F2E8
:10053000003508F0B8CFB3CF2A3131F218F42731A3
:1005400019F29ACF2052233008F096CFBDCF2F3327
:1005500009F4A5CFC0F4243390F4283208F0B4CFC6
:10056000313009F09CCF60E170E00E94F1269C01DF
:10057000285F3F4F81E021313105B0F290CF2D331C
:1005800009F4A2CF79CF243438F4223408F09CCF78
:10059000203409F480CF70CF2E3F08F080CF6CCF8D
:1005A0000F53033008F090CF7ACF982F6E30E9F0D8
:1005B0006E31B1F4473131F038F4423099F050F0F7
:1005C000453040F481E01FC04C3320F04434D0F378
:1005D0004E3FC0F72731B1F32532A1F32A3091F312
:1005E00080E008958230B1F7EDCF463149F028F42C
:1005F000443140F32132A1F7E5CF473219F3FACF66
:1006000081E0913069F30895909167069E3131F051
:100610009E3211F09E3031F481E008958A3111F05C
:100620008432D1F780E008959C0190916406943162
:1006300069F0E92FF0E0EE0FFF1FE65CF94F33831E
:1006400022839F5F9093640681E0089580E008957F
:10065000482F2091E8053091E90586B52827C90182
:100660009695879520FF02C024EB92279093E90589
:100670008093E805641B770B0E94DD26840F0895A4
:100680002BE130E0E0EFF8E0A0E0B0E0BD0180E079
:100690000E949D030E948C03BD011296A20FB31FFE
:1006A0008217930799F38F5F9F4F21F4AF5FBF408D
:1006B000DB0178F00E94B50540E05091E6056091BD
:1006C000E70580E20E949103599A0E945005A0E03C
:1006D000B0E07CEF0E94B5054A2F5091E6055B0F14
:1006E0006091E705611D82E00E949103832F71FDF7
:1006F000822F70FD81910E94A903759518F42150F5
:10070000304019F01196AA2389F7599A0E94500592
:1007100021153105F9F608950E945B05982F0C9478
:100720004A0559980E94A903862F0E94A903852F84
:100730000E94A903842F0C94A903462F5091E6052B
:10074000570F6091E705681F83E00E9491031EBC6C
:1007500008958EBD00008EB50DB407FEFCCF089540
:10076000FC018091E505882311F13FB7F89482E000
:100770008093E9002091F200822F90E0181619066C
:1007800014F481E090E0882339F0289844E64093FF
:10079000E4054091F1004083222339F02091F200DA
:1007A000211103C02BE62093E8003FBF08958FEF8F
:1007B0009FEF08952FB7F89483E08093E90090911C
:1007C000E800892F807295FF04C09091F20080E4C8
:1007D000891B2FBF08958091DC0581110DC082E037
:1007E0008093D80584E08093D9051092DB051092A0
:1007F000DA0581E08093DC0588ED95E00895CF93DC
:10080000DF931F92CDB7DEB76983DC01ED91FC91D8
:100810000280F381E02D41E050E0BE016F5F7F4F29
:1008200009950F90DF91CF91089583E08093E900BF
:100830008091F200882319F08AE38093E8000895FC
:100840000E94DA0390E00895CF93DF931F92CDB713
:10085000DEB7FC018485958597FD08C02FEF3FEF3B
:10086000358724870F90DF91CF910895CE010196AF
:100870000E94B003019719F4898190E0F3CF8FEFC4
:100880009FEFF0CF0F931F93CF93DF931F92CDB7BE
:10089000DEB78C01FC018485958597FF0BC0CE01E6
:1008A00001960E94B003019771F4898190E0F801EC
:1008B00095878487F801848595850F90DF91CF9186
:1008C0001F910F9108958FEF9FEFF1CFFC01848569
:1008D000958597FD0BC09FB7F89482E08093E9005F
:1008E0008091F2009FBF90E0019608959FB7F89421
:1008F00082E08093E9008091F2009FBF90E008952C
:100900004091D2055091D3052091D0053091D10569
:1009100042175307B4F49091E8009570E1F3909179
:10092000E80092FD19C08093F1008091D20590916A
:10093000D30501968F739927892B19F48EEF809335
:10094000E8008091D2059091D30501969093D3054C
:100950008093D20581E0089580E00895EF92FF92A0
:100960000F931F93CF93DF93F82E192FE62E042FAA
:1009700081E0860F880F0E94800483E00E9480043B
:10098000CF2DD12FEC0EFD2EF11CCE15DF05B9F0C9
:1009900007FF13C0FE0184910E948004182F80E09D
:1009A0000E948004812321968111EFCFDF91CF91A6
:1009B0001F910F91FF90EF9008958881EDCF81E016
:1009C000F5CFDF92EF92FF920F931F93CF93DF93B8
:1009D000D82E8A01EB017B01E40EF51ECE15DF0552
:1009E00059F0D7FE12C0FE0184910E948004219626
:1009F0008111F4CF0FEF1FEFC801DF91CF911F914D
:100A00000F91FF90EF90DF9008958881EECF0F93C4
:100A10001F93CF93DF931F92CDB7DEB782E0898318
:100A200042E450E065EC70E080E80E94E1040E943E
:100A3000EB03DC0112960D911C910115110589F053
:100A4000D801ED91FC910280F381E02DBE016F5F32
:100A50007F4FC801099597FD04C0F80100851185F5
:100A6000ECCF89810F90DF91CF911F910F91089565
:100A7000615030F02091F100FC0120830196F8CF05
:100A8000289884E68093E40508950E945B05982FDA
:100A90000C945B050DB407FEFDCF8EB5599A0895F1
:100AA000599885E00E94A90380E00E94A90380FD77
:100AB000FBCF599A08950DB407FEFDCF8EB51EBC2D
:100AC0000895FC010E945B05819361507040D1F74D
:100AD000089590E0409F09F4142E5527090E151E25
:100AE000600D711D851F11240C948C050F9303E07C
:100AF00020E00E9469050E944505782F0E944A0562
:100B0000682F892F0F9108950F9301E020E00E9434
:100B100069050F910C944A05462F5091B701570F64
:100B20006091B801681F83E00E9491031EBC089584
:100B30000F931F93CF93DF93EA0189010E948C05E5
:100B4000FE010150104021F00E945B058193F9CF16
:100B50000E944A058083DF91CF911F910F910895E4
:100B600059980E94A903599A089586E00C94B005FB
:100B7000FC010E945306319728F068517C4F8F4F3B
:100B80009F4FF9CFAB01FC010E9453066417750714
:100B90008E079F07C8F3089585E090E00C94B80590
:100BA0008F929F92AF92BF92CF92DF92EF92FF927D
:100BB0000F931F93CF93DF936C017B018A01809188
:100BC0000F01882309F45AC08091E505882309F4B0
:100BD00055C08091D70580FF05C08091E0008260FC
:100BE0008093E000E801B12C8AEFA82E93E0892ED3
:100BF0002AE3922E209711F4BB20C9F10E94DA0358
:100C0000811108C0AA94AA20C9F181E090E00E9455
:100C1000B805F0CF8C171D0611F00CF08C2F9FB784
:100C2000F8948092E9002091E80025FD02C09FBF62
:100C3000E1CF282F30E0C21BD30BF701815020F009
:100C400041914093F100FACFE20EF31EBB2021F058
:100C50009092E800B12CEBCF8091E80085FDE7CFC2
:100C60009092E800BB24B394209709F3F3CF5D98EA
:100C700084E68093D605101611063CF081E090E0E2
:100C8000F6019383828310E000E0C801DF91CF91E9
:100C90001F910F91FF90EF90DF90CF90BF90AF909A
:100CA0009F908F900895A3EBB1E02FB7F8947D91BA
:100CB0008D919C9166B52FBFA89B05C06F3F18F41E
:100CC0007F5F8F4F9F4F22E0660F771F881F991F0E
:100CD0002A95D1F70895863240F4833220F48A3081
:100CE00011F08A3131F481E008958832E1F38A32DB
:100CF000D1F380E00895909167069E3159F020F479
:100D0000963141F080E00895963211F09E32D1F78D
:100D10000C946B0689518431A8F7E82FF0E0ED566A
:100D2000F94F0C940527A706A706820682068206BD
:100D30008206820682068206A7068206A706A70604
:100D400082068206820682068206A706A70681E040
:100D5000089590916706963159F020F49E3041F045
:100D600080E008959E3111F09632D1F70C946B0615
:100D700089518431A8F7E82FF0E0EF53F94F0C9434
:100D80000527D506D506B006B006B006B006B006F3
:100D9000B006B006D506B006D506D506B006B00634
:100DA000B006B006B006D506D50681E0089530E756
:100DB0003CBDDC0130E8439FC0011124A80FB91FDE
:100DC0005E91352F6111372F3C93C89500C0522397
:100DD0005EBD0197A9F704D003D030E50DB43CBD4A
:100DE00008958091BA05882329F081508093BA052F
:100DF00081E0089580E008958091AB018093AC017B
:100E00009FB19095907F669B98601C9B9460909397
:100E1000AB0180958923089597FD0F9624E0959561
:100E200087952A95E1F7860F911D67FD9A9597FDA5
:100E300016C08C3B910579F08D3B910571F08C3B90
:100E400091056CF46EE570E00E94F126FC01E05F14
:100E5000FE4F808108958EEF08958BE008958FEF07
:100E6000089520916506309166062655310926358C
:100E7000310578F52CEF022E000C330B4091D90888
:100E80005091DA0848505109241B350B37FF02C036
:100E9000215F3F4F94E0359527959A95E1F7A90199
:100EA000480F511D87FD5A95CA0157FD18C04C3B8C
:100EB000510589F04D3B510581F04C3B51057CF4C7
:100EC0006EE570E00E94F126FC01E05FFE4F80813C
:100ED000089520E0D0CF8EEF08958BE008958FEF36
:100EE0000895EAE3F6E070E043AD54AD25AD32ADD0
:100EF000313049F4022E000C330B2617370719F452
:100F00004817590739F0399626E0E33DF20761F7B3
:100F100080E0089581E00895DF92EF92FF920F93B1
:100F20001F93CF93DF938C018091D9089091DA08B9
:100F300060EE75E01816190614F060E27AEF0E9470
:100F4000F126623009F461E080EE95E0689F70015F
:100F5000699FF00C11246EE580E00E942803C82FE1
:100F600063E080E00E942803D82ED0E0FE01E05F1D
:100F7000FE4F408166E67FE983E00E94840594E0AD
:100F8000CC0FDD1F9A95E1F7CE0DDF1D2091D9081A
:100F90003091DA082C0F3D1F20353105E0F291E049
:100FA000D91659F1D91680F0E2E0DE12D4CF82FFD3
:100FB000D2CF6FE0CE010E9471078111CCCF83E0C8
:100FC000F801808382E10CC080FFC5CF6FE2CE01C3
:100FD0000E9471078111BFCF83E0F801808382E313
:100FE0008383D283C18310861782DF91CF911F91B3
:100FF0000F91FF90EF90DF90089581FFACCF6FE1EC
:10100000CE010E9471078111A6CF83E0F801808391
:1010100082E2E6CFAF92BF92DF92EF92FF920F9300
:101020001F93CF93DF93EC018091D9089091DA0858
:1010300060EE75E01816190614F060E27AEF0E946F
:10104000F126623009F461E080EE95E0689F50017E
:10105000699FB00C11246EE580E00E942803E82E01
:10106000F12C63E080E00E942803D82E870184E001
:10107000000F111F8A95E1F70A0D1B1D8091D908F9
:101080009091DA08800F911F8035910520F3F701C8
:10109000E05FFE4F408166E67FE983E00E948405C1
:1010A00091E0D91649F1D91678F092E0D912D3CF50
:1010B00082FFD1CF6FE0C8010E9471078111CBCFB1
:1010C00081E088838FE00BC080FFC5CF6FE2C8014D
:1010D0000E9471078111BFCF81E088838FE28B83EB
:1010E0001A830983DF91CF911F910F91FF90EF90A9
:1010F000DF90BF90AF90089581FFADCF6FE1C80141
:101100000E9471078111A7CFD8828FE1E8CF84E5D3
:1011100091E09093C0058093BF052091D90830914C
:10112000DA08319521953109EAE3F6E04CED56E015
:1011300080E090E061A9613031F462A973A962177F
:10114000730754F49F5F39964E175F0799F7909392
:10115000BE058093BD0508958F5FF5CFCF93A0E0C6
:10116000BC018A2F685B75478C4F0E948C050E94DA
:101170005B05C82F0E944A058C2FCF9108951092CD
:1011800071001092C10010929D011092CD0508953A
:1011900080919D01882309F42CC08091A4018111C4
:1011A00028C06091A5017091A6018091A70127E058
:1011B00030E04EE951E00E949805EEE9F1E021911E
:1011C00081919191892B11F410929D0190E080E022
:1011D0002695821B9109219141915191452B11F442
:1011E00010929D012695821B910990939C018093FA
:1011F0009B018091CD058823C1F0809196018111DA
:1012000014C06091A8017091A9018091AA0124E005
:1012100030E043E951E00E9498058091940190915B
:101220009501892B11F41092CD0580919D018111BA
:1012300006C08091CD05811102C00C94BF080895AD
:10124000CF939091F008992341F19091B90199239E
:1012500021F1482F60E37AE883E00E9476056093ED
:10126000A8017093A9018093AA01C1E0C093CD05A4
:101270000E94C8088091710081110FC080E094E045
:10128000909399008093980010929500109294008A
:10129000C093C10082E080937100CF910895809146
:1012A0009D01811104C08091CD05882341F080917A
:1012B00090018F5F833020F48093900181E0089546
:1012C000109290010E94C8088091A401882399F08F
:1012D00081508093A40181110EC08091A50190914D
:1012E000A601A091A7010796A11D8093A501909347
:1012F000A601A093A701809196018823F9F281505D
:10130000809396018111DACF8091A8019091A90173
:10131000A091AA010496A11D8093A8019093A90110
:10132000A093AA01CBCFCF92DF92EF92CF9380937D
:10133000CA059091F008992351F19091B901992330
:1013400031F1482F6DE27AE883E00E9476056B0167
:10135000E82E0E94BF08C092A501D092A601E0929B
:10136000A7011092A401C1E0C0939D010E944F0902
:1013700080E094E0909399008093980010929500FB
:1013800010929400C093C10082E080937100CF91CD
:10139000EF90DF90CF9008953F924F925F926F92BF
:1013A0007F928F929F92AF92BF92CF92DF92EF92F5
:1013B000FF920F931F93CF93DF9300D01F92CDB76F
:1013C000DEB73A01862EAAEBB1E0B701E02FDD24AB
:1013D000382E96959695969531E061FD34E060FD46
:1013E000330F62FD32955FEF539F7001E094F094EC
:1013F000759567957595679575956795462F4F3FD8
:101400004CF44095941B20FD440F489F600C711CC8
:101410008D1C4FEF17FF0BC0300E20FF02C0000FD6
:10142000111F601A710A8D0817FD8394EE2750E88A
:1014300045030E0EA00DB11D5E1B351608F0352EAE
:1014400057E0541B591714F4952FD39450E85319AF
:10145000482E552421FD02C04318550820FF02C024
:10146000440C551C11245B824A82932E0090B701D4
:10147000700C0090B801801C19C0599833E03EBD33
:10148000640C751C811CAA24831509F0A3940CD04C
:101490008EBC07D07EBC05D06EBC03D01EBC03D072
:1014A0000895C8950000C895C895089564187508F2
:1014B0008108E3DF41151CF0992371F564C0A05841
:1014C000BF4FC32C20FD0CC06EB51EBC699DBC90E7
:1014D000BF20B128BD92C89500C0CA94A9F711C019
:1014E0006EB51EBC699DB001DEDFEEB41EBCE99C8A
:1014F0007001BC90F094BF20B72ABD92C895CA94E1
:1015000079F71124A319B1099A9509F45CC0AA20AE
:1015100019F00DB4599AB1DFFD01E058FF4FC32C0B
:1015200020FD0EC06EB51EBC699DBC90BE20B028CB
:10153000BD92B080BF20B128B192CA9499F716C06D
:101540006EB51EBC699DB001BC90F080AEDF00C0DE
:10155000EEB41EBCE99C0094B020B62ABD92109453
:10156000F120F72AF1920000CA9451F71124A50F37
:10157000B11D9A9561F6DD2031F1AA2021F00DB45C
:10158000599A7BDFC89520FD0CC06EB51EBC699DC5
:10159000BC90BE20B028BD92C89500C03A94A9F76F
:1015A00012C06EB51EBC699DB0017DDF9EB51EBC2C
:1015B000999D902DBC909095B922B62ABD92C89560
:1015C0003A9479F7C8951124599A0DB40F900F9059
:1015D0000F90DF91CF911F910F91FF90EF90DF90CF
:1015E000CF90BF90AF909F908F907F906F905F90C3
:1015F0004F903F9008956F927F928F92AF92CF92CB
:10160000DF92EF92FF920F931F93803891050CF0B9
:101610003AC0603471050CF036C0A42FB0E0FD0173
:10162000E80FF91F1E161F060CF02DC0E22FF0E088
:101630003F01660E771E161417040CF024C0370104
:10164000802E7B018C019E2F8827842B9B2BC1141D
:10165000D104A1F0269526952695A0FC220F249F63
:10166000F001ED9D700C811CFC9D700C811CFD9D9A
:10167000800CEC9D600C711C1124811C2A2D682D9E
:10168000A3010E94CC091F910F91FF90EF90DF9072
:10169000CF90AF908F907F906F900895AF92CF9240
:1016A000DF92EF92FF920F9332E0E30EF11C011DE7
:1016B00033E0A32E0E94FB0A0F91FF90EF90DF9082
:1016C000CF90AF9008957F928F929F92AF92CF92DA
:1016D000DF92EF92FF920F931F93CF93DF93EC0172
:1016E0004B016901E42E842FB9010E948C050E94F0
:1016F0005B05782E0E944A054E2D96012E5F3F4FC6
:101700004F4F93E0A92E68017901042F282F472D10
:10171000B401CE010E94FB0ADF91CF911F910F917E
:10172000FF90EF90DF90CF90AF909F908F907F9041
:1017300008957F928F929F92AF92CF92DF92EF9215
:10174000FF920F931F93CF93DF93EC014B0169013D
:10175000E42E842FB9010E948C050E945B05782E2F
:101760000E944A054E2D96012E5F3F4F4F4F92E04B
:10177000A92E68017901042F282F472DB401CE012D
:101780000E94FB0ADF91CF911F910F91FF90EF9084
:10179000DF90CF90AF909F908F907F900895DC0165
:1017A000222319F0D8961C92D89746175707A0F015
:1017B000D8969C91D897943161F0E92FF0E0EE0F24
:1017C000FF1FEA0FFB1F518B408B9F5FD8969C93A6
:1017D000D89741505109E9CF0895EF92FF920F93A6
:1017E0001F93CF93DF938C018091D9089091DA08F1
:1017F00060EE75E01816190614F060E27AEF0E94A8
:10180000F126623009F461E080EE95E0689F700196
:10181000699FF00C11246EE580E00E942803C82F18
:10182000D0E0FE01E05FFE4FE081E451E63198F741
:10183000F0E0E35EF34F0C940527330C330C330CCC
:10184000330C0B0C330C330C330C330C330C330CC8
:10185000330C330C330C330C0B0C330C330C330CB8
:101860000B0C330C330C84E0CC0FDD1F8A95E1F7B1
:10187000CE0DDF1D6FE0CE010E9471078111CBCF2D
:1018800082E0F80180838AEF8383D283C18380E37F
:10189000848386E091E09683858321E04CE051E0EB
:1018A00066E071E0C801DF91CF911F910F91FF9029
:1018B000EF900C94CF0BCF93DF9300D000D000D0EB
:1018C000CDB7DEB7DC018C91833049F1843009F467
:1018D00043C0823089F411962D913C911297295C76
:1018E0003F4F260F371F13964C91042E000C550BBB
:1018F0004C5F5F4FE8E0F8E03A8329835C834B83D9
:101900003A815C816F2F7E2F80E090E026960FB6A3
:10191000F894DEBF0FBECDBFDF91CF910895119631
:101920002D913C91129713964C911397042E000C15
:10193000550B4A5F5F4F15968D919C91855C91097F
:10194000449738F4235C3F4F260F371FE4E0F5E05F
:10195000D3CF275C3F4FF8CF11962D913C91129732
:10196000235C3F4F260F371F13964C91042E000C1B
:10197000550B495F5F4FE4E0F4E0BECFCF93DF93B8
:1019800000D000D000D0CDB7DEB7FC01808183301D
:1019900011F1853061F1813059F49B01275C3F4F93
:1019A0004381042E000C550B4E5F5F4FA6E0B6E05E
:1019B0003A8329835C834B833A815C816B2F7A2F36
:1019C00080E090E026960FB6F894DEBF0FBECDBF44
:1019D000DF91CF9108959B01245C3F4F4381042EFA
:1019E000000C550B4F5F5F4FA5E0B5E0E1CF9B01C9
:1019F000215C3F4F4381042E000C550B455F5F4F28
:101A0000F3CF5C98FC012591CF012EBD00000DB4F1
:101A100007FEFDCF6150B1F75C9A08959C016217F3
:101A2000730790F090916406943159F0E92FF0E03B
:101A3000EE0FFF1FE65CF94F738362839F5F909305
:101A4000640661507109EBCF0895DC014617570712
:101A5000A0F0D8969C91D897943161F0E92FF0E0EE
:101A6000EE0FFF1FEA0FFB1F518B408B9F5FD89635
:101A70009C93D89741505109E9CF08952F923F92F6
:101A80004F925F926F927F928F929F92AF92BF928E
:101A9000CF92DF92EF92FF920F931F93CF93DF933A
:101AA000CDB7DEB768970FB6F894DEBF0FBECDBFD7
:101AB0000E94FC06A090AB018091C7059091C805DB
:101AC0009C012F5F3F4F3D8B2C8B3093C80520939B
:101AD000C7058EEF0E943107D82E8FEF0E94310785
:101AE000B82E80E00E943107182F81E00E94310754
:101AF000C82E82E00E943107082F8C899D8963E0FF
:101B000070E00E94DD26988F8F8B309100013E8B14
:101B1000409101014B8B80910201898BAF89B88D77
:101B2000AB2B11F00C9418173F3F11F00C94A31736
:101B3000E0916406E11171C280913A068B3009F49C
:101B4000ADC068F08E3058F4A3FE91C34F3124F439
:101B5000B989BF310CF48BC38FE080933A06E091D2
:101B60006406EE2309F483C3E150E0936406F0E0D9
:101B7000EE0FFF1FE65CF94F62817381709366067A
:101B800060936506660F771F660F771F80E06457C6
:101B900074478C4F0E948C0564E070E0CE01019682
:101BA0000E9461050E944A05809167069981890F0C
:101BB000809367060B81F12C602F8F2D0E94D1003E
:101BC000F39424E0F212F8CF8091D7089091D808CE
:101BD000800F911D07FD9A959093D8088093D708A0
:101BE0002A818091D9089091DA08820F911D27FDF2
:101BF0009A959093DA088093D90820936A060C810D
:101C0000602F8F2D0E94D100F39438E0F312F8CFAB
:101C10008091D5089091D608800F911D07FD9A9567
:101C20009C0121503F4F2F3F314008F038C2909324
:101C3000D6088093D5088091640681110EC020914A
:101C4000670680916506909166068D31910509F4CD
:101C50002BC28337910509F48FC240906706512C3F
:101C600080916506909166068633910508F09BC3C6
:101C70008632910508F0B4C38E31910508F073C324
:101C80008230910508F0ACC3009709F4B4C3019702
:101C900009F497C33FEF431A530AA5C3A2FE0CC031
:101CA0000E94870880E491E09093C6058093C50563
:101CB0001092C4051092C305E0906506F090660688
:101CC000A3FE9AC0E5E0EE16F10449F0E8F4E11451
:101CD000F10461F123E0E216F10409F040CF8091B4
:101CE00067068E3109F448C08E3239F18E3009F022
:101CF00036CF103409F433CFB0E4CB1609F42FCF2C
:101D0000003409F42CCF38C039E5E316F104C9F1E9
:101D10004BE5E416F104A9F186E5E816F10409F0B3
:101D20001ECF67E670E08CE590E004C061E170E0F2
:101D300086E090E00E940E0D12CF1A3040F01D3068
:101D400008F40DCF83ED810F863008F408CF9BE0B7
:101D5000C91648F0ACE0AC1508F001CF83ED8C0D4E
:101D6000863008F4FCCE0A3038F00D3008F4F7CE97
:101D70000D52063008F4F3CE6DE170E082E190E0A0
:101D8000D9CF809167068E3191F18E3271F08E300D
:101D900009F0E5CE103409F4E2CE40E4B41609F4BB
:101DA000DECED41609F4DBCE22C01A3040F01D304E
:101DB00008F4D5CE83ED810F863008F4D0CEEBE069
:101DC000BE1648F0FCE0FB1508F0C9CE83ED8B0D84
:101DD000863008F4C4CE2AE0D21648F03CE03D1527
:101DE00008F0BDCE83ED8D0D863008F4B8CE63E7E4
:101DF00070E088E690E09ECFA7FE1AC08091D908D7
:101E00009091DA088F709927892B91F4812F0E9485
:101E10007B06882309F4A3CE86E5E81AF10896E547
:101E2000E916F104D8F467E770E084E790E082CF28
:101E3000A4FC19C0A6FE94C0C70186559109863539
:101E4000910508F047C0812F0E940403882309F4FC
:101E500086CE109266061092650681CE61E270E031
:101E60008EE190E067CF8091D9089091DA088F7069
:101E70009927D701A655B1094D01892B29F4812F46
:101E80000E94A906811118C0B6E58B16910448F48A
:101E900086E590E0E2E08E16910458F487E590E044
:101EA00008C090E080E0F2E0EF16F10410F481E069
:101EB00090E00E94140353CE6BE770E088E790E057
:101EC00026E58216910408F435CF65E270E082E2DF
:101ED00090E030CFD09067066091D9087091DA0811
:101EE0000C2D212F4D2D81E00E942502882371F0B9
:101EF00065E070E084E090E033E0E316F10409F47B
:101F000019CF63E070E082E090E014CF4EE0D4128D
:101F100010C01F3371F483E0E816F10429F461E482
:101F200070E086E390E006CF6DE470E082E490E03C
:101F300001CF2C2D412F6D2D81E00E94D5028823E9
:101F400009F40DCE93E0E916F10429F46DE270E096
:101F500086E290E0EFCE65E370E08EE290E0EACEBC
:101F6000A5FEFDCDC701865591098635910518F569
:101F7000D09067066091D9087091DA08012F2B2D57
:101F80004D2D81E00E940001811122C0BEE0DB12D4
:101F90002DC01C3311F0113449F567E970E08CE86D
:101FA00090E0E9E5EE16F10409F4C4CE63EA70E0CE
:101FB00088E990E0BFCE812F0E940403882309F4B2
:101FC000CECD86E590E09093660680936506C7CDFA
:101FD0006BE570E08AE590E0A9E5EA16F10409F402
:101FE000A9CE69E570E088E590E0A4CE212F4B2DC5
:101FF0006D2D81E00E94F201882309F4B0CD63E8E1
:1020000070E08CE790E0F9E5EF16F10409F492CE68
:102010006BE870E084E890E08DCEA3FEA5CD8091C2
:102020006506909166068330910519F0853091051B
:10203000C1F4109264064DE150E020916406243111
:1020400059F0E22FF0E0EE0FFF1FE65CF94F5383EB
:1020500042832F5F2093640641505109413151055D
:1020600061F78D7F8935910509F079CD109264066D
:1020700023E730E080916406843159F0E82FF0E0E6
:10208000EE0FFF1FE65CF94F338322838F5F80934F
:102090006406215031092736310561F760CD109271
:1020A000D6081092D508C7CD2E3091F51F3329F0F0
:1020B00058F48DEF810F823060F465E570E08EE4B6
:1020C00090E00E940E0DC9CD1134B9F310F01E3FFF
:1020D000A0F781E4C81689F38C15B0F093E0C91617
:1020E00061F3173209F1F0F51530C8F51330E0F45B
:1020F0001123D1F0F1E4CF16B9F0FC1528F52EEF3D
:10210000C21608F4AACD10C0AEEFCA1650F3D5CF50
:102110002E3109F0A2CD193239F058F4133078F08D
:10212000153010F0173159F465E570E082E590E064
:10213000C8CF1C3320F01434B8F31E3FA8F7B7E122
:10214000CB1691F3BC1530F08DEF8C0D823008F07A
:1021500084CDEACFEEEFCE1608F47FCDE5CF18316F
:1021600049F6E2CF113401F318F41F3319F6DCCF2E
:102170001E3F08F4BFCFD8CF2E3089F41F3329F08B
:1021800048F48DEF810F823050F46BEA70E084EAFE
:1021900090E097CF1134C9F310F01E3FB0F7809153
:1021A000D9089091DA082E3009F443C02E3109F095
:1021B00054CD193241F0E0F4173129F048F41330CE
:1021C000E9F0143049F46BEA70E088EA90E079CFE6
:1021D0001A31C9F3163291F03AE1B316A1F33B1567
:1021E00018F144E0B41679F387E1B81236CDEBCF9D
:1021F0001434B8F41C3338F7133371F7AC014F7053
:102200005527452B01F360E170E00E94F12697FF0E
:1022100003C09195819591090C97A9F2422E512CFA
:10222000DFC01E3FC8F2CFCF9EEFB91608F415CD20
:10223000CACF133241F250F41A3089F0183109F044
:102240000CCD8F709927892B49F7BDCF173209F430
:10225000BACF08F402CD1E3F08F0B5CFFECC60E146
:1022600070E00E94F1260C970CF4ADCFD7CF80918F
:1022700065069091660685359105A9F04090670640
:102280008635910590F58132910509F465C0C8F451
:102290008530910541F070F48130910509F472C0E8
:1022A000039709F0DACC1092660610926506109238
:1022B0006A06D3CC81319105B1F34D9709F0CDCCAD
:1022C000F2CF8533910579F340F48532910509F415
:1022D00055C08D9709F0C1CCE6CF8134910519F333
:1022E0008D34910509F0B9CCDECF8737910509F41B
:1022F0004DC0D8F48B35910549F078F487359105B8
:1023000009F44EC08935910509F0A7CC86E590E027
:102310009093660680936506CACF87369105B1F320
:102320008337910509F099CCF1CF8B38910571F382
:1023300040F48B37910581F18338910509F08DCCFC
:10234000E5CF833A910511F38B3A9105F9F287397C
:10235000910509F082CCDACF812F0E947B06882379
:1023600009F4A1CF512C22E0420E511C4AE0E42E88
:102370005CE0F52E68E3262E312C47C0812F0E94A9
:10238000A906EDCFA4FE8FCF512C1BC0812F0E9438
:102390007B068111E7CFBACF812F0E94A906F9CF22
:1023A000A4FEB4CFF1CF8437910598F48835910518
:1023B000B8F48635910509F406C18735910509F011
:1023C00069CCE7E04E0E511CE4E0EE2EFBE0FF2E60
:1023D00001C18C37910538F28C38910508F05ACC40
:1023E000F2E04F0E511C99E0E92E2EE0F22E37E379
:1023F000232E312C0AC0A2E04A0E511C19E0E12E16
:1024000008E0F02E8AE3282E312C0BE616E051016D
:10241000AF0CB11C6201CE0CD11CB3E08B2E912C01
:1024200080E8682E82E0782ED8018C91833009F400
:10243000DCC0853009F435C1813009F05FC01196E8
:102440006D917C918091D9089091DA08680F791F7D
:10245000C8010E94BE0C29833A834B835C836D8341
:102460007E83F80187819085892B09F047C0898197
:102470009A818A159B050CF041C0860F911D281684
:102480003906E4F58B819C818C159D05BCF5870F81
:10249000911D4816590694F58181928190936D069D
:1024A00080936C06838180936E0610926F06109263
:1024B000710610927006908687828091EC08909148
:1024C000ED08805B9F4F8133F6E09F0708F086C0E0
:1024D0009093ED088093EC088091EE089091EF08BE
:1024E00001969093EF088093EE0880E491E090933A
:1024F000C2058093C10585E00E942009075F1F4F38
:1025000097E00D30190709F08FCF80913A068B3094
:1025100009F056C17DE0C72E77E0D72EE5ED6E2E8F
:10252000E8E07E2E81010F0D111DE40CF52CF11C4D
:10253000F0E8AF2EF2E0BF2E88248394912CD601D0
:102540008C91833031F0843009F4EFC0823009F08F
:1025500030C18091C5059091C605892B09F029C12C
:102560006091D9087091DA08C6010E945B0C29833A
:102570003A834B835C836D837E8389819A81801744
:1025800091070CF016C1860F911D281639060CF024
:1025900010C18B819C818E159F050CF00AC1870F9D
:1025A000911D481659060CF004C10E94C600B09255
:1025B000C605A092C5059092C4058092C30583E02C
:1025C0000E942009F6C0B2E04B0E511CA9E0EA2E91
:1025D000B8E0FB2E79E3272E312C17CF20E336E02D
:1025E0003093ED082093EC0877CF11966D917C9194
:1025F0008091D9089091DA08680F791FC8010E946C
:10260000BE0C29833A834B835C836D837E83F80100
:1026100087819085892B09F071CF89819A818A15EC
:102620009B050CF06BCF860F911D281639060CF018
:1026300065CF8B819C818C159D050CF05FCF870F3A
:10264000911D481659060CF059CF818192819093C3
:102650006D0680936C068381835080936E06109282
:102660006F0627E030E03093710620937006908665
:10267000878280916806893080F48E5F8093680637
:102680007092C6056092C5051092C4051092C305EC
:10269000C8010E948C0786E02FCF3BE0309368068C
:1026A000EFCF8091C5059091C605892B09F026CF03
:1026B00011966D917C918091D9089091DA08680FFC
:1026C000791FC8010E94BE0C29833A834B835C8327
:1026D0006D837E8389819A818A159B050CF00ECFCC
:1026E000860F911D281639060CF008CF8B819C812E
:1026F0008C159D050CF002CF870F911D48165906C9
:102700000CF0FCCE25E030E0F801308727830E94F2
:10271000C6007092C6056092C50581E090E0909376
:10272000C4058093C30583E0E7CE8091C5059091F1
:10273000C605892BF1F56091D9087091DA08C601B8
:102740000E945B0C29833A834B835C836D837E8379
:10275000F601858196818D33914058F589819A8162
:102760008017910734F5860F911D281639060CF550
:102770008B819C818E159F05E4F4870F911D48166F
:102780005906BCF4809165069091660686339105E2
:1027900008F0A2C08632910520F40697489708F009
:1027A00004CF21E042E451E06DE371E0C6010E94F4
:1027B000CF0B29E3C20ED11C6C147D0409F0BFCEEF
:1027C00080903A0635ED432E38E0532E4DE0E42E4E
:1027D00047E0F42E5EE2752E60EA262E312CD701FA
:1027E000D896EC91D897BC91BA8BEE2309F42CC201
:1027F000B33009F41CC1B43009F4A5C1B23081F47E
:10280000D70113968C9113978A3F09F073C01496E1
:102810008C911497882309F46DC0815014968C9381
:10282000B9E3EB0EF11CE5EDEE16E8E0FE06B9F6B5
:10283000F989F7FF8BC38091EC089091ED08009720
:1028400029F001979093ED088093EC083B8937FFBE
:102850003DC00BE616E03DE0E32E37E0F32E42E00C
:10286000D42ED8018C91882301F1853009F433C32B
:10287000863009F428C3813099F417968D919C9184
:102880001897009769F0019718969C938E93179765
:10289000892B31F4DC92C8010E940A080E94870843
:1028A000075F1F4FE016F106E1F68091EB0890916B
:1028B0006A06992309F42CC397FF37C3813E34F08D
:1028C00018160CF03AC380320CF439C3EF89F88D36
:1028D000EF2B09F442C3AFC28C35910508F465CEE5
:1028E0008437910508F45DCF8C579109409708F023
:1028F0005CCE57CFE150D701D896EC93D897F0E053
:10290000EE0FFF1FEE0DFF1D6089718916967C93F7
:102910006E931597660F771F660F771F80E06457D9
:1029200074478C4F0E948C0564E070E0CE010D96D8
:102930000E9461050E944A05F70183819D85890FE8
:1029400083839E8521813281290F311D97FD3A9520
:10295000328321838A3FA1F08091D9089091DA08CF
:10296000919581959109821B930B865A9F4F853BC8
:10297000910530F0FBE08F1257C0C7010E94ED0BAC
:102980006091D9087091DA08C7010E945B0C2F830F
:10299000388749875A876B877C870DE017E0F801F5
:1029A00080818430D1F56091D9087091DA08C8012E
:1029B0000E945B0C29833A834B835C836D837E8307
:1029C000FBE08F122AC029813A814F815885C901C5
:1029D000860F911D4817590704F58B85840F952F95
:1029E000911D28173907CCF42B813C8149855A85E4
:1029F000C901870F911D481759077CF48C85840FF6
:102A0000952F911D2817390744F421E042E451E045
:102A10006DE371E0C8010E94CF0B075C1F4F4016A9
:102A2000510609F0BCCFFCCED7011C92A9CFE150D2
:102A3000D701D896EC93D897F0E0EE0FFF1FEE0D7C
:102A4000FF1D0089118916961C930E931597B801E6
:102A5000660F771F660F771F80E0645774478C4FAF
:102A60000E948C0564E070E0CE0101960E94610531
:102A70000E944A05F70183819981890F83832A8106
:102A800081819281820F911D27FD9A959283818386
:102A900020AD2111C5CE083D110571F10530114061
:102AA00009F0BECE0091D9081091DA082227332709
:102AB000201B310B281B390B25363105ACF02BE0E0
:102AC000821212C06AE080E00E9428039101201B5C
:102AD000310B40E1849FC0011124280F391FD70119
:102AE00012963C932E93119745E051E062EF70E00F
:102AF000C7010E94250D94CE0091D9081091DA08E3
:102B000022273327201B310B281B390B2C393F4F31
:102B1000ACF4EBE08E1212C06AE080E00E94280361
:102B200020E63FEF201B310BF0E18F9F2019310988
:102B30001124D70112963C932E93119748ED50E043
:102B400065EC70E0D5CFE150D701D896EC93D897DB
:102B5000F0E0EE0FFF1FEE0DFF1D008911891696A4
:102B60001C930E931597B801660F771F660F771F9A
:102B700080E0645774478C4F0E948C0564E070E0DD
:102B8000CE0101960E9461050E944A05F7018381EA
:102B90009981890F83832A8181819281820F911D7E
:102BA00027FD9A959283818380AD811139CE0C32B5
:102BB000F1E01F0741F00C3321E0120721F00C3146
:102BC000114009F02DCE6AE080E00E942803823097
:102BD000B1F198F4882339F14CE251E064E271E0FC
:102BE000813029F160E182E00E942803682F70E0C3
:102BF000635D7E4F4CE351E01AC04CE151E064E16B
:102C000071E08330A1F0863068F78091D908909107
:102C1000DA08919581959109D70111962D913C91F2
:102C20008217930764F44CE251E06DE171E0C70153
:102C30000E94250D4CE151E06DE071E059CF4CE16F
:102C400051E06DE071E0F3CFF701C580D680A1803F
:102C5000B28085010C5F1F4F6FEFC8010E940C0707
:102C6000682E60E0C8010E940C07982E61E0C80140
:102C70000E940C07182FFA89F23069F1F43009F03C
:102C8000CFCD22E4C21621E0D20609F0C9CDD7018A
:102C900013967C9262E080E00E9428032091D9087C
:102CA0003091DA08882309F4B3C084E690E0821BEF
:102CB000930BF701928381832DE131E036832583E5
:102CC0004CE251E06DE171E0C7010E94250DD70192
:102CD00014961C92A5CD2BEDC216D10409F444C064
:102CE000C8F540EBC416D10431F000F59EEAC916D0
:102CF000D10409F095CDD70113966C90012F292DA1
:102D0000462DB50182E00E942502882309F467C0A0
:102D100040EB50E06FEA70E0BEEACB16D10409F454
:102D2000E7CE4EEA50E06DEA70E0E2CEA8EBCA16BC
:102D3000D10429F0B4ECCB16D10409F071CD62E0D6
:102D400080E00E9428038111ECCF4BED50E06AED4A
:102D500070E0CECEE5EECE16D10489F3D0F42DEDA1
:102D6000C216D10409F05CCDD70113961C91092D30
:102D7000262D412FB50182E00E9400018823A1F099
:102D80004DED50E06CED70E0BBEDCB16D104E9F6F3
:102D9000AFCE31EFC316D10491F24CE0C41641E03E
:102DA000D40609F03DCDCBCF1E3059F4ECE39E168E
:102DB00019F0F1E49F1205C041EF50E066EE70E0BB
:102DC00097CE292D462D612F82E00E94F20145EE1B
:102DD00050E06EED70E0882309F422CD89CEEEE05C
:102DE0006E1208C0FFE344EC50E069EB70E09F1600
:102DF00009F47ECE212F492D662D82E00E94D50256
:102E000048EB50E061EB70E0882309F409CD70CE07
:102E10008CE99FEF821B930BF701928381832DE056
:102E200031E0368325834CE151E06DE071E04CCF19
:102E3000298927FD0BCD2E8927FD0AC03C8930FD4D
:102E400007C0822F8F5F803509F47BC0809300011B
:102E5000809102018F3F61F480916806811108C062
:102E6000109202018CE080933A0680E00E942009D3
:102E7000809101018F3F71F48091EC089091ED08F1
:102E8000892B41F4109201018DE080933A0680E095
:102E90000E94200968960FB6F894DEBF0FBECDBF22
:102EA000DF91CF911F910F91FF90EF90DF90CF9026
:102EB000BF90AF909F908F907F906F905F904F905A
:102EC0003F902F900895F8018481883308F0E8CC72
:102ED0008F5F8483E5CC17968D919C91189701960E
:102EE0008033910589F018969C938E931797D8019B
:102EF00017968D919C91189723E0969587952A9522
:102F0000E1F714968C93CCCCF80110861782EFCFA2
:102F1000803E0CF4DBCC8F3F91F08CF081508032FE
:102F200008F0D4CC8093EB08D1CC803E0CF4CECC0E
:102F300018162CF481320CF0C9CC8150F3CF8F5F7E
:102F4000F1CF8FEF83CF498947FD80CCB989B53266
:102F500024F48B2F8F5F80930201FB89F53208F0F8
:102F60006ACF8F2F8F5F8093010165CF1F920F92E1
:102F70000FB60F9211248F939F938091E10090914F
:102F8000E100937F9093E10083FF0FC01092E9006E
:102F900091E09093EB001092EC0092E39093ED009F
:102FA0001092E50598E09093F00082FF22C093E034
:102FB0009093E9009091F200992319F09AE390938D
:102FC000E8009091D605992341F09091D605915053
:102FD0009093D605911101C05D9A9091E4059923D3
:102FE00041F09091E40591509093E405911101C056
:102FF000289A84FF18C08091E2008E7E81608093C1
:10300000E2008091E1008F7E8093E1008091D705FE
:103010008E7E80618093D7059F918F910F900FBE18
:103020000F901F90189580FFF7CF8091E2008E7E61
:1030300080618093E2008091E1008E7E8093E100C8
:103040008091D7058E7E8160E5CF1F920F920FB6DB
:103050000F921124CF92DF92EF92FF920F931F9362
:103060002F933F934F935F936F937F938F939F9390
:10307000AF93BF93EF93FF93CF93DF93CDB7DEB7BB
:103080006C97DEBFCDBF1092E9008091E80083FF0E
:1030900025C068E0CE0145960E94380582EF8093F6
:1030A000E8008D8987FF39C09091E80090FFFCCF40
:1030B000982F907609F034C19E894F89588D2F89B9
:1030C000F88C911131C0803861F58091D5058093DD
:1030D000F1001092F1008EEF8093E8006C960FB62D
:1030E000F894DEBF0FBECDBFDF91CF91FF91EF917E
:1030F000BF91AF919F918F917F916F915F914F9110
:103100003F912F911F910F91FF90EF90DF90CF9003
:103110000F900FBE0F901F9018959EEF9093E800B0
:10312000C7CF1092F100D5CF913059F48111D3CF90
:103130004130510581F68091D5058D7F8093D5056D
:10314000CACF933049F48111C6CF4130510519F6E9
:103150008091D5058260F2CF953041F48091E800EE
:1031600080FFFCCF20682093E300B5CF963009F0B4
:10317000A9C00B8D1C8D22E01092E9001092D3059E
:103180001092D205F2122EC01092D1051092D005E5
:103190000E9407051F8299E09983FA8291E09E833D
:1031A00090EA98879AEF99872091D2053091D305BC
:1031B000275F3F4F3C832B838D831092E900109251
:1031C000D3051092D2051093D1050093D00549E0A4
:1031D00050E0BE016F5F7F4F80E00E94E1040E94DB
:1031E000070579CF1093D1050093D0050E94EB031A
:1031F000DC0112960D911C910115110509F451C1C4
:10320000D801ED91FC910480F581E02DBE016B5E4B
:103210007F4FC8010995009709F03EC1F80100856C
:103220001185EACFF3E0FF120EC08F89882309F4DD
:1032300040C0823061F440E86CE089E291E00E9495
:10324000AE04811148CF81E28093EB0047CF8130FB
:1032500029F440E86BE08DE191E0F1CF833099F7FC
:103260000E94EB03DC011296ED90FC908E010F5F43
:103270001F4F6801E114F10479F0D701ED91FC9141
:103280000680F781E02DB801C7010995080F111DCF
:10329000F701E084F184EECFD8011C92F601019091
:1032A0000020E9F73197BF016C197D0940E0C601A4
:1032B000C6CF67E071E0FB01449150E080E80E94D6
:1032C000E10409CF973009F4BECF983021F481E0B2
:1032D0008093F10000CF993009F0FDCE837009F0A2
:1032E000B2CFEFE6F1E081E031E096E321912223D5
:1032F00071F08093E9003093EB00DF0111972C917E
:103300002093EC009093ED008F5F873079F78EE784
:103310008093EA001092EA008F898093E505DBCE66
:103320008B8D9C8D1092E9001092D3051092D205DE
:103330009093D1058093D005898D811192C08E899B
:103340009D89913A49F4813209F07DCF47E050E000
:1033500068E071E080E0B3CF913209F074CF83323E
:1033600069F48F89988DB0E0A0E080930401909378
:103370000501A0930601B0930701ADCE803269F438
:103380008091E80082FFFCCF67E088E091E00E9436
:1033900038058BEF8093E8009ECE823209F09BCEF9
:1033A0008F8980930F01EEEFFFE7859194918B3F1A
:1033B0009C4D51F1E0E0F8E0809108019091090105
:1033C000A0910A01B0910B01803B9440A105B10589
:1033D000F1F480910F0180FD1AC0EE3F8AE0F807FA
:1033E00089F587E797E791838083809160008093D8
:1033F000D40588E19BE00FB6F894A895809360000F
:103400000FBE9093600067CEEEEFFAE0D5CF8081DB
:1034100091818737974709F05ECEA895809160002B
:103420008861809360008091D40580936000EE3FB6
:103430002AE0F20789F08091FE0A9091FF0A9183B9
:10344000808349CE808191818737980751F290938C
:10345000FF0A8093FE0AC5CF1092FF0A1092FE0A5F
:103460003ACE0E94EB03DC0112960D911C910115DE
:10347000110509F4E8CED801ED91FC910190F0819D
:10348000E02DBE016B5E7F4FC8010995811123CEEF
:10349000F80100851185EBCF181619060CF41BCE28
:1034A000D2CEF1E0FF12BECE6BE071E004CF0F92FE
:1034B0000FB68F939F93EF93FF938091AE018D5F33
:1034C0008D3708F08D578093AE01EFEAF1E08081EF
:1034D0008E4F808391819F4F918382818F4F828312
:1034E00083818F4F8383E3EBF1E080818F5F808363
:1034F00081818F4F818382818F4F828383818F4F20
:1035000083838FB18F6066991C9B88278F3681F4E7
:103510008091AD01981B963068F0E0E0F8E087E715
:103520008083818388E180936000F0936000FFCF07
:103530009093AD01FF91EF919F918F910FBE0F90EE
:1035400018951F920F920FB60F921124AF92BF924F
:10355000CF92DF92FF920F931F932F933F934F933E
:103560005F936F937F938F939F93AF93BF93EF93EB
:10357000FF93CF93DF9300D01F92CDB7DEB780913A
:10358000B901882391F180919D01811104C080913E
:10359000CD05882351F1409198005091990056959E
:1035A00047955695479580919D01811141C030E026
:1035B00020E08FEF9EE36091CD05662309F4ADC056
:1035C000E3E9F1E06191662309F4A7C0A191B1910B
:1035D000E0919101F09192014E0F5F1F4A175B0736
:1035E00008F475C04A1B5B0BF9CF8FEF9FEF9093E8
:1035F0009900809398000F900F900F90DF91CF91DA
:10360000FF91EF91BF91AF919F918F917F916F91BA
:103610005F914F913F912F911F910F91FF90DF90FC
:10362000CF90BF90AF900F900FBE0F901F90189546
:10363000A0919B01B0919C0122E02983F7E9CF2E54
:10364000F1E0DF2E1EE9A12E11E0B12E8FEF9EE3F7
:10365000F501F190619171918B015F01F11019C039
:10366000E2E0CE0ED11CF981F13081F46091CC05FD
:103670006A9F90016B9F300D1124359527953595E4
:103680002795359527953595279595CF31E0398341
:10369000DFCFF60120813181240F351F2617370730
:1036A00010F0261B370B769567952617370718F409
:1036B000AF0DB11D8B01F601219331936F01021BF8
:1036C000130B0817190708F0CECFC801CCCFFD01A6
:1036D000F695E79570E04E175F0720F071956195BC
:1036E0007109FD01A1E9B1E04D935D93E41BF50B78
:1036F000E817F90708F4CF01E091CB05E69FA00198
:10370000E79F500D1124559547955595479555952B
:10371000479555954795240F351F880F991F880F9A
:10372000991F813044E09407A8F0019788279C7F77
:103730009C5F9093990080939800293731056CF431
:1037400028388FEF38075CF020581092BF00209384
:10375000CF0051CF80E094E0ECCF28E7F5CF28E808
:10376000F3CF1F920F920FB60F9211248F939F9356
:1037700082E496E0909389008093880081E08093B2
:10378000BB059F918F910F900FBE0F901F901895C2
:103790001092ED051092EC0588EE93E0A0E0B0E009
:1037A0008093EE059093EF05A093F005B093F1059B
:1037B00089E791E09093EB058093EA058FEF9FEF07
:1037C0009093F7058093F60581E08093F00884E0FC
:1037D0008093F10810923A0610923B06ECE3F6E073
:1037E0001192119226E0E436F207D1F710926406A6
:1037F000109266061092650685E497E0FC01B89782
:1038000011921192E817F907D9F71082CF01C996E2
:1038100029E08D30920791F71092D6081092D508C2
:103820001092D8081092D7081092DA081092D9088E
:103830001092EB080895CDB7DEB76897DEBFCDBF15
:10384000789483E084BD83E085BD81E080936E0041
:10385000E1E8F0E083E08083E0E881E08083E1E973
:1038600083E08083E0E981E08083E1EC87E080838E
:10387000E3EC81E08083E0EC82E08083E2EC81E0B5
:103880008083EAE787E08083806880831092E50583
:103890001092D5051092D7058091D7008160809352
:1038A000D70080EA8093D80089B5806189BD89B549
:1038B000826089BD09B400FEFDCF81E090E00E94E6
:1038C000B8058091D8008F7C80618093D80080916A
:1038D000E000807F8093E0008091E1008E7E809305
:1038E000E1008DE08093E200559A209A81EC80936C
:1038F0007C0081EF85B987EE84B982E38BB982EFD2
:103900008AB9769A6E9880EF81BB10BA80E58CBD3B
:1039100081E08DBD0E94CC055F9A0E94CC055C9829
:10392000ECEAF0E085918EBD00000DB407FEFDCFFE
:10393000E93BC1F75C9A81E88093640011E0109341
:10394000650068E089EB90E00E94010D9FB7F89454
:1039500022E436E0309389002093880083E080934E
:1039600080008BE18093810010928500109284008A
:1039700080916F00826080936F009FBF5E9AE4E148
:10398000F0E080E59CEF60EF7FEF25913591559158
:1039900045912851354909F4CA018093B7019093A4
:1039A000B80125913591559145912851354909F432
:1039B000BA016093E6057093E7058BEA0E94B005B3
:1039C0000E94BF0886E582BF82E48093C000109306
:1039D000C30080E48093C4001092BF008FE78093FF
:1039E000D1001092900089E0809391008091F108BD
:1039F0008093CC058093CB053E9A3F9A1093B901F2
:103A00005E98F8948091BB05811109C083B78160ED
:103A100083BF7894889583B78E7F83BFF2CF10924F
:103A2000BB0578941091CF050EEF010FEE24E394BF
:103A3000FF24FA940E3F18F0EE24E394F12C2FE7C4
:103A400041E050E0B7018AE395E00E94D70662E0CA
:103A500083EC90E00E94010D2FEF47E051E0B701A9
:103A60008AEB91E00E94D70662E081EC90E00E9430
:103A7000010D1F5F0E3F30F48091BA058F5F809378
:103A8000BA0510E01093CF055E9AC090CF05C092A2
:103A9000CE0580913A06833108F07BC0E82EF12CE8
:103AA000F701EB5AF24E0C940527681D681D681D3E
:103AB000681D681DEA1D211E211E211E211E791E62
:103AC000D31FD31FD31FD31FE424F924F924F924CF
:103AD0004701880C991C8E0C9F1C84010C0D111D34
:103AE00020E030E040E070E060E090E080E00E94A4
:103AF000990B8091C7059091C8050C9761F41092BD
:103B0000C8051092C7052FEFE21AF20A83E0E822F7
:103B1000FF24E0923A060E94F1068823D1F18091B9
:103B2000C7059091C80501969093C8058093C70575
:103B30008091BC05803218F48F5F8093BC050E9491
:103B4000FC06882331F18091BC05803211F580910B
:103B500064008E7F8093640080917A0080648093FB
:103B60007A0080917A0086FDFCCF00917800109158
:103B700079000E945306602771277093E9056093CE
:103B8000E8058091640081608093640085E0809303
:103B90003A060E944F09811104C08091CA050E9413
:103BA00093098091F1089091CD05992311F40C941B
:103BB000D626863008F486E086508093CC058AE0CD
:103BC0008093CB0580E090E0892B09F419CF0E9407
:103BD000000016CF86E080933A0684E190E090934F
:103BE0006D0680936C068EEC80936E0610927306C1
:103BF0001092720688E290E09093760680937506A4
:103C00008AEB8093770610927C0610927B0686E4FE
:103C100090E090937F0680937E068CEE80938006E2
:103C200010928506109284068FE590E090938806A6
:103C30008093870688ED8093890610928E061092F5
:103C40008D060E94F106882319F10E94FC0687FF69
:103C500007C090913A06963019F0915090933A0629
:103C600084FF07C090913A06983019F09F5F9093B7
:103C70003A068C7069F090913A068091F008909322
:103C80003B069730E9F0983011F18AE09630E1F088
:103C900080913A069091F008992349F186500C2DB5
:103CA00010E093E0899F000D111D112422E030E304
:103CB00040E070E060E090E080E00E94990B69CF06
:103CC00085E08093030181E180933A06E1CF91E0A2
:103CD00089278093F008882339F08091CA050E94D3
:103CE00093090E944003D4CF0E94BF08FACF8350AB
:103CF000D6CF8EE28093670610926A068BE080939F
:103D000068061092640680933A0680E396E09093EA
:103D1000ED088093EC081092EF081092EE088FEFF8
:103D2000809302018093010110920001EAE3F6E022
:103D300011AA3996A6E0EC3DFA07D1F71092450793
:103D400010927E071092B7071092F0071092290880
:103D50001092620810929B081092D4086BEDE62E28
:103D600068E0F62E10E002E020E0412F6CE970E9F7
:103D700083E00E9469050E948C03F701819391936F
:103D80007F011F5F183079F786E080936B0680E132
:103D900080936E0680EE9CEF90936D0680936C0688
:103DA00084E796E00E940A088DE796E00E940A08E0
:103DB00086E896E00E940A088FE896E00E940A08CA
:103DC00088E996E00E940A0881EA96E00E940A08C3
:103DD00085EC96E00E948C078EEC96E00E948C07A2
:103DE00095E09093AA068AE28093AD0620ED30E03C
:103DF0003093AC062093AB069093B3068093B6063F
:103E000020EF33E03093B5062093B4069093BC06C0
:103E10008093BF0620EF34E03093BE062093BD06AA
:103E20009093C5068093C80620E436E03093C70619
:103E30002093C6069093CE068093D10620EB36E001
:103E40003093D0062093CF069093D7068093DA065E
:103E500028E037E03093D9062093D8069093E00607
:103E60008093E30620EF37E03093E2062093E106EB
:103E70009093E9068093EC0680EB98E09093EB0634
:103E80008093EA0682EF96E00E948C078BEF96E023
:103E90000E948C078DE097E00E94ED0B86E497E08E
:103EA0000E94ED0B8FE797E00E94ED0B88EB97E007
:103EB0000E94ED0B44E0E42EE092F1075EE2F52E65
:103EC000F092F40780EC90E09093F3078093F20770
:103ED0000DE111E01093F7070093F6074CE251E073
:103EE0006DE171E081EF97E00E94250D1092F507DA
:103EF000E0922A08F0922D0884EE91E090932C082D
:103F000080932B081093300800932F084CE251E067
:103F10006DE171E08AE298E00E94250D10922E0872
:103F200013E0109363088CE18093660880EF90E0C3
:103F3000909365088093640882EF90E090936908FD
:103F40008093680845E051E062EF70E083E698E016
:103F50000E94250D1092670810939C088AE08093B8
:103F60009F0880EA9FEF90939E0880939D0885ECC0
:103F700090E09093A2088093A10848ED50E065EC92
:103F800070E08CE998E00E94250D1092A0080E9434
:103F9000870880EC9FEF9093DA088093D9081092FD
:103FA000C8051092C7050E94F10681110E943E0DBE
:103FB00080916506909166060E94AE08809369061E
:103FC0008C2C912C8091D5089091D60897FD019664
:103FD0009595879522E0A22E640106EBE02E0DEE6A
:103FE000F02E02E020E240E870E060E080589109A5
:103FF0000E94FB0A8091D5089091D60897FD019602
:10400000A2E0AA2E640106EBE02E0DEEF02E02E0F7
:1040100020E240E870E060E0959587950E94FB0AF9
:104020008091D5089091D60897FD01969595879532
:1040300062E0A62E640106EBE02E0DEEF02E02E00B
:1040400020E240E870E060E080589F4F0E94FB0A49
:10405000E3EECE2EE8E0DE2EF4E0FF2E4F2D6CEAEC
:104060007FE983E00E9476059B01482F84016FE081
:1040700070E0D6018D919D916D010E94630BF394C8
:10408000B8E0FB12EBCF4BEDC42E48E0D42EF12C60
:104090004F2D6CEA7FE983E00E9476059B01482F53
:1040A00084016EE070E0F601819191916F010E94B0
:1040B000630BF394F4E0FF12EBCF8091D908909159
:1040C000DA0839ECA32EBB24BA94A81AB90AB7FEB1
:1040D00003C02FE0A20EB11C94E0B594A7949A956A
:1040E000E1F7250124E0440C551C2A95E1F7712CD9
:1040F000612C87E3480E511C90E96916710409F49C
:1041000068C0B7FC33C0ACEBAA16B10479F1E091FA
:10411000D908F091DA08BDEBAB16B10471F12CEBC4
:10412000A216B1041CF5C5016EE570E00E94F126EF
:10413000DC01A05FBE4F2C91822F90E02C33A0F4C5
:104140002431E8F044976C01CC0CDD1CC80ED91E5C
:10415000C80CD91C0AE5E02E04E1F02E03E028E2A9
:1041600040E162E170E01BC0203508F18FEFA81A32
:10417000B80A90E1690E711CBFCF8BE090E06C0132
:10418000CC0CDD1CC80ED91EC80CD91C06EBE02EC9
:1041900003EFF02E02E028E140E162E270E0C201AC
:1041A000860D971D8E0F9F1F0E944E0BDFCFCC9761
:1041B0006C01CC0CDD1CC80ED91EC80CD91C08E53E
:1041C000E02E02E0F02E03E020E340E16AE070E040
:1041D000E6CF5AE3A52E56E0B52ED501D2968D91A5
:1041E0009C91D397C7962091D9083091DA08820F15
:1041F000931F9C01205E3F4F213A310508F05FC0BC
:10420000D1962C91D197213079F4D4966C91062EC9
:10421000000C770B64010CE5E02E00E5F02E03E0C6
:1042200020E140E10E944E0BF50181A98330B9F4F1
:1042300064A9062E000C770B82A993A9CA96E09177
:10424000D908F091DA08640106EAE02E0AE6F02EB9
:1042500003E028E049E08E0F9F1F0E944E0BD5011E
:10426000D1968C91853059F58091C7059091C805FC
:10427000969587959695879566E070E00E94DD2675
:104280006C01CC0CDD1CC80ED91EC80CD91CF50164
:1042900064A9062E000C770B02A8F3A9E02DFA966C
:1042A0008091D9089091DA080EEDE02E0AE6F02E02
:1042B00003E020E140E18E0F9F1F0E944E0BF9E0CA
:1042C000AF0EB11C2CEDA21626E0B20609F085CF88
:1042D000FDE0AF2EF7E0BF2EA5ED4A2EA8E05A2E46
:1042E00013E0D50111966D907C90B7E36B0E711CB5
:1042F0008091D9089091DA08680E791EC3018096E2
:10430000813A910508F05DC0F50180818230F9F4B1
:10431000858196810E94AE08D50114969C919923BF
:1043200011F093FD14C06401819FC00CD11C1124B5
:10433000F5016381062E000C770B00EAE02E0BE5F9
:10434000F02E03E020E140E1C3010E944E0BD501B5
:104350000C910330C9F415968D919C910E94AE0882
:104360006401809FC00CD11C1124F5016381062ECD
:10437000000C770B02EAE02E0EE5F02E03E020E1C0
:104380004EE0C3010E944E0BD5018C918430C9F4DC
:1043900015968D919C910E94AE086401819FC00C7E
:1043A000D11C1124F5016381062E000C770B04EE5D
:1043B000E02E03E6F02E03E020E140E1C3010E947D
:1043C0004E0BF9E3AF0EB11C4A145B0409F089CF20
:1043D0008091C5059091C605009709F49CC101978D
:1043E0009093C6058093C5052091C3053091C405FF
:1043F000232B11F086FD7FC18091680613E06401D4
:10440000819FC00CD11C11240AE1E02E02E7F02E9E
:1044100002E028E043E261E070E081E090E00E9489
:104420004E0B809169066401819FC00CD11C112440
:104430006091670670E008EFE02E00EBF02E02E0DE
:1044400020E140E186E390E00E944E0B8091C1059F
:104450009091C205009761F001979093C2058093F7
:10446000C1056401A4EDCA1AAEEFDA0A86FD10C0D8
:104470008091EC089091ED08F4E096958795FA9577
:10448000E1F76C01CC0CDD1CC80ED91EC80CD91C80
:104490000EE2E02E0AE2F02E02E028E04AE161E0BE
:1044A00070E085E690E00E944E0B80916F068833A5
:1044B00008F586958695869590917006890F8401FA
:1044C000B3E08B9F000D111D112460916E06062E26
:1044D000000C770B80916C0690916D06C796E09169
:1044E000D908F091DA082EE131E543E08E0F9F1FE5
:1044F0000E94630BA090BF05B090C005A114B10449
:1045000089F18091BE056401E3E08E9FC00CD11C4F
:10451000112408E3E02E0DE6F02E02E028E04DE045
:1045200066E370E081E090E00E944E0BC090BD0514
:10453000D12CF8E0CF0ED11CC601880F991FC80EF0
:10454000D91EC80CD91C28E04DE066E370E082E774
:1045500090E00E944E0B21E0A21AB108B092C00573
:10456000A092BF056091020167FD11C0653209F09C
:10457000F9C0640104E1E02E06EAF02E02E020E238
:1045800044E363E170E086E290E00E944E0B6091AC
:10459000010167FD11C0653209F07DC164010AE8BF
:1045A000E02E00EAF02E02E020E24BE363E170E04F
:1045B00083E290E00E944E0B6091000167FDE9CA22
:1045C000A8E16A02B0011124072E000C880B6A5181
:1045D00078468C4F0E948C0568E170E0CE01019610
:1045E0000E9461050E944A05898113E06401819F50
:1045F000C00CD11C11246B81062E000C770B8A8114
:1046000002EAE02E0AE8F02E02E020E140E190E02C
:104610000E944E0B8C816401819FC00CD11C11241F
:104620006E81062E000C770B8D8120E140E190E039
:104630000E944E0B8F816401819FC00CD11C1124FC
:104640006985062E000C770B888520E140E190E01B
:104650000E944E0B8A856401819FC00CD11C1124DD
:104660006C85062E000C770B8B8520E140E190E0F5
:104670000E944E0B8D856401819FC00CD11C1124BA
:104680006F85062E000C770B8E8520E140E190E0CF
:104690000E944E0B88896401819FC00CD11C11249B
:1046A0006A89062E000C770B898920E140E190E0B1
:1046B0000E944E0B8B896401819FC00CD11C112478
:1046C0006D89062E000C770B8C8920E140E190E08B
:1046D0000E944E0B8E896401819FC00CD11C112455
:1046E000688D062E000C770B8F8920E140E190E069
:1046F0000E944E0B4ECA640124E2C20ED11C0AE194
:10470000E02E02E7F02E02E028E043E261E070E0F4
:1047100081E090E099CE80916906640193E0899FE1
:10472000C00CD11C11246091670670E008EFE02EE8
:1047300000EBF02E02E020E140E186E390E00E94F1
:104740004E0B8091EE089091EF086C01CC0CDD1CB3
:10475000C80ED91EC80CD91C04E0E02E00E9F02ECA
:1047600000E0D2CF88E16802B0011124072E000CCE
:10477000880B6A537F468C4F0E948C0568E170E07D
:10478000CE0101960E9461050E944A05898113E0CD
:104790006401819FC00CD11C11246B81062E000C7A
:1047A000770B8A8102EAE02E0AE8F02E02E020E18F
:1047B00040E190E00E944E0B8C816401819FC00C0F
:1047C000D11C11246E81062E000C770B8D8120E107
:1047D00040E190E00E944E0B8F816401819FC00CEC
:1047E000D11C11246985062E000C770B888520E1E9
:1047F00040E190E00E944E0B8A856401819FC00CCD
:10480000D11C11246C85062E000C770B8B8520E1C2
:1048100040E190E00E944E0B8D856401819FC00CA9
:10482000D11C11246F85062E000C770B8E8520E19C
:1048300040E190E00E944E0B88896401819FC00C8A
:10484000D11C11246A89062E000C770B898920E17E
:1048500040E190E00E944E0B8B896401819FC00C67
:10486000D11C11246D89062E000C770B8C8920E158
:1048700040E190E00E944E0B8E896401819FC00C44
:10488000D11C1124688D062E000C770B8F8920E136
:1048900040E190E07ACE98E16902B0011124072E40
:1048A000000C880B6A5A7B468C4F0E948C0568E18D
:1048B00070E0CE0101960E9461050E944A0589813F
:1048C00013E06401819FC00CD11C11246B81062E62
:1048D000000C770B8A8102EAE02E0AE8F02E02E053
:1048E00020E140E190E00E944E0B8C816401819FA9
:1048F000C00CD11C11246E81062E000C770B8D810B
:1049000020E140E190E00E944E0B8F816401819F85
:10491000C00CD11C11246985062E000C770B8885EC
:1049200020E140E190E00E944E0B8A856401819F66
:10493000C00CD11C11246C85062E000C770B8B85C6
:1049400020E140E190E00E944E0B8D856401819F43
:10495000C00CD11C11246F85062E000C770B8E85A0
:1049600020E140E190E00E944E0B88896401819F24
:10497000C00CD11C11246A89062E000C770B898982
:1049800020E140E190E00E944E0B8B896401819F01
:10499000C00CD11C11246D89062E000C770B8C895C
:1049A00020E140E190E00E944E0B8E896401819FDE
:1049B000C00CD11C1124688D062E000C770B8F893A
:1049C00020E140E190E0F6CD80E180933A0610923C
:1049D000C9054091EE085091EF08E1E0F9E030E0C0
:1049E00020E0122F2530310509F0F0C085E08093DA
:1049F00003010E94F1068823A1F00E94FC06182FF3
:104A00008091C7059091C80501969093C805809341
:104A1000C70580913A06803109F417C1813109F444
:104A200060C1D12C86010E5E1F4F22E030E340E0D2
:104A300070E060E090E080E00E94990B70EF472EFC
:104A400078E0572E1201E3E1EE2EF12CB12CF3E0C9
:104A5000AF2E90900301D20112960C919B1409F491
:104A600047C1B4E0B91508F443C110E0055E1F4F1B
:104A7000C801880F991F080F191F0C0D1D1D2CE36D
:104A80003FE742E0B70181E590E00E94630BD2016D
:104A900012964C916CEA70E983E00E948405882E9E
:104AA0008FEF880D9B1409F43AC1B4E0B91508F4EE
:104AB00036C1F201038110E0055E1F4F9801220FFD
:104AC000331F020F131F0C0D1D1D90E02CE33FE759
:104AD00042E0B7018F5A9F4F0E94630BF20143815E
:104AE0006CEA70E983E00E9484058A948A94880DB8
:104AF0009B1409F42EC1F4E0F91508F42AC1D2017F
:104B000014960C9110E0055E1F4F9801220F331F81
:104B1000020F131F0C0D1D1D90E02CE33FE742E038
:104B2000B7018F5A9F4F0E94630BD10151968D910F
:104B30009C918090CE05912CBEE18B0E911C64E679
:104B400070E00E94DD263C018B01000F111F060F53
:104B5000171F080D191D24EE3EE942E0B7018BE650
:104B600090E00E94990BC3016AE070E00E94DD268C
:104B70003C018B01000F111F060F171F080D191D97
:104B800024EE3EE942E0B70181E790E00E94990BF4
:104B90008301000F111F060D171D080D191D24EEAE
:104BA0003EE942E0B70187E790E00E94990BB39499
:104BB000F3E04F0E511C22E0220E311C89E0E80E7A
:104BC000F11C95E0B91245CF0C94C91DC901619142
:104BD00071912F5F3F4F4617570708F402CF10938C
:104BE0000301E0EFF8E0DF0124E03397129712179A
:104BF00080F43685318B3785328B3089338B5996EB
:104C00006D917C915A975C967C936E935B97215043
:104C1000ECCF9C01220F331FD901A80FB91FA0515F
:104C2000B74F12961C9212970196FC01EE0FFF1FD0
:104C3000E80FF91FE051F74F108214961C92205193
:104C4000374FF901528B418BD4CE13FF08C08FEF41
:104C50008093030181E180933A060E94400315FF8F
:104C600007C08091C905882319F081508093C90538
:104C700016FF07C08091C905823018F48F5F8093BA
:104C8000C9058091030117FF13C0482F50E0E09140
:104C9000C9059A01220F331F240F351F2051374FAA
:104CA000E20FF32FF11D92819F5F9A31B1F0928351
:104CB00014FFB7CE282F30E0E091C905C901880F55
:104CC000991F820F931F8051974FE80FF92FF11D05
:104CD0008281815020F08283A4CE1282E9CF89E1C3
:104CE000FACF13FF9ECE80913B0680933A0699CE71
:104CF0008091C90581110CC0E4E0E91548F080916C
:104D0000C7059091C8058F739927809708F0BFCE8B
:104D1000C6010A9D800D911D11248C01B0CE909189
:104D2000C905913069F4F4E0F91550F02091C705F8
:104D30003091C8052F7333272032310508F0CECECD
:104D4000D20113969C9186019A9D000D111D11248C
:104D5000BCCE9091C905923061F4B4E0B91548F029
:104D60002091C7053091C8052F73332720323105B4
:104D700008F5F201948186019A9D000D111D112400
:104D800090E02CE33FE742E0B7018F5A9F4F0E942B
:104D9000630B9B1421F0F4E0F91508F0C6CEF10185
:104DA000818992898090CE05912CC9CE8093CC05C3
:104DB0000C94E21D9B10B9CEF2CFAA1BBB1B51E194
:104DC00007C0AA1FBB1FA617B70710F0A61BB70B7B
:104DD000881F991F5A95A9F780959095BC01CD0120
:104DE000089597FB072E16F4009407D077FD09D09D
:104DF0000E94DD2607FC05D03EF4909581959F4FDB
:104E00000895709561957F4F0895EE0FFF1F0590EF
:0A4E1000F491E02D0994F894FFCF0F
:104E1A00FFFFFF05FFFFFFFF00E1000000000000A9
:104E2A004126251D160A18251E1927230441421A50
:104E3A002627182B1729322926251522173F000A5B
:104E4A0014191724261B281C27040323142B171AAA
:104E5A00292F262527182C1740262822171A3F41C2
:104E6A0026251517262B270A0704411A26221D175D
:104E7A00332C1B2723043C242E262B27230200C174
:104E8A00808100000000000000FF03D00520041507
:084E9A00046604240442040034
:00000001FF
