:100000000C949C000C94C4000C94C4000C94C40088
:100010000C94C4000C94C4000C94C4000C94C40050
:100020000C94C4000C94C4000C94B8170C942718BA
:100030000C94C4000C94C4000C94C4000C94C40030
:100040000C94C4000C94971B0C94C4000C94C40032
:100050000C94C4000C94C4000C94C4000C94591A61
:100060000C94C4000C94C4000C94C4000C94C40000
:100070000C94C4000C94C4000C94C4000C94C400F0
:100080000C94A31A0C94C4000C94C4000C94C400E7
:100090000C94C4000C94C4000C94C4000C94C400D0
:1000A0000C94C4000C94C4000C94C400D5F08D14BE
:1000B000A1C881CFD9F1AF2000C0A0D92181FFA86C
:1000C00000A800A83F080B0002020200000904007B
:1000D00000010202000005240010010524010101B5
:1000E00004240206052406000107058103100040D0
:1000F00009040100020A0000000705020240000096
:10010000070583024000000403090412010002EF06
:100110000201404123368000010102030141726463
:1001200075696E6F204C4C430055534220494F2057
:10013000426F61726400AE1B11241FBECFEFDAE084
:10014000DEBFCDBF11E0A0E0B1E0ECE0FEE402C014
:1001500005900D92A838B107D9F729E0A8E8B1E0D9
:1001600001C01D92A531B207E1F710E0CCE9D0E063
:1001700004C02197FE010E94FE26CB39D107C9F7A2
:100180000E94011C0C9404270C94000080917206BC
:10019000823020F082508093720608951092720689
:1001A0000895482F50E0440F551FFA01EB51F74FC7
:1001B00020813181260F311D67FD3A95843098F4F6
:1001C000213C8FEF38072CF420543F4F318320839C
:1001D00008952038310524F44B51574FFA01F6CFDA
:1001E000205C3109F3CF263D8FEF38071CF42555ED
:1001F0003F4FECCF203831057CF32B5A3109E6CF45
:100200000F93382FCB014E3109F455C04E3209F40B
:100210003DC04E3009F045C00451003308F0C0C065
:10022000E02FF0E0EA5EFE4F0C94FE26A301590198
:10023000D001590190015901590159015901590140
:100240005901D001D001C1015901D0015901590111
:100250005901D00159015901590159015901590157
:10026000590159015901590159015901D001D001D0
:10027000D001D001D001D001D001D001A30159019A
:10028000D001D0014D01D00159015901033358F477
:100290000D3218F40B50023040F481E0313009F097
:1002A0005EC080E05CC00F3F11F02F3F11F4323090
:1002B000C1F781E054C00432F8F40B31D0F70B30B1
:1002C00098F40530B0F7013009F44BC0E0F1033089
:1002D00029F12D3008F079C02B3018F7233009F4BC
:1002E0004DC0243031F7DDCF0A31D8F6083108F798
:1002F0000451033070F7DDCF0D3250F40A32C8F6E6
:100300000532B9F270F2063249F0083211F7D1CF56
:100310000434A8F40C3328F60333D9F6313009F24B
:1003200060E170E00E94EA269C0197FF03C03195CE
:100330002195310981E02830310589F4B2CF0E3F93
:1003400008F0ABCFC6CF60E170E00E94EA269C01C6
:10035000255F3F4F81E02731310508F0A2CF0F9193
:100360000895313009F4A5CF2D3078F52B3008F001
:1003700098CF2350223008F09CCF93CF313081F2B8
:1003800090CF313009F095CF60E170E00E94EA260D
:100390009C01285F3F4F81E02131310500F381CF7F
:1003A000233209F47ECF38F4243108F47ACF28318F
:1003B00009F07FCF76CF2F3308F47BCF223408F4B7
:1003C00070CF2E3F08F475CF6CCF203538F42C3326
:1003D00008F067CF273109F464CF6BCF2F3F09F4C2
:1003E00060CF67CF982F6E3019F16E31C1F423338F
:1003F00039F040F4233021F0263211F0211108C0E9
:1004000081E015C02C3320F02434D0F32E3FC0F708
:100410004532B1F330F4433039F04A3089F380E0AB
:1004200008954E3FE0F3ECCF81E09130C1F708959D
:10043000283131F34A3021F318F4413081F7E0CF0D
:100440004132F1F2433259F7DBCF0F93382FCB0112
:100450004E3161F14E32C1F04E3009F5273208F0CD
:1004600076C0243288F5263109F44DC008F064C006
:100470002431A8F0253141F1043208F091C0023254
:1004800070F4043108F50BC0233358F42D3218F4FE
:100490002B50223040F481E0313009F045C080E03B
:1004A00043C02F3FC1F30F3FD1F30EC02432D0F42D
:1004B0002B3150F42B3050F4253030F4223019F128
:1004C000243069F3213031F481E02EC0273139F333
:1004D0002A3129F30D3050F50B3008F70350023064
:1004E00098F7DDCF2D3240F42A3270F72432B9F27A
:1004F0002752223078F7E8CF2C3360F3243478F297
:100500002E3F68F6E7CF3130F9F260E170E00E94EB
:10051000EA269C0197FF03C031952195310981E0BE
:100520002830310509F4BBCF0F9108950C3360F2E8
:10053000003508F0B8CFB3CF2A3131F218F42731A3
:1005400019F29ACF2052233008F096CFBDCF2F3327
:1005500009F4A5CFC0F4243390F4283208F0B4CFC6
:10056000313009F09CCF60E170E00E94EA269C01E6
:10057000285F3F4F81E021313105B0F290CF2D331C
:1005800009F4A2CF79CF243438F4223408F09CCF78
:10059000203409F480CF70CF2E3F08F080CF6CCF8D
:1005A0000F53033008F090CF7ACF982F6E30E9F0D8
:1005B0006E31B1F4473131F038F4423099F050F0F7
:1005C000453040F481E01FC04C3320F04434D0F378
:1005D0004E3FC0F72731B1F32532A1F32A3091F312
:1005E00080E008958230B1F7EDCF463149F028F42C
:1005F000443140F32132A1F7E5CF473219F3FACF66
:1006000081E0913069F30895909171069E3131F047
:100610009E3211F09E3031F481E008958A3111F05C
:100620008432D1F780E008959C0190916E06943158
:1006300069F0E92FF0E0EE0FFF1FEC5BF94F338319
:1006400022839F5F90936E0681E0089580E0089575
:10065000482F2091F2053091F30586B52827C9016E
:100660009695879520FF02C024EB92279093F3057F
:100670008093F205641B770B0E94D626840F0895A1
:100680002BE130E0EAEFF8E0A0E0B0E0BD0180E06F
:100690000E949D030E948C03BD011296A20FB31FFE
:1006A0008217930799F38F5F9F4F21F4AF5FBF408D
:1006B000DB0178F00E94B50540E05091F0056091B3
:1006C000F10580E20E949103599A0E945005A0E032
:1006D000B0E07CEF0E94B5054A2F5091F0055B0F0A
:1006E0006091F105611D82E00E949103832F71FDED
:1006F000822F70FD81910E94A903759518F42150F5
:10070000304019F01196AA2389F7599A0E94500592
:1007100021153105F9F608950E945B05982F0C9478
:100720004A0559980E94A903862F0E94A903852F84
:100730000E94A903842F0C94A903462F5091F00521
:10074000570F6091F105681F83E00E9491031EBC62
:1007500008958EBD00008EB50DB407FEFCCF089540
:10076000FC018091EF05882311F13FB7F89482E0F6
:100770008093E9002091F200822F90E0181619066C
:1007800014F481E090E0882339F0289844E64093FF
:10079000EE054091F1004083222339F02091F200D0
:1007A000211103C02BE62093E8003FBF08958FEF8F
:1007B0009FEF08952FB7F89483E08093E90090911C
:1007C000E800892F807295FF04C09091F20080E4C8
:1007D000891B2FBF08958091E60581110DC082E02D
:1007E0008093E20584E08093E3051092E505109282
:1007F000E40581E08093E60582EE95E00895CF93CD
:10080000DF931F92CDB7DEB76983DC01ED91FC91D8
:100810000280F381E02D41E050E0BE016F5F7F4F29
:1008200009950F90DF91CF91089583E08093E900BF
:100830008091F200882319F08AE38093E8000895FC
:100840000E94DA0390E00895CF93DF931F92CDB713
:10085000DEB7FC018485958597FD08C02FEF3FEF3B
:10086000358724870F90DF91CF910895CE010196AF
:100870000E94B003019719F4898190E0F3CF8FEFC4
:100880009FEFF0CF0F931F93CF93DF931F92CDB7BE
:10089000DEB78C01FC018485958597FF0BC0CE01E6
:1008A00001960E94B003019771F4898190E0F801EC
:1008B00095878487F801848595850F90DF91CF9186
:1008C0001F910F9108958FEF9FEFF1CFFC01848569
:1008D000958597FD0BC09FB7F89482E08093E9005F
:1008E0008091F2009FBF90E0019608959FB7F89421
:1008F00082E08093E9008091F2009FBF90E008952C
:100900004091DC055091DD052091DA053091DB0541
:1009100042175307B4F49091E8009570E1F3909179
:10092000E80092FD19C08093F1008091DC05909160
:10093000DD0501968F739927892B19F48EEF80932B
:10094000E8008091DC059091DD0501969093DD052E
:100950008093DC0581E0089580E00895EF92FF9296
:100960000F931F93CF93DF93F82E192FE62E042FAA
:1009700081E0860F880F0E94800483E00E9480043B
:10098000CF2DD12FEC0EFD2EF11CCE15DF05B9F0C9
:1009900007FF13C0FE0184910E948004182F80E09D
:1009A0000E948004812321968111EFCFDF91CF91A6
:1009B0001F910F91FF90EF9008958881EDCF81E016
:1009C000F5CFDF92EF92FF920F931F93CF93DF93B8
:1009D000D82E8A01EB017B01E40EF51ECE15DF0552
:1009E00059F0D7FE12C0FE0184910E948004219626
:1009F0008111F4CF0FEF1FEFC801DF91CF911F914D
:100A00000F91FF90EF90DF9008958881EECF0F93C4
:100A10001F93CF93DF931F92CDB7DEB782E0898318
:100A200042E450E065EC70E080E80E94E1040E943E
:100A3000EB03DC0112960D911C910115110589F053
:100A4000D801ED91FC910280F381E02DBE016F5F32
:100A50007F4FC801099597FD04C0F80100851185F5
:100A6000ECCF89810F90DF91CF911F910F91089565
:100A7000615030F02091F100FC0120830196F8CF05
:100A8000289884E68093EE0508950E945B05982FD0
:100A90000C945B050DB407FEFDCF8EB5599A0895F1
:100AA000599885E00E94A90380E00E94A90380FD77
:100AB000FBCF599A08950DB407FEFDCF8EB51EBC2D
:100AC0000895FC010E945B05819361507040D1F74D
:100AD000089590E0409F09F4142E5527090E151E25
:100AE000600D711D851F11240C948C050F9303E07C
:100AF00020E00E9469050E944505782F0E944A0562
:100B0000682F892F0F9108950F9301E020E00E9434
:100B100069050F910C944A05462F5091C101570F5A
:100B20006091C201681F83E00E9491031EBC08957A
:100B30000F931F93CF93DF93EA0189010E948C05E5
:100B4000FE010150104021F00E945B058193F9CF16
:100B50000E944A058083DF91CF911F910F910895E4
:100B600059980E94A903599A089586E00C94B005FB
:100B7000FC010E945306319728F068517C4F8F4F3B
:100B80009F4FF9CFAB01FC010E9453066417750714
:100B90008E079F07C8F3089585E090E00C94B80590
:100BA0008F929F92AF92BF92CF92DF92EF92FF927D
:100BB0000F931F93CF93DF936C017B018A01809188
:100BC0000F01882309F45AC08091EF05882309F4A6
:100BD00055C08091E10580FF05C08091E0008260F2
:100BE0008093E000E801B12C8AEFA82E93E0892ED3
:100BF0002AE3922E209711F4BB20C9F10E94DA0358
:100C0000811108C0AA94AA20C9F181E090E00E9455
:100C1000B805F0CF8C171D0611F00CF08C2F9FB784
:100C2000F8948092E9002091E80025FD02C09FBF62
:100C3000E1CF282F30E0C21BD30BF701815020F009
:100C400041914093F100FACFE20EF31EBB2021F058
:100C50009092E800B12CEBCF8091E80085FDE7CFC2
:100C60009092E800BB24B394209709F3F3CF5D98EA
:100C700084E68093E005101611063CF081E090E0D8
:100C8000F6019383828310E000E0C801DF91CF91E9
:100C90001F910F91FF90EF90DF90CF90BF90AF909A
:100CA0009F908F900895ADEBB1E02FB7F8947D91B0
:100CB0008D919C9166B52FBFA89B05C06F3F18F41E
:100CC0007F5F8F4F9F4F22E0660F771F881F991F0E
:100CD0002A95D1F70895863240F4833220F48A3081
:100CE00011F08A3131F481E008958832E1F38A32DB
:100CF000D1F380E00895909171069E3159F020F46F
:100D0000963141F080E00895963211F09E32D1F78D
:100D10000C946B0689518431A8F7E82FF0E0ED566A
:100D2000F94F0C94FE26A706A706820682068206C5
:100D30008206820682068206A7068206A706A70604
:100D400082068206820682068206A706A70681E040
:100D5000089590917106963159F020F49E3041F03B
:100D600080E008959E3111F09632D1F70C946B0615
:100D700089518431A8F7E82FF0E0EF53F94F0C9434
:100D8000FE26D506D506B006B006B006B006B006FB
:100D9000B006B006D506B006D506D506B006B00634
:100DA000B006B006B006D506D50681E0089530E756
:100DB0003CBDDC0130E8439FC0011124A80FB91FDE
:100DC0005E91352F6111372F3C93C89500C0522397
:100DD0005EBD0197A9F704D003D030E50DB43CBD4A
:100DE00008958091C405882329F081508093C4051B
:100DF00081E0089580E008958091B5018093B60167
:100E00009FB19095907F669B98601C9B9460909397
:100E1000B50180958923089597FD0F9624E0959557
:100E200087952A95E1F7860F911D67FD9A9597FDA5
:100E300016C08C3B910579F08D3B910571F08C3B90
:100E400091056CF46EE570E00E94EA26FC01E05F1B
:100E5000FE4F808108958EEF08958BE008958FEF07
:100E6000089520916F063091700626553109263578
:100E7000310578F52CEF022E000C330B4091E3087E
:100E80005091E40848505109241B350B37FF02C02C
:100E9000215F3F4F94E0359527959A95E1F7A90199
:100EA000480F511D87FD5A95CA0157FD18C04C3B8C
:100EB000510589F04D3B510581F04C3B51057CF4C7
:100EC0006EE570E00E94EA26FC01E05FFE4F808143
:100ED000089520E0D0CF8EEF08958BE008958FEF36
:100EE0000895E4E4F6E070E043AD54AD25AD32ADD5
:100EF000313049F4022E000C330B2617370719F452
:100F00004817590739F0399626E0ED3DF20761F7A9
:100F100080E0089581E00895DF92EF92FF920F93B1
:100F20001F93CF93DF938C018091E3089091E408A5
:100F300060EE75E01816190614F060E27AEF0E9470
:100F4000EA26623009F461E080EE95E0689F700166
:100F5000699FF00C11246EE580E00E942803C82FE1
:100F600063E080E00E942803D82ED0E0FE01E05F1D
:100F7000FE4F40816AE671ED83E00E94840594E0B3
:100F8000CC0FDD1F9A95E1F7CE0DDF1D2091E30810
:100F90003091E4082C0F3D1F20353105E0F291E03F
:100FA000D91659F1D91680F0E2E0DE12D4CF82FFD3
:100FB000D2CF6FE0CE010E9471078111CCCF83E0C8
:100FC000F801808382E10CC080FFC5CF6FE2CE01C3
:100FD0000E9471078111BFCF83E0F801808382E313
:100FE0008383D283C18310861782DF91CF911F91B3
:100FF0000F91FF90EF90DF90089581FFACCF6FE1EC
:10100000CE010E9471078111A6CF83E0F801808391
:1010100082E2E6CFAF92BF92DF92EF92FF920F9300
:101020001F93CF93DF93EC018091E3089091E40844
:1010300060EE75E01816190614F060E27AEF0E946F
:10104000EA26623009F461E080EE95E0689F500185
:10105000699FB00C11246EE580E00E942803E82E01
:10106000F12C63E080E00E942803D82E870184E001
:10107000000F111F8A95E1F70A0D1B1D8091E308EF
:101080009091E408800F911F8035910520F3F701BE
:10109000E05FFE4F40816AE671ED83E00E948405C7
:1010A00091E0D91649F1D91678F092E0D912D3CF50
:1010B00082FFD1CF6FE0C8010E9471078111CBCFB1
:1010C00081E088838FE00BC080FFC5CF6FE2C8014D
:1010D0000E9471078111BFCF81E088838FE28B83EB
:1010E0001A830983DF91CF911F910F91FF90EF90A9
:1010F000DF90BF90AF90089581FFADCF6FE1C80141
:101100000E9471078111A7CFD8828FE1E8CF909319
:10111000CA058093C9052091E3083091E408319510
:1011200021953109E4E4F6E046EE56E080E090E0F7
:1011300061A9613031F462A973A96217730754F48D
:101140009F5F39964E175F0799F79093C805809374
:10115000C70508958F5FF5CFCF93A0E0BC018A2F1C
:101160006C5373448C4F0E948C050E945B05C82F02
:101170000E944A058C2FCF91089510927100109211
:10118000C1001092A1011092D70508958091A1018C
:10119000882329F18091AE01811121C06091AF01B6
:1011A0007091B0018091B1012DE030E042EA51E050
:1011B0000E94980534E0E2EAF1E090E080E02191BD
:1011C00041915191452B11F41092A1012695821B5A
:1011D00091093150A1F79093A00180939F018091D4
:1011E000D7058823C1F080919601811114C06091C8
:1011F000B2017091B3018091B40124E030E043E981
:1012000051E00E9498058091940190919501892B5D
:1012100011F41092D7058091A101811106C080912F
:10122000D705811102C00C94BD080895CF93909109
:10123000FA08992341F19091C301992321F1482F94
:101240006CEA7CEB83E00E9476056093B2017093B8
:10125000B3018093B401C1E0C093D7050E94C608D2
:101260008091710081110FC080E094E0909399000B
:10127000809398001092950010929400C093C10042
:1012800082E080937100CF9108958091A101811136
:1012900004C08091D705882341F0809190018F5F31
:1012A000833020F48093900181E0089510929001A2
:1012B0000E94C6088091AE01882399F081508093E6
:1012C000AE0181110EC08091AF019091B001A0914B
:1012D000B1010D96A11D8093AF019093B001A09331
:1012E000B101809196018823F9F281508093960193
:1012F0008111DACF8091B2019091B301A091B40134
:101300000496A11D8093B2019093B301A093B40100
:10131000CBCFCF92DF92EF92CF938093D405909171
:10132000FA08992351F19091C301992331F1482F83
:1013300069EA7CEB83E00E9476056B01E82E0E944F
:10134000BD08C092AF01D092B001E092B1011092FD
:10135000AE01C1E0C093A1010E94450980E094E084
:1013600090939900809398001092950010929400A9
:10137000C093C10082E080937100CF91EF90DF9025
:10138000CF9008953F924F925F926F927F928F928B
:101390009F92AF92BF92CF92DF92EF92FF920F9304
:1013A0001F93CF93DF9300D01F92CDB7DEB73A01E2
:1013B000862EA4ECB1E0B701E02FDD24382E9695FF
:1013C0009695969531E061FD34E060FD330F62FD46
:1013D00032955FEF539F7001E094F0947595679597
:1013E0007595679575956795462F4F3F4CF44095D9
:1013F000941B20FD440F489F600C711C8D1C4FEF07
:1014000017FF0BC0300E20FF02C0000F111F601A23
:10141000710A8D0817FD8394EE2750E845030E0EE0
:10142000A00DB11D5E1B351608F0352E57E0541B7C
:10143000591714F4952FD39450E85319482E552476
:1014400021FD02C04318550820FF02C0440C551C62
:1014500011245B824A82932E0090C101700C00908F
:10146000C201801C19C0599833E03EBD640C751C44
:10147000811CAA24831509F0A3940CD08EBC07D03C
:101480007EBC05D06EBC03D01EBC03D00895C895A9
:101490000000C895C8950895641875088108E3DFB1
:1014A00041151CF0992371F564C0A058BF4FC32C9F
:1014B00020FD0CC06EB51EBC699DBC90BF20B1283C
:1014C000BD92C89500C0CA94A9F711C06EB51EBCE4
:1014D000699DB001DEDFEEB41EBCE99C7001BC90DA
:1014E000F094BF20B72ABD92C895CA9479F7112409
:1014F000A319B1099A9509F45CC0AA2019F00DB49A
:10150000599AB1DFFD01E058FF4FC32C20FD0EC0FA
:101510006EB51EBC699DBC90BE20B028BD92B08047
:10152000BF20B128B192CA9499F716C06EB51EBCFF
:10153000699DB001BC90F080AEDF00C0EEB41EBC6F
:10154000E99C0094B020B62ABD921094F120F72AAD
:10155000F1920000CA9451F71124A50FB11D9A957C
:1015600061F6DD2031F1AA2021F00DB4599A7BDF1C
:10157000C89520FD0CC06EB51EBC699DBC90BE20F8
:10158000B028BD92C89500C03A94A9F712C06EB5B4
:101590001EBC699DB0017DDF9EB51EBC999D902D3E
:1015A000BC909095B922B62ABD92C8953A9479F725
:1015B000C8951124599A0DB40F900F900F90DF9198
:1015C000CF911F910F91FF90EF90DF90CF90BF9040
:1015D000AF909F908F907F906F905F904F903F90D3
:1015E00008956F927F928F92AF92CF92DF92EF9297
:1015F000FF920F931F93803891050CF03AC060342E
:1016000071050CF036C0A42FB0E0FD01E80FF91F02
:101610001E161F060CF02DC0E22FF0E03F01660EF3
:10162000771E161417040CF024C03701802E7B019E
:101630008C019E2F8827842B9B2BC114D104A1F0F1
:10164000269526952695A0FC220F249FF001ED9D5E
:10165000700C811CFC9D700C811CFD9D800CEC9D10
:10166000600C711C1124811C2A2D682DA3010E947D
:10167000C2091F910F91FF90EF90DF90CF90AF9034
:101680008F907F906F900895AF92CF92DF92EF92FC
:10169000FF920F9332E0E30EF11C011D33E0A32E05
:1016A0000E94F10A0F91FF90EF90DF90CF90AF90E2
:1016B00008957F928F929F92AF92CF92DF92EF9296
:1016C000FF920F931F93CF93DF93EC014B016901BE
:1016D000E42E842FB9010E948C050E945B05782EB0
:1016E0000E944A054E2D96012E5F3F4F4F4F93E0CB
:1016F000A92E68017901042F282F472DB401CE01AE
:101700000E94F10ADF91CF911F910F91FF90EF900E
:10171000DF90CF90AF909F908F907F9008957F92B1
:101720008F929F92AF92CF92DF92EF92FF920F93A0
:101730001F93CF93DF93EC014B016901E42E842FBB
:10174000B9010E948C050E945B05782E0E944A0513
:101750004E2D96012E5F3F4F4F4F92E0A92E68010C
:101760007901042F282F472DB401CE010E94F10AE0
:10177000DF91CF911F910F91FF90EF90DF90CF906D
:10178000AF909F908F907F900895DC01222319F0F5
:10179000D8961C92D89746175707A0F0D8969C91D8
:1017A000D897943161F0E92FF0E0EE0FFF1FEA0FB8
:1017B000FB1F518B408B9F5FD8969C93D8974150CD
:1017C0005109E9CF0895EF92FF920F931F93CF93A2
:1017D000DF938C018091E3089091E40860EE75E05E
:1017E0001816190614F060E27AEF0E94EA266230B9
:1017F00009F461E080EE95E0689F7001699FF00C4C
:1018000011246EE580E00E942803C82FD0E0FE017D
:10181000E05FFE4FE081E451E63198F7F0E0ED5EE5
:10182000F34F0C94FE26290C290C290C290C010CD1
:10183000290C290C290C290C290C290C290C290C00
:10184000290C290C010C290C290C290C010C290C40
:10185000290C84E0CC0FDD1F8A95E1F7CE0DDF1D4A
:101860006FE0CE010E9471078111CBCF82E0F801B9
:1018700080838AEF8383D283C18380E3848386E07D
:1018800091E09683858321E04CE051E066E071E0D1
:10189000C801DF91CF911F910F91FF90EF900C94B1
:1018A000C50BCF93DF9300D000D000D0CDB7DEB70B
:1018B000DC018C91833049F1843009F443C08230DB
:1018C00089F411962D913C911297295C3F4F260F78
:1018D000371F13964C91042E000C550B4C5F5F4F35
:1018E000E8E0F8E03A8329835C834B833A815C81AA
:1018F0006F2F7E2F80E090E026960FB6F894DEBF23
:101900000FBECDBFDF91CF91089511962D913C91DF
:10191000129713964C911397042E000C550B4A5FA7
:101920005F4F15968D919C91855C9109449738F491
:10193000235C3F4F260F371FE4E0F5E0D3CF275C51
:101940003F4FF8CF11962D913C911297235C3F4F5A
:10195000260F371F13964C91042E000C550B495F30
:101960005F4FE4E0F4E0BECFCF93DF9300D000D030
:1019700000D0CDB7DEB7FC018081833011F1853016
:1019800061F1813059F49B01275C3F4F4381042E64
:10199000000C550B4E5F5F4FA6E0B6E03A832983FB
:1019A0005C834B833A815C816B2F7A2F80E090E0DF
:1019B00026960FB6F894DEBF0FBECDBFDF91CF9154
:1019C00008959B01245C3F4F4381042E000C550B6E
:1019D0004F5F5F4FA5E0B5E0E1CF9B01215C3F4F3A
:1019E0004381042E000C550B455F5F4FF3CF5C988D
:1019F000FC012591CF012EBD00000DB407FEFDCFE7
:101A00006150B1F75C9A08959C016217730790F0DA
:101A100090916E06943159F0E92FF0E0EE0FFF1F20
:101A2000EC5BF94F738362839F5F90936E06615006
:101A30007109EBCF0895DC0146175707A0F0D8963F
:101A40009C91D897943161F0E92FF0E0EE0FFF1FE1
:101A5000EA0FFB1F518B408B9F5FD8969C93D897C2
:101A600041505109E9CF08952F923F924F925F92D2
:101A70006F927F928F929F92AF92BF92CF92DF929E
:101A8000EF92FF920F931F93CF93DF93CDB7DEB703
:101A900068970FB6F894DEBF0FBECDBF0E94FC065C
:101AA000A090B5018091D1059091D2059C012F5F46
:101AB0003F4F3D8B2C8B3093D2052093D1058EEF79
:101AC0000E943107D82E8FEF0E943107B82E80E098
:101AD0000E943107182F81E00E943107C82E82E052
:101AE0000E943107082F8C899D8963E070E00E9475
:101AF000D626988F8F8B309100013E8B409101014B
:101B00004B8B80910201898BAF89B88DAB2B11F083
:101B10000C9412173F3F11F00C94A517E0916E063C
:101B2000E11173C2809144068B3009F4ADC068F0B6
:101B30008E3058F4A3FE93C34F3124F4B989BF31DA
:101B40000CF48DC38FE080934406E0916E06EE2383
:101B500009F485C3E150E0936E06F0E0EE0FFF1F3D
:101B6000EC5BF94F628173817093700660936F062E
:101B7000660F771F660F771F80E0685F71448C4F98
:101B80000E948C0564E070E0CE0101960E94610520
:101B90000E944A05809171069981890F8093710690
:101BA0000B81F12C602F8F2D0E94D100F39424E043
:101BB000F212F8CF8091E1089091E208800F911D18
:101BC00007FD9A959093E2088093E1082A8180911D
:101BD000E3089091E408820F911D27FD9A95909358
:101BE000E4088093E308209374060C81602F8F2D06
:101BF0000E94D100F39438E0F312F8CF8091DF080F
:101C00009091E008800F911D07FD9A959C0121504D
:101C10003F4F2F3F314008F03AC29093E008809345
:101C2000DF0880916E0681110EC0209171068091AF
:101C30006F06909170068D31910509F42DC283379E
:101C4000910509F491C240907106512C80916F0664
:101C5000909170068633910508F09DC386329105F8
:101C600008F0B6C38E31910508F075C38230910536
:101C700008F0AEC3009709F4B6C3019709F499C3FD
:101C80003FEF431A530AA7C3A2FE0EC084E591E0BA
:101C90000E94870880E491E09093D0058093CF055F
:101CA0001092CE051092CD05E0906F06F090700670
:101CB000A3FE9AC0E5E0EE16F10449F0E8F4E11461
:101CC000F10461F123E0E216F10409F03ECF8091C6
:101CD00071068E3109F448C08E3239F18E3009F028
:101CE00034CF103409F431CFB0E4CB1609F42DCF42
:101CF000003409F42ACF38C039E5E316F104C9F1FC
:101D00004BE5E416F104A9F186E5E816F10409F0C3
:101D10001CCF67E670E08CE590E004C061E170E004
:101D200086E090E00E94040D10CF1A3040F01D3084
:101D300008F40BCF83ED810F863008F406CF9BE0CB
:101D4000C91648F0ACE0AC1508F0FFCE83ED8C0D61
:101D5000863008F4FACE0A3038F00D3008F4F5CEAB
:101D60000D52063008F4F1CE6DE170E082E190E0B2
:101D7000D9CF809171068E3191F18E3271F08E3013
:101D800009F0E3CE103409F4E0CE40E4B41609F4CF
:101D9000DCCED41609F4D9CE22C01A3040F01D3062
:101DA00008F4D3CE83ED810F863008F4CECEEBE07D
:101DB000BE1648F0FCE0FB1508F0C7CE83ED8B0D96
:101DC000863008F4C2CE2AE0D21648F03CE03D1539
:101DD00008F0BBCE83ED8D0D863008F4B6CE63E7F8
:101DE00070E088E690E09ECFA7FE1AC08091E308DD
:101DF0009091E4088F709927892B91F4812F0E948C
:101E00007B06882309F4A1CE86E5E81AF10896E559
:101E1000E916F104D8F467E770E084E790E082CF38
:101E2000A4FC19C0A6FE94C0C70186559109863549
:101E3000910508F047C0812F0E940403882309F40C
:101E400084CE1092700610926F067FCE61E270E031
:101E50008EE190E067CF8091E3089091E4088F7065
:101E60009927D701A655B1094D01892B29F4812F56
:101E70000E94A906811118C0B6E58B16910448F49A
:101E800086E590E0E2E08E16910458F487E590E054
:101E900008C090E080E0F2E0EF16F10410F481E079
:101EA00090E00E94140351CE6BE770E088E790E069
:101EB00026E58216910408F435CF65E270E082E2EF
:101EC00090E030CFD09071066091E3087091E40803
:101ED0000C2D212F4D2D81E00E942502882371F0C9
:101EE00065E070E084E090E033E0E316F10409F48B
:101EF00019CF63E070E082E090E014CF4EE0D4129E
:101F000010C01F3371F483E0E816F10429F461E492
:101F100070E086E390E006CF6DE470E082E490E04C
:101F200001CF2C2D412F6D2D81E00E94D5028823F9
:101F300009F40BCE93E0E916F10429F46DE270E0A8
:101F400086E290E0EFCE65E370E08EE290E0EACECC
:101F5000A5FEFBCDC701865591098635910518F57B
:101F6000D09071066091E3087091E408012F2B2D49
:101F70004D2D81E00E940001811122C0BEE0DB12E4
:101F80002DC01C3311F0113449F567E970E08CE87D
:101F900090E0E9E5EE16F10409F4C4CE63EA70E0DE
:101FA00088E990E0BFCE812F0E940403882309F4C2
:101FB000CCCD86E590E09093700680936F06C5CDFA
:101FC0006BE570E08AE590E0A9E5EA16F10409F412
:101FD000A9CE69E570E088E590E0A4CE212F4B2DD5
:101FE0006D2D81E00E94F201882309F4AECD63E8F3
:101FF00070E08CE790E0F9E5EF16F10409F492CE79
:102000006BE870E084E890E08DCEA3FEA3CD8091D4
:102010006F06909170068330910519F08530910517
:10202000C1F410926E064DE150E020916E0624310D
:1020300059F0E22FF0E0EE0FFF1FEC5BF94F5383F6
:1020400042832F5F20936E06415051094131510563
:1020500061F78D7F8935910509F077CD10926E0675
:1020600023E730E080916E06843159F0E82FF0E0EC
:10207000EE0FFF1FEC5BF94F338322838F5F80935A
:102080006E06215031092736310561F75ECD109279
:10209000E0081092DF08C5CD2E3091F51F3329F0EE
:1020A00058F48DEF810F823060F465E570E08EE4C6
:1020B00090E00E94040DC7CD1134B9F310F01E3F1B
:1020C000A0F781E4C81689F38C15B0F093E0C91627
:1020D00061F3173209F1F0F51530C8F51330E0F46B
:1020E0001123D1F0F1E4CF16B9F0FC1528F52EEF4D
:1020F000C21608F4A8CD10C0AEEFCA1650F3D5CF63
:102100002E3109F0A0CD193239F058F4133078F09F
:10211000153010F0173159F465E570E082E590E074
:10212000C8CF1C3320F01434B8F31E3FA8F7B7E132
:10213000CB1691F3BC1530F08DEF8C0D823008F08A
:1021400082CDEACFEEEFCE1608F47DCDE5CF183183
:1021500049F6E2CF113401F318F41F3319F6DCCF3E
:102160001E3F08F4BFCFD8CF2E3089F41F3329F09B
:1021700048F48DEF810F823050F46BEA70E084EA0E
:1021800090E097CF1134C9F310F01E3FB0F7809163
:10219000E3089091E4082E3009F443C02E3109F091
:1021A00052CD193241F0E0F4173129F048F41330E0
:1021B000E9F0143049F46BEA70E088EA90E079CFF6
:1021C0001A31C9F3163291F03AE1B316A1F33B1577
:1021D00018F144E0B41679F387E1B81234CDEBCFAF
:1021E0001434B8F41C3338F7133371F7AC014F7063
:1021F0005527452B01F360E170E00E94EA2697FF26
:1022000003C09195819591090C97A9F2422E512C0A
:10221000DFC01E3FC8F2CFCF9EEFB91608F413CD32
:10222000CACF133241F250F41A3089F0183109F054
:102230000ACD8F709927892B49F7BDCF173209F442
:10224000BACF08F400CD1E3F08F0B5CFFCCC60E15A
:1022500070E00E94EA260C970CF4ADCFD7CF8091A6
:102260006F069091700685359105A9F04090710632
:102270008635910590F58132910509F465C0C8F461
:102280008530910541F070F48130910509F472C0F8
:10229000039709F0D8CC1092700610926F06109236
:1022A0007406D1CC81319105B1F34D9709F0CBCCB7
:1022B000F2CF8533910579F340F48532910509F425
:1022C00055C08D9709F0BFCCE6CF8134910519F345
:1022D0008D34910509F0B7CCDECF8737910509F42D
:1022E0004DC0D8F48B35910549F078F487359105C8
:1022F00009F44EC08935910509F0A5CC86E590E03A
:102300009093700680936F06CACF87369105B1F31C
:102310008337910509F097CCF1CF8B38910571F394
:1023200040F48B37910581F18338910509F08BCC0E
:10233000E5CF833A910511F38B3A9105F9F287398C
:10234000910509F080CCDACF812F0E947B0688238B
:1023500009F4A1CF512C22E0420E511C4AE0E42E98
:102360005CE0F52E68E3262E312C47C0812F0E94B9
:10237000A906EDCFA4FE8FCF512C1BC0812F0E9448
:102380007B068111E7CFBACF812F0E94A906F9CF32
:10239000A4FEB4CFF1CF8437910598F48835910528
:1023A000B8F48635910509F406C18735910509F021
:1023B00067CCE7E04E0E511CE4E0EE2EFBE0FF2E72
:1023C00001C18C37910538F28C38910508F058CC52
:1023D000F2E04F0E511C99E0E92E2EE0F22E37E389
:1023E000232E312C0AC0A2E04A0E511C19E0E12E26
:1023F00008E0F02E8AE3282E312C05E716E0510183
:10240000AF0CB11C6201CE0CD11CB3E08B2E912C11
:1024100080E8682E82E0782ED8018C91833009F410
:10242000DCC0853009F435C1813009F05FC01196F8
:102430006D917C918091E3089091E408680F791F79
:10244000C8010E94B40C29833A834B835C836D835B
:102450007E83F80187819085892B09F047C08981A7
:102460009A818A159B050CF041C0860F911D281694
:102470003906E4F58B819C818C159D05BCF5870F91
:10248000911D4816590694F58181928190937706A3
:102490008093760683818093780610927906109255
:1024A0007B0610927A06908687828091F60890913A
:1024B000F708805B9F4F8133F6E09F0708F086C0E6
:1024C0009093F7088093F6088091F8089091F908A6
:1024D00001969093F9088093F80880E491E0909336
:1024E000CC058093CB0585E00E941609075F1F4F3E
:1024F00097E00731190709F08FCF809144068B30A0
:1025000009F056C177E1C72E77E0D72EEFED6E2E9A
:10251000E8E07E2E81010F0D111DE40CF52CF11C5D
:10252000F0E8AF2EF2E0BF2E88248394912CD601E0
:102530008C91833031F0843009F4EFC0823009F09F
:1025400030C18091CF059091D005892B09F029C128
:102550006091E3087091E408C6010E94510C298340
:102560003A834B835C836D837E8389819A81801754
:1025700091070CF016C1860F911D281639060CF034
:1025800010C18B819C818E159F050CF00AC1870FAD
:10259000911D481659060CF004C10E94C600B09265
:1025A000D005A092CF059092CE058092CD0583E014
:1025B0000E941609F6C0B2E04B0E511CA9E0EA2EAB
:1025C000B8E0FB2E79E3272E312C17CF20E336E03D
:1025D0003093F7082093F60877CF11966D917C9190
:1025E0008091E3089091E408680F791FC8010E9468
:1025F000B40C29833A834B835C836D837E83F8011B
:1026000087819085892B09F071CF89819A818A15FC
:102610009B050CF06BCF860F911D281639060CF028
:1026200065CF8B819C818C159D050CF05FCF870F4A
:10263000911D481659060CF059CF818192819093D3
:102640007706809376068381835080937806109274
:10265000790627E030E030937B0620937A06908657
:10266000878280917206893080F48E5F8093720633
:102670007092D0056092CF051092CE051092CD05D4
:10268000C8010E948C0786E02FCF3BE03093720692
:10269000EFCF8091CF059091D005892B09F026CFFF
:1026A00011966D917C918091E3089091E408680FF8
:1026B000791FC8010E94B40C29833A834B835C8341
:1026C0006D837E8389819A818A159B050CF00ECFDC
:1026D000860F911D281639060CF008CF8B819C813E
:1026E0008C159D050CF002CF870F911D48165906D9
:1026F0000CF0FCCE25E030E0F801308727830E9403
:10270000C6007092D0056092CF0581E090E0909372
:10271000CE058093CD0583E0E7CE8091CF059091E3
:10272000D005892BF1F56091E3087091E408C601AA
:102730000E94510C29833A834B835C836D837E8393
:10274000F601858196818D33914058F589819A8172
:102750008017910734F5860F911D281639060CF560
:102760008B819C818E159F05E4F4870F911D48167F
:102770005906BCF480916F069091700686339105DE
:1027800008F0A4C08632910520F40697489708F017
:1027900004CF21E042E451E06DE371E0C6010E9404
:1027A000C50B29E3C20ED11C6C147D0409F0BFCE09
:1027B000809044063FED432E38E0532E47E1E42E4F
:1027C00047E0F42E5EE2752E60EA262E312CD7010A
:1027D000D896EC91D897BC91BA8BEE2309F42EC20F
:1027E000B33009F41EC1B43009F4A7C1B23081F48A
:1027F000D70113968C9113978A3F09F075C01496F0
:102800008C911497882309F46FC0815014968C938F
:10281000B9E3EB0EF11CEFEDEE16E8E0FE06B9F6BB
:10282000F989F7FF95C38091F6089091F708009712
:1028300029F001979093F7088093F6083B8937FFBA
:102840003FC005E716E037E1E32E37E0F32E42E024
:10285000D42ED8018C91882311F1853009F435C329
:10286000863009F42AC38130A9F417968D919C9182
:102870001897009779F0019718969C938E93179765
:10288000892B41F4DC92C8010E940A0884E591E09A
:102890000E948708075F1F4FE016F106D1F680916E
:1028A000F50890917406992309F42CC397FF37C358
:1028B000813E34F018160CF03AC380320CF439C360
:1028C000EF89F88DEF2B09F44AC3AFC28C3591051F
:1028D00008F463CE8437910508F45BCF8C579109D7
:1028E000409708F05ACE55CFE150D701D896EC93D7
:1028F000D897F0E0EE0FFF1FEE0DFF1D6089718984
:1029000016967C936E931597660F771F660F771F49
:1029100080E0685F71448C4F0E948C0564E070E039
:10292000CE010D960E9461050E944A05F701838140
:102930009D85890F83839E8521813281290F311DD9
:1029400097FD3A95328321838A3FA1F08091E30875
:102950009091E408919581959109821B930B865A79
:102960009F4F853B910530F0FBE08F1257C0C701A8
:102970000E94E30B6091E3087091E408C7010E9494
:10298000510C2F83388749875A876B877C8707E1EB
:1029900017E0F80180818430D1F56091E3087091EF
:1029A000E408C8010E94510C29833A834B835C835D
:1029B0006D837E83FBE08F122AC029813A814F818B
:1029C0005885C901860F911D4817590704F58B8555
:1029D000840F952F911D28173907CCF42B813C814A
:1029E00049855A85C901870F911D481759077CF4FD
:1029F0008C85840F952F911D2817390744F421E009
:102A000042E451E06DE371E0C8010E94C50B075C30
:102A10001F4F4016510609F0BCCFFACED7011C92C9
:102A2000A9CFE150D701D896EC93D897F0E0EE0FFC
:102A3000FF1FEE0DFF1D0089118916961C930E9342
:102A40001597B801660F771F660F771F80E0685FE4
:102A500071448C4F0E948C0564E070E0CE010196B9
:102A60000E9461050E944A05F70183819981890FBF
:102A700083832A8181819281820F911D27FD9A95FE
:102A80009283818320AD2111C3CE083D110571F1E0
:102A90000530114009F0BCCE0091E3081091E40824
:102AA00022273327201B310B281B390B25363105F4
:102AB000ACF02BE0821212C06AE080E00E94280392
:102AC0009101201B310B40E1849FC0011124280F8C
:102AD000391FD70112963C932E93119745E051E090
:102AE00062EF70E0C7010E941B0D92CE0091E308D7
:102AF0001091E40822273327201B310B281B390BA8
:102B00002C393F4FACF4EBE08E1212C06AE080E04B
:102B10000E94280320E63FEF201B310BF0E18F9F3E
:102B2000201931091124D70112963C932E93119745
:102B300048ED50E065EC70E0D5CFE150D701D89674
:102B4000EC93D897F0E0EE0FFF1FEE0DFF1D00890C
:102B5000118916961C930E931597B801660F771F6F
:102B6000660F771F80E0685F71448C4F0E948C0570
:102B700064E070E0CE0101960E9461050E944A0562
:102B8000F70183819981890F83832A8181819281D1
:102B9000820F911D27FD9A959283818380AD8111CB
:102BA00037CE0C32F1E01F0741F00C3321E0120761
:102BB00021F00C31114009F02BCE6AE080E00E9438
:102BC00028038230B1F198F4882339F14CE251E0C6
:102BD00064E271E0813029F160E182E00E94280323
:102BE000682F70E0635D7E4F4CE351E01AC04CE10A
:102BF00051E064E171E08330A1F0863068F78091A4
:102C0000E3089091E408919581959109D701119677
:102C10002D913C918217930764F44CE251E06DE1F1
:102C200071E0C7010E941B0D4CE151E06DE071E0C5
:102C300059CF4CE151E06DE071E0F3CFF701C58071
:102C4000D680A180B28085010C5F1F4F6FEFC80155
:102C50000E940C07682E60E0C8010E940C07982EA5
:102C600061E0C8010E940C07182FFA89F23069F15F
:102C7000F43009F0CDCD22E4C21621E0D20609F0ED
:102C8000C7CDD70113967C9262E080E00E942803B2
:102C90002091E3083091E408882309F4B3C084E666
:102CA00090E0821B930BF701928381832DE131E049
:102CB000368325834CE251E06DE171E0C7010E944B
:102CC0001B0DD70114961C92A3CD2BEDC216D10477
:102CD00009F444C0C8F540EBC416D10431F000F546
:102CE0009EEAC916D10409F093CDD70113966C90D2
:102CF000012F292D462DB50182E00E94250288234F
:102D000009F467C040EB50E06FEA70E0BEEACB1612
:102D1000D10409F4E7CE4EEA50E06DEA70E0E2CE6D
:102D2000A8EBCA16D10429F0B4ECCB16D10409F0F3
:102D30006FCD62E080E00E9428038111ECCF4BED63
:102D400050E06AED70E0CECEE5EECE16D10489F308
:102D5000D0F42DEDC216D10409F05ACDD701139647
:102D60001C91092D262D412FB50182E00E94000102
:102D70008823A1F04DED50E06CED70E0BBEDCB167B
:102D8000D104E9F6AFCE31EFC316D10491F24CE095
:102D9000C41641E0D40609F03BCDCBCF1E3059F428
:102DA000ECE39E1619F0F1E49F1205C041EF50E0EC
:102DB00066EE70E097CE292D462D612F82E00E94AD
:102DC000F20145EE50E06EED70E0882309F420CD6D
:102DD00089CEEEE06E1208C0FFE344EC50E069EBF0
:102DE00070E09F1609F47ECE212F492D662D82E0DA
:102DF0000E94D50248EB50E061EB70E0882309F4B3
:102E000007CD70CE8CE99FEF821B930BF701928365
:102E100081832DE031E0368325834CE151E06DE084
:102E200071E04CCF298927FD09CD2E8927FD0AC0E5
:102E30003C8930FD07C0822F8F5F8B3409F47BC043
:102E400080930001809102018F3F61F480917206AE
:102E5000811108C0109202018CE08093440680E04A
:102E60000E941609809101018F3F71F48091F6084C
:102E70009091F708892B41F4109201018DE0809325
:102E8000440680E00E94160968960FB6F894DEBFEB
:102E90000FBECDBFDF91CF911F910F91FF90EF90AB
:102EA000DF90CF90BF90AF909F908F907F906F906A
:102EB0005F904F903F902F900895F8018481883360
:102EC00008F0E8CC8F5F8483E5CC17968D919C91B8
:102ED000189701968033910589F018969C938E93EC
:102EE0001797D80117968D919C91189723E0969586
:102EF00087952A95E1F714968C93CCCCF80110862F
:102F00001782EFCF803E0CF4DBCC8F3F91F08CF03A
:102F10008150803208F0D4CC8093F508D1CC803E2B
:102F20000CF4CECC18162CF481320CF0C9CC8150A4
:102F3000F3CF8F5FF1CF8FEF8093000180EE91E0B0
:102F40009093CA058093C9057DCF498947FD76CC0A
:102F5000B989B53224F48B2F8F5F80930201FB89EE
:102F6000F53208F062CF8F2F8F5F809301015DCF24
:102F70001F920F920FB60F9211248F939F938091FF
:102F8000E1009091E100937F9093E10083FF0FC0F7
:102F90001092E90091E09093EB001092EC0092E324
:102FA0009093ED001092EF0598E09093F00082FF6F
:102FB00022C093E09093E9009091F200992319F0D8
:102FC0009AE39093E8009091E005992341F0909165
:102FD000E00591509093E005911101C05D9A9091A8
:102FE000EE05992341F09091EE0591509093EE05F6
:102FF000911101C0289A84FF18C08091E2008E7E52
:1030000081608093E2008091E1008F7E8093E100F7
:103010008091E1058E7E80618093E1059F918F9183
:103020000F900FBE0F901F90189580FFF7CF8091E3
:10303000E2008E7E80618093E2008091E1008E7ECE
:103040008093E1008091E1058E7E8160E5CF1F9243
:103050000F920FB60F921124CF92DF92EF92FF9250
:103060000F931F932F933F934F935F936F937F9390
:103070008F939F93AF93BF93EF93FF93CF93DF9380
:10308000CDB7DEB76C97DEBFCDBF1092E90080915F
:10309000E80083FF25C068E0CE0145960E94380510
:1030A00082EF8093E8008D8987FF39C09091E80016
:1030B00090FFFCCF982F907609F034C19E894F89FC
:1030C000588D2F89F88C911131C0803861F580912D
:1030D000DF058093F1001092F1008EEF8093E800FD
:1030E0006C960FB6F894DEBF0FBECDBFDF91CF91C7
:1030F000FF91EF91BF91AF919F918F917F916F91D0
:103100005F914F913F912F911F910F91FF90EF9001
:10311000DF90CF900F900FBE0F901F9018959EEFED
:103120009093E800C7CF1092F100D5CF913059F4B9
:103130008111D3CF4130510581F68091DF058D7F1C
:103140008093DF05CACF933049F48111C6CF413057
:10315000510519F68091DF058260F2CF953041F478
:103160008091E80080FFFCCF20682093E300B5CF7A
:10317000963009F0A9C00B8D1C8D22E01092E90059
:103180001092DD051092DC05F2122EC01092DB05C4
:103190001092DA050E9407051F8299E09983FA824E
:1031A00091E09E8390EA98879AEF99872091DC05B9
:1031B0003091DD05275F3F4F3C832B838D83109239
:1031C000E9001092DD051092DC051093DB050093F9
:1031D000DA0549E050E0BE016F5F7F4F80E00E945A
:1031E000E1040E94070579CF1093DB050093DA050F
:1031F0000E94EB03DC0112960D911C910115110543
:1032000009F451C1D801ED91FC910480F581E02DC4
:10321000BE016B5E7F4FC8010995009709F03EC162
:10322000F80100851185EACFF3E0FF120EC08F8907
:10323000882309F440C0823061F440E86CE089E200
:1032400091E00E94AE04811148CF81E28093EB00AF
:1032500047CF813029F440E86BE08DE191E0F1CF78
:10326000833099F70E94EB03DC011296ED90FC90FD
:103270008E010F5F1F4F6801E114F10479F0D7014F
:10328000ED91FC910680F781E02DB801C701099509
:10329000080F111DF701E084F184EECFD8011C92D4
:1032A000F60101900020E9F73197BF016C197D0903
:1032B00040E0C601C6CF67E071E0FB01449150E0F9
:1032C00080E80E94E10409CF973009F4BECF98301E
:1032D00021F481E08093F10000CF993009F0FDCE18
:1032E000837009F0B2CFEFE6F1E081E031E096E3E0
:1032F0002191222371F08093E9003093EB00DF01EC
:1033000011972C912093EC009093ED008F5F873004
:1033100079F78EE78093EA001092EA008F89809314
:10332000EF05DBCE8B8D9C8D1092E9001092DD05B0
:103330001092DC059093DB058093DA05898D81116D
:1033400092C08E899D89913A49F4813209F07DCFEE
:1033500047E050E068E071E080E0B3CF913209F0DF
:1033600074CF833269F48F89988DB0E0A0E08093A8
:10337000040190930501A0930601B0930701ADCE1F
:10338000803269F48091E80082FFFCCF67E088E03A
:1033900091E00E9438058BEF8093E8009ECE823248
:1033A00009F09BCE8F8980930F01EEEFFFE78591A7
:1033B00094918B3F9C4D51F1E0E0F8E08091080141
:1033C00090910901A0910A01B0910B01803B9440BA
:1033D000A105B105F1F480910F0180FD1AC0EE3F07
:1033E0008AE0F80789F587E797E7918380838091E2
:1033F00060008093DE0588E19BE00FB6F894A89505
:10340000809360000FBE9093600067CEEEEFFAE00D
:10341000D5CF808191818737974709F05ECEA895F7
:10342000809160008861809360008091DE058093C8
:103430006000EE3F2AE0F20789F08091FE0A909149
:10344000FF0A9183808349CE8081918187379807D5
:1034500051F29093FF0A8093FE0AC5CF1092FF0AA3
:103460001092FE0A3ACE0E94EB03DC0112960D91F7
:103470001C910115110509F4E8CED801ED91FC91DC
:103480000190F081E02DBE016B5E7F4FC801099570
:10349000811123CEF80100851185EBCF181619068E
:1034A0000CF41BCED2CEF1E0FF12BECE6BE071E089
:1034B00004CF0F920FB68F939F93EF93FF9380915A
:1034C000B8018D5F8D3708F08D578093B801E9EB17
:1034D000F1E080818E4F808391819F4F9183828123
:1034E0008F4F828383818F4F8383EDEBF1E0808167
:1034F0008F5F808381818F4F818382818F4F828311
:1035000083818F4F83838FB18F6066991C9B88273F
:103510008F3681F48091B701981B963068F0E0E017
:10352000F8E087E78083818388E180936000F093EF
:103530006000FFCF9093B701FF91EF919F918F9122
:103540000FBE0F9018951F920F920FB60F92112475
:10355000EF92FF920F931F932F933F934F935F939D
:103560006F937F938F939F93AF93BF93CF93DF938B
:10357000EF93FF938091C301882391F18091A10182
:10358000811104C08091D705882351F140919800A2
:103590005091990056954795569547958091A10170
:1035A00081113BC030E020E08FEF9EE36091D705B2
:1035B000662309F498C0E3E9F1E06191662309F418
:1035C00092C0A191B191E0919101F09192014E0FC1
:1035D0005F1F4A175B0708F460C04A1B5B0BF9CFFB
:1035E0008FEF9FEF9093990080939800FF91EF9158
:1035F000DF91CF91BF91AF919F918F917F916F910B
:103600005F914F913F912F911F910F91FF90EF90FC
:103610000F900FBE0F901F901895A0919F01B09131
:10362000A00184E0F82EC7E9D1E0E2EAF1E08FEFF3
:103630009EE3E190619171918B01E11014C022969B
:10364000FA94F110F6CF6091D6056A9F90016B9FB6
:10365000300D112435952795359527953595279566
:1036600035952795A3CF28813981240F351F26173B
:10367000370710F0261B370B769567952617370707
:1036800018F4AE0DB11D8B0129933993021B130B56
:1036900008171907A8F6C801D3CFFD01F695E795DD
:1036A00070E04E175F0720F0719561957109FD017B
:1036B000A1E9B1E04D935D93E41BF50BE817F90721
:1036C00008F4CF01E091D505E69FA001E79F500DDA
:1036D0001124559547955595479555954795559579
:1036E0004795240F351F880F991F880F991F813028
:1036F00044E09407A8F0019788279C7F9C5F9093F3
:10370000990080939800293731056CF428388FEFA1
:1037100038075CF020581092BF002093CF0066CF8E
:1037200080E094E0ECCF28E7F5CF28E8F3CF1F92B4
:103730000F920FB60F9211248F939F9382E496E01D
:10374000909389008093880081E08093C5059F91C4
:103750008F910F900FBE0F901F9018951092F70544
:103760001092F60588EE93E0A0E0B0E08093F805B3
:103770009093F905A093FA05B093FB0589E791E0D2
:103780009093F5058093F4058FEF9FEF90930106DA
:103790008093000681E08093FA0884E08093FB0820
:1037A0001092440610924506E6E4F6E0119211925A
:1037B00026E0EE36F207D1F710926E0610927006F0
:1037C00010926F068FE497E0FC01B8971192119266
:1037D000E817F907D9F71082CF01C99629E0873198
:1037E000920791F71092E0081092DF081092E20819
:1037F0001092E1081092E4081092E3081092F50884
:103800000895CDB7DEB76897DEBFCDBF789483E06B
:1038100084BD83E085BD81E080936E00E1E8F0E047
:1038200083E08083E0E881E08083E1E983E08083D6
:10383000E0E981E08083E1EC87E08083E3EC81E0F4
:103840008083E0EC82E08083E2EC81E08083EAE741
:1038500087E08083806880831092EF051092DF05F7
:103860001092E1058091D70081608093D70080EAB3
:103870008093D80089B5806189BD89B5826089BD92
:1038800009B400FEFDCF81E090E00E94B805809170
:10389000D8008F7C80618093D8008091E000807F89
:1038A0008093E0008091E1008E7E8093E1008DE0C6
:1038B0008093E200559A209A81EC80937C0081EFFE
:1038C00085B987EE84B982E38BB982EF8AB9769A9B
:1038D0006E9880EF81BB10BA80E58CBD81E08DBD14
:1038E0000E94CC055F9A0E94CC055C98ECEAF0E05F
:1038F00085918EBD00000DB407FEFDCFE93BC1F7F9
:103900005C9A81E88093640011E01093650068E0A0
:1039100089EB90E00E94F70C9FB7F89422E436E020
:10392000309389002093880083E0809380008BE1AE
:1039300080938100109285001092840080916F0026
:10394000826080936F009FBF5E9AE4E1F0E08EE1B9
:103950009CEF60EF7FEF259135915591459128516E
:10396000354909F4CA018093C1019093C2012591A0
:103970003591559145912851354909F4BA01609323
:10398000F0057093F1058BEA0E94B0050E94BD0816
:1039900086E582BF82E48093C0001093C30080E478
:1039A0008093C4001092BF008FE78093D1001092E3
:1039B000900089E0809391008091FB088093D60568
:1039C0008093D5053E9A3F9A1093C3015E98F89470
:1039D0008091C505811109C083B7816083BF789448
:1039E000889583B78E7F83BFF2CF1092C5057894F8
:1039F0001091D9050EEF010FEE24E394FF24FA9401
:103A00000E3F18F0EE24E394F12C2FE741E050E054
:103A1000B70184E495E00E94D70662E083EC90E071
:103A20000E94F70C2FEF47E051E0B70184EC91E0E2
:103A30000E94D70662E081EC90E00E94F70C1F5FC5
:103A40000E3F30F48091C4058F5F8093C40510E071
:103A50001093D9055E9AC090D905C092D80580917F
:103A60004406833108F07BC0E82EF12CF701E55CB9
:103A7000F24E0C94FE264E1D4E1D4E1D4E1D4E1D2B
:103A8000D01D071E071E071E071E5F1EBB1FBB1F84
:103A9000BB1FBB1FDD24F224F224F2244701880C53
:103AA000991C8E0C9F1C84010C0D111D20E030E030
:103AB00040E070E060E090E080E00E948F0B809139
:103AC000D1059091D2050C9761F41092D205109215
:103AD000D1052FEFE21AF20A83E0E822FF24E092F8
:103AE00044060E94F1068823D1F18091D10590917E
:103AF000D20501969093D2058093D1058091C60599
:103B0000803218F48F5F8093C6050E94FC068823DC
:103B100031F18091C605803211F5809164008E7F6D
:103B20008093640080917A00806480937A00809111
:103B30007A0086FDFCCF00917800109179000E94F8
:103B40005306602771277093F3056093F205809107
:103B5000640081608093640085E0809344060E9445
:103B60004509811104C08091D4050E948909809182
:103B7000FB089091D705992311F40C94CF26863039
:103B800008F486E086508093D6058AE08093D505B8
:103B900080E090E0892B09F419CF0E94000016CF35
:103BA00086E08093440684E190E0909377068093CA
:103BB00076068EEC8093780610927D0610927C0635
:103BC00088E290E09093800680937F068AEB809352
:103BD0008106109286061092850686E490E0909306
:103BE0008906809388068CEE80938A0610928F0651
:103BF00010928E068FE590E0909392068093910646
:103C000088ED8093930610929806109297060E9472
:103C1000F106882319F10E94FC0687FF07C09091E6
:103C20004406963019F091509093440684FF07C0E3
:103C300090914406983019F09F5F909344068C70E1
:103C400069F0909144068091FA0890934506973068
:103C5000E9F0983011F18AE09630E1F08091440665
:103C60009091FA08992349F186500C2D10E093E0C9
:103C7000899F000D111D112422E030E340E070E027
:103C800060E090E080E00E948F0B69CF85E0809338
:103C9000030181E180934406E1CF91E0892780937D
:103CA000FA08882339F08091D4050E9489090E947E
:103CB0004003D4CF0E94BD08FACF8350D6CF8EE206
:103CC00080937106109274068BE0809372061092B6
:103CD0006E068093440680E396E09093F708809305
:103CE000F6081092F9081092F8088FEF80930201FD
:103CF0008093010110920001E4E4F6E011AA3996E4
:103D0000A6E0E63EFA07D1F710924F071092880717
:103D10001092C1071092FA071092330810926C08A3
:103D20001092A5081092DE0855EEE52E58E0F52E0B
:103D300010E002E020E0412F68E173EC83E00E9494
:103D400069050E948C03F701819391937F011F5FA6
:103D5000183079F786E08093750680E180937806C5
:103D600080EE9CEF90937706809376068EE796E040
:103D70000E940A0887E896E00E940A0880E996E017
:103D80000E940A0889E996E00E940A0882EA96E001
:103D90000E940A088BEA96E00E940A088FEC96E0DF
:103DA0000E948C0788ED96E00E948C0795E0909326
:103DB000B4068AE28093B70620ED30E03093B60671
:103DC0002093B5069093BD068093C00620EF33E0A4
:103DD0003093BF062093BE069093C6068093C90613
:103DE00020EF34E03093C8062093C7069093CF06A7
:103DF0008093D20620E436E03093D1062093D0069B
:103E00009093D8068093DB0620EB36E03093DA06F9
:103E10002093D9069093E1068093E40628E037E0EA
:103E20003093E3062093E2069093EA068093ED0632
:103E300020EF37E03093EC062093EB069093F306E7
:103E40008093F60680EB98E09093F5068093F40655
:103E50008CEF96E00E948C0785E097E00E948C072B
:103E600087E197E00E94E30B80E597E00E94E30B77
:103E700089E897E00E94E30B82EC97E00E94E30B55
:103E800034E0E32EE092FB074EE2F42EF092FE07C0
:103E900080EC90E09093FD078093FC070DE111E02A
:103EA00010930108009300084CE251E06DE171E0CD
:103EB0008BEF97E00E941B0D1092FF07E0923408F1
:103EC000F092370884EE91E090933608809335089D
:103ED00010933A08009339084CE251E06DE171E02B
:103EE00084E398E00E941B0D1092380813E01093B1
:103EF0006D088CE18093700880EF90E090936F08DC
:103F000080936E0882EF90E090937308809372081C
:103F100045E051E062EF70E08DE698E00E941B0DF5
:103F2000109271081093A6088AE08093A90880EA8D
:103F30009FEF9093A8088093A70885EC90E090935A
:103F4000AC088093AB0848ED50E065EC70E086EA81
:103F500098E00E941B0D1092AA0880EC9FEF9093AE
:103F6000E4088093E3088FEF9FEF0E948708109288
:103F7000D2051092D1050E94F10681110E94340DE4
:103F800080916F06909170060E94AC088093730632
:103F90008C2C912C8091DF089091E00897FD019680
:103FA0009595879502E0A02E640106EBE02E0DEEBC
:103FB000F02E02E020E240E870E060E080589109D5
:103FC0000E94F10A8091DF089091E00897FD019628
:103FD000F2E0AF2E640106EBE02E0DEEF02E02E0D3
:103FE00020E240E870E060E0959587950E94F10A34
:103FF0008091DF089091E00897FD0196959587954F
:1040000052E0A52E640106EBE02E0DEEF02E02E04C
:1040100020E240E870E060E080589F4F0E94F10A83
:104020007DEEC72E78E0D72EE4E0FE2E4F2D60EB1C
:1040300071ED83E00E9476059B01482F84016FE0BB
:1040400070E0D6018D919D916D010E94590BF39402
:10405000B8E0FB12EBCF35EEC32E38E0D32EF12CB7
:104060004F2D60EB71ED83E00E9476059B01482F98
:1040700084016EE070E0F601819191916F010E94E0
:10408000590BF394F4E0FF12EBCF8091E308909189
:10409000E40829ECA22EBB24BA94A81AB90AB7FEE8
:1040A00003C02FE0A20EB11C04E0B594A7940A95BA
:1040B000E1F7350181E0681A710884E0AA0CBB1CA5
:1040C0008A95E1F7512C412C97E2A90EB11CA0EA88
:1040D0004A16510409F474C0BFEF6B167B06E1F178
:1040E00077FC33C0ECEB6E16710479F1FDEB6F16C3
:1040F000710491F12CEB621671043CF5C3016EE57D
:1041000070E00E94EA26FC01E05FFE4F2081822FD2
:1041100090E02C33C0F4243108F144976C01CC0CAE
:10412000DD1CC80ED91EC80CD91CE091E308F09123
:10413000E4080AE5E02E04E1F02E03E028E240E185
:1041400062E170E01FC0203528F18FEF681A780A0D
:1041500090E1490E511CBBCF8BE090E06C01CC0C80
:10416000DD1CC80ED91EC80CD91CE091E308F091E3
:10417000E40806EBE02E03EFF02E02E028E140E138
:1041800062E270E0C501840D951D8E0F9F1F0E9495
:10419000440BDBCFCC976C01CC0CDD1CC80ED91EB8
:1041A000C80CD91CE091E308F091E40808E5E02E82
:1041B00002E0F02E03E020E340E16AE070E0E2CFAD
:1041C00030900001AFEF3A12FDC054E4A52E56E046
:1041D000B52EF50182A993A9C7962091E3083091E5
:1041E000E408820F931F9C01205E3F4F213A310566
:1041F00008F05FC021A9213071F464A9062E000CDB
:10420000770B64010CE5E02E00E5F02E03E020E1E1
:1042100040E10E94440BD501D1968C91D197833017
:10422000D1F4D4966C91D497062E000C770BD296CD
:104230008D919C91CA96E091E308F091E4086401A5
:1042400006EAE02E0AE6F02E03E028E049E08E0FB1
:104250009F1F0E94440BF50181A9853051F5809183
:10426000D1059091D205969587959695879566E0AC
:1042700070E00E94D6266C01CC0CDD1CC80ED91E45
:10428000C80CD91C64A9062E000C770B02A8F3A950
:10429000E02DFA968091E3089091E4080EEDE02E6F
:1042A0000AE6F02E03E020E140E18E0F9F1F0E94FE
:1042B000440BF9E0AF0EB11C26EEA21626E0B206C2
:1042C00009F087CFF7E1AF2EF7E0BF2EAFED4A2E12
:1042D000A8E05A2E13E0D50111966D907C90B7E3BB
:1042E0006B0E711C8091E3089091E408680E791EB2
:1042F000C3018096813A910508F05DC0F501808187
:104300008230F9F4858196810E94AC08D50114961B
:104310009C91992311F093FD14C06401819FC00CFE
:10432000D11C1124F5016381062E000C770B00EAE5
:10433000E02E0BE5F02E03E020E140E1C3010E94F6
:10434000440BD5010C910330C9F415968D919C91C5
:104350000E94AC086401809FC00CD11C1124F5019F
:104360006381062E000C770B02EAE02E0EE5F02E9C
:1043700003E020E14EE0C3010E94440BD5018C9183
:104380008430C9F415968D919C910E94AC0864010B
:10439000819FC00CD11C1124F5016381062E000CF5
:1043A000770B04EEE02E03E6F02E03E020E140E17F
:1043B000C3010E94440BF9E3AF0EB11C4A145B0425
:1043C00009F089CF8091CF059091D005009709F42D
:1043D0009BC101979093D0058093CF052091CD0587
:1043E0003091CE05232B11F086FD7EC1809172069F
:1043F00013E06401819FC00CD11C11240AE1E02E5E
:1044000002E7F02E02E028E043E261E070E081E0A4
:1044100090E00E94440B809173066401819FC00C60
:10442000D11C11246091710670E008EFE02E00EBC2
:10443000F02E02E020E140E186E390E00E94440B90
:104440008091CB059091CC05009761F001979093F6
:10445000CC058093CB056401A4EDCA1AAEEFDA0A4D
:1044600086FD10C08091F6089091F708F4E09695CB
:104470008795FA95E1F76C01CC0CDD1CC80ED91EAE
:10448000C80CD91C0EE2E02E0AE2F02E02E028E071
:104490004AE161E070E085E690E00E94440B809183
:1044A0007906883308F586958695869590917A06E3
:1044B000890F8401B3E08B9F000D111D11246091C1
:1044C0007806062E000C770B809176069091770681
:1044D000C796E091E308F091E4082EE131E543E06E
:1044E0008E0F9F1F0E94590BA090C905B090CA055E
:1044F000A114B10489F18091C8056401E3E08E9FA5
:10450000C00CD11C112408E3E02E0DE6F02E02E0D1
:1045100028E04DE066E370E081E090E00E94440B0B
:10452000C090C705D12CF8E0CF0ED11CC601880F72
:10453000991FC80ED91EC80CD91C28E04DE066E3AF
:1045400070E082E790E00E94440B21E0A21AB108DB
:10455000B092CA05A092C9056091020167FD11C021
:10456000653209F0F8C0640104E1E02E06EAF02E9D
:1045700002E020E244E363E170E086E290E00E9422
:10458000440B6091010167FD11C0653209F07CC1E7
:1045900064010AE8E02E00EAF02E02E020E24BE39C
:1045A00063E170E083E290E00E94440B37FCD7CADD
:1045B000A32DB8E1AB02B0011124072E000C880B2B
:1045C0006E5975438C4F0E948C0568E170E0CE01F6
:1045D00001960E9461050E944A05898113E06401E9
:1045E000819FC00CD11C11246B81062E000C770B0F
:1045F0008A8102EAE02E0AE8F02E02E020E140E1A2
:1046000090E00E94440B8C816401819FC00CD11CFE
:1046100011246E81062E000C770B8D8120E140E184
:1046200090E00E94440B8F816401819FC00CD11CDB
:1046300011246985062E000C770B888520E140E166
:1046400090E00E94440B8A856401819FC00CD11CBC
:1046500011246C85062E000C770B8B8520E140E140
:1046600090E00E94440B8D856401819FC00CD11C99
:1046700011246F85062E000C770B8E8520E140E11A
:1046800090E00E94440B88896401819FC00CD11C7A
:1046900011246A89062E000C770B898920E140E1FC
:1046A00090E00E94440B8B896401819FC00CD11C57
:1046B00011246D89062E000C770B8C8920E140E1D6
:1046C00090E00E94440B8E896401819FC00CD11C34
:1046D0001124688D062E000C770B8F8920E140E1B4
:1046E00090E00E94440B3BCA640124E2C20ED11C3C
:1046F0000AE1E02E02E7F02E02E028E043E261E06A
:1047000070E081E090E09ACE80917306640193E0BE
:10471000899FC00CD11C11246091710670E008EFD4
:10472000E02E00EBF02E02E020E140E186E390E095
:104730000E94440B8091F8089091F9086C01CC0C10
:10474000DD1CC80ED91EC80CD91C04E0E02E00E9FF
:10475000F02E00E0D2CF88E16802B0011124072ECC
:10476000000C880B6E5B7C438C4F0E948C0568E1CB
:1047700070E0CE0101960E9461050E944A05898180
:1047800013E06401819FC00CD11C11246B81062EA3
:10479000000C770B8A8102EAE02E0AE8F02E02E094
:1047A00020E140E190E00E94440B8C816401819FF4
:1047B000C00CD11C11246E81062E000C770B8D814C
:1047C00020E140E190E00E94440B8F816401819FD1
:1047D000C00CD11C11246985062E000C770B88852E
:1047E00020E140E190E00E94440B8A856401819FB2
:1047F000C00CD11C11246C85062E000C770B8B8508
:1048000020E140E190E00E94440B8D856401819F8E
:10481000C00CD11C11246F85062E000C770B8E85E1
:1048200020E140E190E00E94440B88896401819F6F
:10483000C00CD11C11246A89062E000C770B8989C3
:1048400020E140E190E00E94440B8B896401819F4C
:10485000C00CD11C11246D89062E000C770B8C899D
:1048600020E140E190E00E94440B8E896401819F29
:10487000C00CD11C1124688D062E000C770B8F897B
:1048800020E140E190E07BCE98E16902B001112483
:10489000072E000C880B6E5279438C4F0E948C05BA
:1048A00068E170E0CE0101960E9461050E944A0510
:1048B000898113E06401819FC00CD11C11246B819C
:1048C000062E000C770B8A8102EAE02E0AE8F02E11
:1048D00002E020E140E190E00E94440B8C81640101
:1048E000819FC00CD11C11246E81062E000C770B09
:1048F0008D8120E140E190E00E94440B8F816401B2
:10490000819FC00CD11C11246985062E000C770BE9
:10491000888520E140E190E00E94440B8A85640193
:10492000819FC00CD11C11246C85062E000C770BC6
:104930008B8520E140E190E00E94440B8D8564016D
:10494000819FC00CD11C11246F85062E000C770BA3
:104950008E8520E140E190E00E94440B888964014B
:10496000819FC00CD11C11246A89062E000C770B84
:10497000898920E140E190E00E94440B8B89640129
:10498000819FC00CD11C11246D89062E000C770B61
:104990008C8920E140E190E00E94440B8E89640103
:1049A000819FC00CD11C1124688D062E000C770B42
:1049B0008F8920E140E190E0F7CD80E180934406CB
:1049C0001092D3054091F8085091F908EBE0F9E016
:1049D00030E020E0122F2530310509F0F0C085E0ED
:1049E000809303010E94F1068823A1F00E94FC0637
:1049F000182F8091D1059091D20501969093D20500
:104A00008093D10580914406803109F417C181312A
:104A100009F460C1D12C86010E5E1F4F22E030E305
:104A200040E070E060E090E080E00E948F0B7AEF61
:104A3000472E78E0572E1201E3E1EE2EF12CB12C37
:104A4000F3E0AF2E90900301D20112960C919B14CB
:104A500009F447C1B4E0B91508F443C110E0055E9C
:104A60001F4FC801880F991F080F191F0C0D1D1D1E
:104A70002CE33FE742E0B70181E590E00E94590B4B
:104A8000D20112964C9168E273EC83E00E94840597
:104A9000882E8FEF880D9B1409F43AC1B4E0B91544
:104AA00008F436C1F201038110E0055E1F4F980142
:104AB000220F331F020F131F0C0D1D1D90E02CE35E
:104AC0003FE742E0B7018F5A9F4F0E94590BF20116
:104AD000438168E273EC83E00E9484058A948A949F
:104AE000880D9B1409F42EC1F4E0F91508F42AC1CD
:104AF000D20114960C9110E0055E1F4F9801220F11
:104B0000331F020F131F0C0D1D1D90E02CE33FE718
:104B100042E0B7018F5A9F4F0E94590BD101519625
:104B20008D919C918090D805912CBEE18B0E911CAB
:104B300064E670E00E94D6263C018B01000F111F35
:104B4000060F171F080D191D24EE3EE942E0B701BC
:104B50008BE690E00E948F0BC3016AE070E00E9438
:104B6000D6263C018B01000F111F060F171F080DE1
:104B7000191D24EE3EE942E0B70181E790E00E9472
:104B80008F0B8301000F111F060D171D080D191D36
:104B900024EE3EE942E0B70187E790E00E948F0BE8
:104BA000B394F3E04F0E511C22E0220E311C89E039
:104BB000E80EF11C95E0B91245CF0C94AF1DC90168
:104BC000619171912F5F3F4F4617570708F402CF4D
:104BD00010930301EAEFF8E0DF0124E03397129726
:104BE000121780F43685318B3785328B3089338BC1
:104BF00059966D917C915A975C967C936E935B97D6
:104C00002150ECCF9C01220F331FD901A80FB91FEF
:104C1000A650B74F12961C9212970196FC01EE0F08
:104C2000FF1FE80FF91FE650F74F108214961C92F1
:104C30002650374FF901528B418BD4CE13FF08C059
:104C40008FEF8093030181E1809344060E9440032B
:104C500015FF07C08091D305882319F081508093F8
:104C6000D30516FF07C08091D305823018F48F5FFB
:104C70008093D3058091030117FF13C0482F50E0A4
:104C8000E091D3059A01220F331F240F351F2650C0
:104C9000374FE20FF32FF11D92819F5F9A31B1F0F0
:104CA000928314FFB7CE282F30E0E091D305C901DD
:104CB000880F991F820F931F8650974FE80FF92F87
:104CC000F11D8281815020F08283A4CE1282E9CF2F
:104CD00089E1FACF13FF9ECE80914506809344066A
:104CE00099CE8091D30581110CC0E4E0E91548F01C
:104CF0008091D1059091D2058F739927809708F004
:104D0000BFCEC6010A9D800D911D11248C01B0CE2D
:104D10009091D305913069F4F4E0F91550F02091A9
:104D2000D1053091D2052F7333272032310508F099
:104D3000CECED20113969C9186019A9D000D111D35
:104D40001124BCCE9091D305923061F4B4E0B91532
:104D500048F02091D1053091D2052F7333272032AE
:104D6000310508F5F201948186019A9D000D111D0F
:104D7000112490E02CE33FE742E0B7018F5A9F4FA8
:104D80000E94590B9B1421F0F4E0F91508F0C6CEEF
:104D9000F101818992898090D805912CC9CE8093A8
:104DA000D6050C94C81D9B10B9CEF2CFAA1BBB1B15
:104DB00051E107C0AA1FBB1FA617B70710F0A61B1B
:104DC000B70B881F991F5A95A9F780959095BC013C
:104DD000CD01089597FB072E16F4009407D077FDB8
:104DE00009D00E94D62607FC05D03EF49095819507
:104DF0009F4F0895709561957F4F0895EE0FFF1FA7
:0C4E00000590F491E02D0994F894FFCF88
:104E0C00FFFFFF05FFFFFFFF00E1000000000000B7
:104E1C004126251D160A18251E1927230441421A5E
:104E2C002627182B1729322926251522173F000A69
:104E3C0014191724261B281C27040323142B171AB8
:104E4C00292F262527182C1740262822171A3F41D0
:104E5C0026251517262B270A0704411A26221D176B
:104E6C00332C1B2723043C242E262B27230200C182
:104E7C00808100000000000000FF03D00520041515
:084E8C00046604240442040042
:00000001FF
